{
  "_format": "hh-sol-artifact-1",
  "contractName": "NFTCollection",
  "sourceName": "contracts/NFTCollection.sol",
  "abi": [
    {
      "inputs": [
        {
          "internalType": "address",
          "name": "initialOwner",
          "type": "address"
        }
      ],
      "stateMutability": "nonpayable",
      "type": "constructor"
    },
    {
      "inputs": [
        {
          "internalType": "address",
          "name": "sender",
          "type": "address"
        },
        {
          "internalType": "uint256",
          "name": "tokenId",
          "type": "uint256"
        },
        {
          "internalType": "address",
          "name": "owner",
          "type": "address"
        }
      ],
      "name": "ERC721IncorrectOwner",
      "type": "error"
    },
    {
      "inputs": [
        {
          "internalType": "address",
          "name": "operator",
          "type": "address"
        },
        {
          "internalType": "uint256",
          "name": "tokenId",
          "type": "uint256"
        }
      ],
      "name": "ERC721InsufficientApproval",
      "type": "error"
    },
    {
      "inputs": [
        {
          "internalType": "address",
          "name": "approver",
          "type": "address"
        }
      ],
      "name": "ERC721InvalidApprover",
      "type": "error"
    },
    {
      "inputs": [
        {
          "internalType": "address",
          "name": "operator",
          "type": "address"
        }
      ],
      "name": "ERC721InvalidOperator",
      "type": "error"
    },
    {
      "inputs": [
        {
          "internalType": "address",
          "name": "owner",
          "type": "address"
        }
      ],
      "name": "ERC721InvalidOwner",
      "type": "error"
    },
    {
      "inputs": [
        {
          "internalType": "address",
          "name": "receiver",
          "type": "address"
        }
      ],
      "name": "ERC721InvalidReceiver",
      "type": "error"
    },
    {
      "inputs": [
        {
          "internalType": "address",
          "name": "sender",
          "type": "address"
        }
      ],
      "name": "ERC721InvalidSender",
      "type": "error"
    },
    {
      "inputs": [
        {
          "internalType": "uint256",
          "name": "tokenId",
          "type": "uint256"
        }
      ],
      "name": "ERC721NonexistentToken",
      "type": "error"
    },
    {
      "inputs": [
        {
          "internalType": "address",
          "name": "owner",
          "type": "address"
        }
      ],
      "name": "OwnableInvalidOwner",
      "type": "error"
    },
    {
      "inputs": [
        {
          "internalType": "address",
          "name": "account",
          "type": "address"
        }
      ],
      "name": "OwnableUnauthorizedAccount",
      "type": "error"
    },
    {
      "anonymous": false,
      "inputs": [
        {
          "indexed": true,
          "internalType": "address",
          "name": "owner",
          "type": "address"
        },
        {
          "indexed": true,
          "internalType": "address",
          "name": "approved",
          "type": "address"
        },
        {
          "indexed": true,
          "internalType": "uint256",
          "name": "tokenId",
          "type": "uint256"
        }
      ],
      "name": "Approval",
      "type": "event"
    },
    {
      "anonymous": false,
      "inputs": [
        {
          "indexed": true,
          "internalType": "address",
          "name": "owner",
          "type": "address"
        },
        {
          "indexed": true,
          "internalType": "address",
          "name": "operator",
          "type": "address"
        },
        {
          "indexed": false,
          "internalType": "bool",
          "name": "approved",
          "type": "bool"
        }
      ],
      "name": "ApprovalForAll",
      "type": "event"
    },
    {
      "anonymous": false,
      "inputs": [
        {
          "indexed": false,
          "internalType": "uint256",
          "name": "_fromTokenId",
          "type": "uint256"
        },
        {
          "indexed": false,
          "internalType": "uint256",
          "name": "_toTokenId",
          "type": "uint256"
        }
      ],
      "name": "BatchMetadataUpdate",
      "type": "event"
    },
    {
      "anonymous": false,
      "inputs": [
        {
          "indexed": false,
          "internalType": "uint256",
          "name": "_tokenId",
          "type": "uint256"
        }
      ],
      "name": "MetadataUpdate",
      "type": "event"
    },
    {
      "anonymous": false,
      "inputs": [
        {
          "indexed": true,
          "internalType": "address",
          "name": "previousOwner",
          "type": "address"
        },
        {
          "indexed": true,
          "internalType": "address",
          "name": "newOwner",
          "type": "address"
        }
      ],
      "name": "OwnershipTransferred",
      "type": "event"
    },
    {
      "anonymous": false,
      "inputs": [
        {
          "indexed": true,
          "internalType": "address",
          "name": "from",
          "type": "address"
        },
        {
          "indexed": true,
          "internalType": "address",
          "name": "to",
          "type": "address"
        },
        {
          "indexed": true,
          "internalType": "uint256",
          "name": "tokenId",
          "type": "uint256"
        }
      ],
      "name": "Transfer",
      "type": "event"
    },
    {
      "inputs": [
        {
          "internalType": "address",
          "name": "to",
          "type": "address"
        },
        {
          "internalType": "uint256",
          "name": "tokenId",
          "type": "uint256"
        }
      ],
      "name": "approve",
      "outputs": [],
      "stateMutability": "nonpayable",
      "type": "function"
    },
    {
      "inputs": [
        {
          "internalType": "address",
          "name": "owner",
          "type": "address"
        }
      ],
      "name": "balanceOf",
      "outputs": [
        {
          "internalType": "uint256",
          "name": "",
          "type": "uint256"
        }
      ],
      "stateMutability": "view",
      "type": "function"
    },
    {
      "inputs": [
        {
          "internalType": "uint256",
          "name": "tokenId",
          "type": "uint256"
        }
      ],
      "name": "getApproved",
      "outputs": [
        {
          "internalType": "address",
          "name": "",
          "type": "address"
        }
      ],
      "stateMutability": "view",
      "type": "function"
    },
    {
      "inputs": [
        {
          "internalType": "address",
          "name": "owner",
          "type": "address"
        },
        {
          "internalType": "address",
          "name": "operator",
          "type": "address"
        }
      ],
      "name": "isApprovedForAll",
      "outputs": [
        {
          "internalType": "bool",
          "name": "",
          "type": "bool"
        }
      ],
      "stateMutability": "view",
      "type": "function"
    },
    {
      "inputs": [],
      "name": "name",
      "outputs": [
        {
          "internalType": "string",
          "name": "",
          "type": "string"
        }
      ],
      "stateMutability": "view",
      "type": "function"
    },
    {
      "inputs": [],
      "name": "owner",
      "outputs": [
        {
          "internalType": "address",
          "name": "",
          "type": "address"
        }
      ],
      "stateMutability": "view",
      "type": "function"
    },
    {
      "inputs": [
        {
          "internalType": "address",
          "name": "to",
          "type": "address"
        },
        {
          "internalType": "string",
          "name": "uri",
          "type": "string"
        }
      ],
      "name": "ownerMint",
      "outputs": [],
      "stateMutability": "nonpayable",
      "type": "function"
    },
    {
      "inputs": [
        {
          "internalType": "uint256",
          "name": "tokenId",
          "type": "uint256"
        }
      ],
      "name": "ownerOf",
      "outputs": [
        {
          "internalType": "address",
          "name": "",
          "type": "address"
        }
      ],
      "stateMutability": "view",
      "type": "function"
    },
    {
      "inputs": [
        {
          "internalType": "string",
          "name": "uri",
          "type": "string"
        }
      ],
      "name": "publicMint",
      "outputs": [],
      "stateMutability": "nonpayable",
      "type": "function"
    },
    {
      "inputs": [],
      "name": "renounceOwnership",
      "outputs": [],
      "stateMutability": "nonpayable",
      "type": "function"
    },
    {
      "inputs": [
        {
          "internalType": "address",
          "name": "from",
          "type": "address"
        },
        {
          "internalType": "address",
          "name": "to",
          "type": "address"
        },
        {
          "internalType": "uint256",
          "name": "tokenId",
          "type": "uint256"
        }
      ],
      "name": "safeTransferFrom",
      "outputs": [],
      "stateMutability": "nonpayable",
      "type": "function"
    },
    {
      "inputs": [
        {
          "internalType": "address",
          "name": "from",
          "type": "address"
        },
        {
          "internalType": "address",
          "name": "to",
          "type": "address"
        },
        {
          "internalType": "uint256",
          "name": "tokenId",
          "type": "uint256"
        },
        {
          "internalType": "bytes",
          "name": "data",
          "type": "bytes"
        }
      ],
      "name": "safeTransferFrom",
      "outputs": [],
      "stateMutability": "nonpayable",
      "type": "function"
    },
    {
      "inputs": [
        {
          "internalType": "address",
          "name": "operator",
          "type": "address"
        },
        {
          "internalType": "bool",
          "name": "approved",
          "type": "bool"
        }
      ],
      "name": "setApprovalForAll",
      "outputs": [],
      "stateMutability": "nonpayable",
      "type": "function"
    },
    {
      "inputs": [
        {
          "internalType": "bytes4",
          "name": "interfaceId",
          "type": "bytes4"
        }
      ],
      "name": "supportsInterface",
      "outputs": [
        {
          "internalType": "bool",
          "name": "",
          "type": "bool"
        }
      ],
      "stateMutability": "view",
      "type": "function"
    },
    {
      "inputs": [],
      "name": "symbol",
      "outputs": [
        {
          "internalType": "string",
          "name": "",
          "type": "string"
        }
      ],
      "stateMutability": "view",
      "type": "function"
    },
    {
      "inputs": [
        {
          "internalType": "uint256",
          "name": "tokenId",
          "type": "uint256"
        }
      ],
      "name": "tokenURI",
      "outputs": [
        {
          "internalType": "string",
          "name": "",
          "type": "string"
        }
      ],
      "stateMutability": "view",
      "type": "function"
    },
    {
      "inputs": [],
      "name": "totalIssued",
      "outputs": [
        {
          "internalType": "uint256",
          "name": "",
          "type": "uint256"
        }
      ],
      "stateMutability": "view",
      "type": "function"
    },
    {
      "inputs": [
        {
          "internalType": "address",
          "name": "from",
          "type": "address"
        },
        {
          "internalType": "address",
          "name": "to",
          "type": "address"
        },
        {
          "internalType": "uint256",
          "name": "tokenId",
          "type": "uint256"
        }
      ],
      "name": "transferFrom",
      "outputs": [],
      "stateMutability": "nonpayable",
      "type": "function"
    },
    {
      "inputs": [
        {
          "internalType": "address",
          "name": "newOwner",
          "type": "address"
        }
      ],
      "name": "transferOwnership",
      "outputs": [],
      "stateMutability": "nonpayable",
      "type": "function"
    }
  ],
  "bytecode": "0x60806040523480156200001157600080fd5b5060405162002db338038062002db3833981810160405281019062000037919062000288565b806040518060400160405280600681526020017f4149204e465400000000000000000000000000000000000000000000000000008152506040518060400160405280600581526020017f41494e46540000000000000000000000000000000000000000000000000000008152508160009081620000b5919062000534565b508060019081620000c7919062000534565b505050600073ffffffffffffffffffffffffffffffffffffffff168173ffffffffffffffffffffffffffffffffffffffff16036200013f5760006040517f1e4fbdf70000000000000000000000000000000000000000000000000000000081526004016200013691906200062c565b60405180910390fd5b62000150816200015860201b60201c565b505062000649565b6000600760009054906101000a900473ffffffffffffffffffffffffffffffffffffffff16905081600760006101000a81548173ffffffffffffffffffffffffffffffffffffffff021916908373ffffffffffffffffffffffffffffffffffffffff1602179055508173ffffffffffffffffffffffffffffffffffffffff168173ffffffffffffffffffffffffffffffffffffffff167f8be0079c531659141344cd1fd0a4f28419497f9722a3daafe3b4186f6b6457e060405160405180910390a35050565b600080fd5b600073ffffffffffffffffffffffffffffffffffffffff82169050919050565b6000620002508262000223565b9050919050565b620002628162000243565b81146200026e57600080fd5b50565b600081519050620002828162000257565b92915050565b600060208284031215620002a157620002a06200021e565b5b6000620002b18482850162000271565b91505092915050565b600081519050919050565b7f4e487b7100000000000000000000000000000000000000000000000000000000600052604160045260246000fd5b7f4e487b7100000000000000000000000000000000000000000000000000000000600052602260045260246000fd5b600060028204905060018216806200033c57607f821691505b602082108103620003525762000351620002f4565b5b50919050565b60008190508160005260206000209050919050565b60006020601f8301049050919050565b600082821b905092915050565b600060088302620003bc7fffffffffffffffffffffffffffffffffffffffffffffffffffffffffffffffff826200037d565b620003c886836200037d565b95508019841693508086168417925050509392505050565b6000819050919050565b6000819050919050565b6000620004156200040f6200040984620003e0565b620003ea565b620003e0565b9050919050565b6000819050919050565b6200043183620003f4565b6200044962000440826200041c565b8484546200038a565b825550505050565b600090565b6200046062000451565b6200046d81848462000426565b505050565b5b8181101562000495576200048960008262000456565b60018101905062000473565b5050565b601f821115620004e457620004ae8162000358565b620004b9846200036d565b81016020851015620004c9578190505b620004e1620004d8856200036d565b83018262000472565b50505b505050565b600082821c905092915050565b60006200050960001984600802620004e9565b1980831691505092915050565b6000620005248383620004f6565b9150826002028217905092915050565b6200053f82620002ba565b67ffffffffffffffff8111156200055b576200055a620002c5565b5b62000567825462000323565b6200057482828562000499565b600060209050601f831160018114620005ac576000841562000597578287015190505b620005a3858262000516565b86555062000613565b601f198416620005bc8662000358565b60005b82811015620005e657848901518255600182019150602085019450602081019050620005bf565b8683101562000606578489015162000602601f891682620004f6565b8355505b6001600288020188555050505b505050505050565b620006268162000243565b82525050565b60006020820190506200064360008301846200061b565b92915050565b61275a80620006596000396000f3fe608060405234801561001057600080fd5b50600436106101215760003560e01c8063715018a6116100ad578063b88d4fde11610071578063b88d4fde146102f2578063c87b56dd1461030e578063e985e9c51461033e578063f2fde38b1461036e578063f5be31931461038a57610121565b8063715018a6146102745780638da5cb5b1461027e57806395d89b411461029c578063a22cb465146102ba578063b3d7acf9146102d657610121565b806323b872dd116100f457806323b872dd146101c057806341d5b803146101dc57806342842e0e146101f85780636352211e1461021457806370a082311461024457610121565b806301ffc9a71461012657806306fdde0314610156578063081812fc14610174578063095ea7b3146101a4575b600080fd5b610140600480360381019061013b9190611b69565b6103a8565b60405161014d9190611bb1565b60405180910390f35b61015e6103ba565b60405161016b9190611c5c565b60405180910390f35b61018e60048036038101906101899190611cb4565b61044c565b60405161019b9190611d22565b60405180910390f35b6101be60048036038101906101b99190611d69565b610468565b005b6101da60048036038101906101d59190611da9565b61047e565b005b6101f660048036038101906101f19190611f31565b610580565b005b610212600480360381019061020d9190611da9565b6105bc565b005b61022e60048036038101906102299190611cb4565b6105dc565b60405161023b9190611d22565b60405180910390f35b61025e60048036038101906102599190611f8d565b6105ee565b60405161026b9190611fc9565b60405180910390f35b61027c6106a8565b005b6102866106bc565b6040516102939190611d22565b60405180910390f35b6102a46106e6565b6040516102b19190611c5c565b60405180910390f35b6102d460048036038101906102cf9190612010565b610778565b005b6102f060048036038101906102eb9190612050565b61078e565b005b61030c6004803603810190610307919061213a565b6107c1565b005b61032860048036038101906103239190611cb4565b6107e6565b6040516103359190611c5c565b60405180910390f35b610358600480360381019061035391906121bd565b6107f8565b6040516103659190611bb1565b60405180910390f35b61038860048036038101906103839190611f8d565b61088c565b005b610392610912565b60405161039f9190611fc9565b60405180910390f35b60006103b382610918565b9050919050565b6060600080546103c99061222c565b80601f01602080910402602001604051908101604052809291908181526020018280546103f59061222c565b80156104425780601f1061041757610100808354040283529160200191610442565b820191906000526020600020905b81548152906001019060200180831161042557829003601f168201915b5050505050905090565b600061045782610979565b5061046182610a01565b9050919050565b61047a8282610475610a3e565b610a46565b5050565b600073ffffffffffffffffffffffffffffffffffffffff168273ffffffffffffffffffffffffffffffffffffffff16036104f05760006040517f64a0ae920000000000000000000000000000000000000000000000000000000081526004016104e79190611d22565b60405180910390fd5b600061050483836104ff610a3e565b610a58565b90508373ffffffffffffffffffffffffffffffffffffffff168173ffffffffffffffffffffffffffffffffffffffff161461057a578382826040517f64283d7b0000000000000000000000000000000000000000000000000000000081526004016105719392919061225d565b60405180910390fd5b50505050565b610588610c72565b60006008600081548092919061059d906122c3565b9190505590506105ad8382610cf9565b6105b78183610d17565b505050565b6105d7838383604051806020016040528060008152506107c1565b505050565b60006105e782610979565b9050919050565b60008073ffffffffffffffffffffffffffffffffffffffff168273ffffffffffffffffffffffffffffffffffffffff16036106615760006040517f89c62b640000000000000000000000000000000000000000000000000000000081526004016106589190611d22565b60405180910390fd5b600360008373ffffffffffffffffffffffffffffffffffffffff1673ffffffffffffffffffffffffffffffffffffffff168152602001908152602001600020549050919050565b6106b0610c72565b6106ba6000610d73565b565b6000600760009054906101000a900473ffffffffffffffffffffffffffffffffffffffff16905090565b6060600180546106f59061222c565b80601f01602080910402602001604051908101604052809291908181526020018280546107219061222c565b801561076e5780601f106107435761010080835404028352916020019161076e565b820191906000526020600020905b81548152906001019060200180831161075157829003601f168201915b5050505050905090565b61078a610783610a3e565b8383610e39565b5050565b6000600860008154809291906107a3906122c3565b9190505590506107b33382610cf9565b6107bd8183610d17565b5050565b6107cc84848461047e565b6107e06107d7610a3e565b85858585610fa8565b50505050565b60606107f182611159565b9050919050565b6000600560008473ffffffffffffffffffffffffffffffffffffffff1673ffffffffffffffffffffffffffffffffffffffff16815260200190815260200160002060008373ffffffffffffffffffffffffffffffffffffffff1673ffffffffffffffffffffffffffffffffffffffff16815260200190815260200160002060009054906101000a900460ff16905092915050565b610894610c72565b600073ffffffffffffffffffffffffffffffffffffffff168173ffffffffffffffffffffffffffffffffffffffff16036109065760006040517f1e4fbdf70000000000000000000000000000000000000000000000000000000081526004016108fd9190611d22565b60405180910390fd5b61090f81610d73565b50565b60085481565b6000634906490660e01b7bffffffffffffffffffffffffffffffffffffffffffffffffffffffff1916827bffffffffffffffffffffffffffffffffffffffffffffffffffffffff1916148061097257506109718261126c565b5b9050919050565b6000806109858361134e565b9050600073ffffffffffffffffffffffffffffffffffffffff168173ffffffffffffffffffffffffffffffffffffffff16036109f857826040517f7e2732890000000000000000000000000000000000000000000000000000000081526004016109ef9190611fc9565b60405180910390fd5b80915050919050565b60006004600083815260200190815260200160002060009054906101000a900473ffffffffffffffffffffffffffffffffffffffff169050919050565b600033905090565b610a53838383600161138b565b505050565b600080610a648461134e565b9050600073ffffffffffffffffffffffffffffffffffffffff168373ffffffffffffffffffffffffffffffffffffffff1614610aa657610aa5818486611550565b5b600073ffffffffffffffffffffffffffffffffffffffff168173ffffffffffffffffffffffffffffffffffffffff1614610b3757610ae860008560008061138b565b6001600360008373ffffffffffffffffffffffffffffffffffffffff1673ffffffffffffffffffffffffffffffffffffffff168152602001908152602001600020600082825403925050819055505b600073ffffffffffffffffffffffffffffffffffffffff168573ffffffffffffffffffffffffffffffffffffffff1614610bba576001600360008773ffffffffffffffffffffffffffffffffffffffff1673ffffffffffffffffffffffffffffffffffffffff168152602001908152602001600020600082825401925050819055505b846002600086815260200190815260200160002060006101000a81548173ffffffffffffffffffffffffffffffffffffffff021916908373ffffffffffffffffffffffffffffffffffffffff160217905550838573ffffffffffffffffffffffffffffffffffffffff168273ffffffffffffffffffffffffffffffffffffffff167fddf252ad1be2c89b69c2b068fc378daa952ba7f163c4a11628f55a4df523b3ef60405160405180910390a4809150509392505050565b610c7a610a3e565b73ffffffffffffffffffffffffffffffffffffffff16610c986106bc565b73ffffffffffffffffffffffffffffffffffffffff1614610cf757610cbb610a3e565b6040517f118cdaa7000000000000000000000000000000000000000000000000000000008152600401610cee9190611d22565b60405180910390fd5b565b610d13828260405180602001604052806000815250611614565b5050565b80600660008481526020019081526020016000209081610d3791906124b7565b507ff8e1a15aba9398e019f0b49df1a4fde98ee17ae345cb5f6b5e2c27f5033e8ce782604051610d679190611fc9565b60405180910390a15050565b6000600760009054906101000a900473ffffffffffffffffffffffffffffffffffffffff16905081600760006101000a81548173ffffffffffffffffffffffffffffffffffffffff021916908373ffffffffffffffffffffffffffffffffffffffff1602179055508173ffffffffffffffffffffffffffffffffffffffff168173ffffffffffffffffffffffffffffffffffffffff167f8be0079c531659141344cd1fd0a4f28419497f9722a3daafe3b4186f6b6457e060405160405180910390a35050565b600073ffffffffffffffffffffffffffffffffffffffff168273ffffffffffffffffffffffffffffffffffffffff1603610eaa57816040517f5b08ba18000000000000000000000000000000000000000000000000000000008152600401610ea19190611d22565b60405180910390fd5b80600560008573ffffffffffffffffffffffffffffffffffffffff1673ffffffffffffffffffffffffffffffffffffffff16815260200190815260200160002060008473ffffffffffffffffffffffffffffffffffffffff1673ffffffffffffffffffffffffffffffffffffffff16815260200190815260200160002060006101000a81548160ff0219169083151502179055508173ffffffffffffffffffffffffffffffffffffffff168373ffffffffffffffffffffffffffffffffffffffff167f17307eab39ab6107e8899845ad3d59bd9653f200f220920489ca2b5937696c3183604051610f9b9190611bb1565b60405180910390a3505050565b60008373ffffffffffffffffffffffffffffffffffffffff163b1115611152578273ffffffffffffffffffffffffffffffffffffffff1663150b7a02868685856040518563ffffffff1660e01b815260040161100794939291906125de565b6020604051808303816000875af192505050801561104357506040513d601f19601f82011682018060405250810190611040919061263f565b60015b6110c7573d8060008114611073576040519150601f19603f3d011682016040523d82523d6000602084013e611078565b606091505b5060008151036110bf57836040517f64a0ae920000000000000000000000000000000000000000000000000000000081526004016110b69190611d22565b60405180910390fd5b805181602001fd5b63150b7a0260e01b7bffffffffffffffffffffffffffffffffffffffffffffffffffffffff1916817bffffffffffffffffffffffffffffffffffffffffffffffffffffffff19161461115057836040517f64a0ae920000000000000000000000000000000000000000000000000000000081526004016111479190611d22565b60405180910390fd5b505b5050505050565b606061116482610979565b5060006006600084815260200190815260200160002080546111859061222c565b80601f01602080910402602001604051908101604052809291908181526020018280546111b19061222c565b80156111fe5780601f106111d3576101008083540402835291602001916111fe565b820191906000526020600020905b8154815290600101906020018083116111e157829003601f168201915b50505050509050600061120f611638565b90506000815103611224578192505050611267565b6000825111156112595780826040516020016112419291906126a8565b60405160208183030381529060405292505050611267565b6112628461164f565b925050505b919050565b60007f80ac58cd000000000000000000000000000000000000000000000000000000007bffffffffffffffffffffffffffffffffffffffffffffffffffffffff1916827bffffffffffffffffffffffffffffffffffffffffffffffffffffffff1916148061133757507f5b5e139f000000000000000000000000000000000000000000000000000000007bffffffffffffffffffffffffffffffffffffffffffffffffffffffff1916827bffffffffffffffffffffffffffffffffffffffffffffffffffffffff1916145b806113475750611346826116b8565b5b9050919050565b60006002600083815260200190815260200160002060009054906101000a900473ffffffffffffffffffffffffffffffffffffffff169050919050565b80806113c45750600073ffffffffffffffffffffffffffffffffffffffff168273ffffffffffffffffffffffffffffffffffffffff1614155b156114f85760006113d484610979565b9050600073ffffffffffffffffffffffffffffffffffffffff168373ffffffffffffffffffffffffffffffffffffffff161415801561143f57508273ffffffffffffffffffffffffffffffffffffffff168173ffffffffffffffffffffffffffffffffffffffff1614155b8015611452575061145081846107f8565b155b1561149457826040517fa9fbf51f00000000000000000000000000000000000000000000000000000000815260040161148b9190611d22565b60405180910390fd5b81156114f657838573ffffffffffffffffffffffffffffffffffffffff168273ffffffffffffffffffffffffffffffffffffffff167f8c5be1e5ebec7d5bd14f71427d1e84f3dd0314c0f7b2291e5b200ac8c7c3b92560405160405180910390a45b505b836004600085815260200190815260200160002060006101000a81548173ffffffffffffffffffffffffffffffffffffffff021916908373ffffffffffffffffffffffffffffffffffffffff16021790555050505050565b61155b838383611722565b61160f57600073ffffffffffffffffffffffffffffffffffffffff168373ffffffffffffffffffffffffffffffffffffffff16036115d057806040517f7e2732890000000000000000000000000000000000000000000000000000000081526004016115c79190611fc9565b60405180910390fd5b81816040517f177e802f0000000000000000000000000000000000000000000000000000000081526004016116069291906126cc565b60405180910390fd5b505050565b61161e83836117e3565b611633611629610a3e565b6000858585610fa8565b505050565b606060405180602001604052806000815250905090565b606061165a82610979565b506000611665611638565b9050600081511161168557604051806020016040528060008152506116b0565b8061168f846118dc565b6040516020016116a09291906126a8565b6040516020818303038152906040525b915050919050565b60007f01ffc9a7000000000000000000000000000000000000000000000000000000007bffffffffffffffffffffffffffffffffffffffffffffffffffffffff1916827bffffffffffffffffffffffffffffffffffffffffffffffffffffffff1916149050919050565b60008073ffffffffffffffffffffffffffffffffffffffff168373ffffffffffffffffffffffffffffffffffffffff16141580156117da57508273ffffffffffffffffffffffffffffffffffffffff168473ffffffffffffffffffffffffffffffffffffffff16148061179b575061179a84846107f8565b5b806117d957508273ffffffffffffffffffffffffffffffffffffffff166117c183610a01565b73ffffffffffffffffffffffffffffffffffffffff16145b5b90509392505050565b600073ffffffffffffffffffffffffffffffffffffffff168273ffffffffffffffffffffffffffffffffffffffff16036118555760006040517f64a0ae9200000000000000000000000000000000000000000000000000000000815260040161184c9190611d22565b60405180910390fd5b600061186383836000610a58565b9050600073ffffffffffffffffffffffffffffffffffffffff168173ffffffffffffffffffffffffffffffffffffffff16146118d75760006040517f73c6ac6e0000000000000000000000000000000000000000000000000000000081526004016118ce9190611d22565b60405180910390fd5b505050565b6060600060016118eb846119aa565b01905060008167ffffffffffffffff81111561190a57611909611e06565b5b6040519080825280601f01601f19166020018201604052801561193c5781602001600182028036833780820191505090505b509050600082602001820190505b60011561199f578080600190039150507f3031323334353637383961626364656600000000000000000000000000000000600a86061a8153600a8581611993576119926126f5565b5b0494506000850361194a575b819350505050919050565b600080600090507a184f03e93ff9f4daa797ed6e38ed64bf6a1f0100000000000000008310611a08577a184f03e93ff9f4daa797ed6e38ed64bf6a1f01000000000000000083816119fe576119fd6126f5565b5b0492506040810190505b6d04ee2d6d415b85acef81000000008310611a45576d04ee2d6d415b85acef81000000008381611a3b57611a3a6126f5565b5b0492506020810190505b662386f26fc100008310611a7457662386f26fc100008381611a6a57611a696126f5565b5b0492506010810190505b6305f5e1008310611a9d576305f5e1008381611a9357611a926126f5565b5b0492506008810190505b6127108310611ac2576127108381611ab857611ab76126f5565b5b0492506004810190505b60648310611ae55760648381611adb57611ada6126f5565b5b0492506002810190505b600a8310611af4576001810190505b80915050919050565b6000604051905090565b600080fd5b600080fd5b60007fffffffff0000000000000000000000000000000000000000000000000000000082169050919050565b611b4681611b11565b8114611b5157600080fd5b50565b600081359050611b6381611b3d565b92915050565b600060208284031215611b7f57611b7e611b07565b5b6000611b8d84828501611b54565b91505092915050565b60008115159050919050565b611bab81611b96565b82525050565b6000602082019050611bc66000830184611ba2565b92915050565b600081519050919050565b600082825260208201905092915050565b60005b83811015611c06578082015181840152602081019050611beb565b60008484015250505050565b6000601f19601f8301169050919050565b6000611c2e82611bcc565b611c388185611bd7565b9350611c48818560208601611be8565b611c5181611c12565b840191505092915050565b60006020820190508181036000830152611c768184611c23565b905092915050565b6000819050919050565b611c9181611c7e565b8114611c9c57600080fd5b50565b600081359050611cae81611c88565b92915050565b600060208284031215611cca57611cc9611b07565b5b6000611cd884828501611c9f565b91505092915050565b600073ffffffffffffffffffffffffffffffffffffffff82169050919050565b6000611d0c82611ce1565b9050919050565b611d1c81611d01565b82525050565b6000602082019050611d376000830184611d13565b92915050565b611d4681611d01565b8114611d5157600080fd5b50565b600081359050611d6381611d3d565b92915050565b60008060408385031215611d8057611d7f611b07565b5b6000611d8e85828601611d54565b9250506020611d9f85828601611c9f565b9150509250929050565b600080600060608486031215611dc257611dc1611b07565b5b6000611dd086828701611d54565b9350506020611de186828701611d54565b9250506040611df286828701611c9f565b9150509250925092565b600080fd5b600080fd5b7f4e487b7100000000000000000000000000000000000000000000000000000000600052604160045260246000fd5b611e3e82611c12565b810181811067ffffffffffffffff82111715611e5d57611e5c611e06565b5b80604052505050565b6000611e70611afd565b9050611e7c8282611e35565b919050565b600067ffffffffffffffff821115611e9c57611e9b611e06565b5b611ea582611c12565b9050602081019050919050565b82818337600083830152505050565b6000611ed4611ecf84611e81565b611e66565b905082815260208101848484011115611ef057611eef611e01565b5b611efb848285611eb2565b509392505050565b600082601f830112611f1857611f17611dfc565b5b8135611f28848260208601611ec1565b91505092915050565b60008060408385031215611f4857611f47611b07565b5b6000611f5685828601611d54565b925050602083013567ffffffffffffffff811115611f7757611f76611b0c565b5b611f8385828601611f03565b9150509250929050565b600060208284031215611fa357611fa2611b07565b5b6000611fb184828501611d54565b91505092915050565b611fc381611c7e565b82525050565b6000602082019050611fde6000830184611fba565b92915050565b611fed81611b96565b8114611ff857600080fd5b50565b60008135905061200a81611fe4565b92915050565b6000806040838503121561202757612026611b07565b5b600061203585828601611d54565b925050602061204685828601611ffb565b9150509250929050565b60006020828403121561206657612065611b07565b5b600082013567ffffffffffffffff81111561208457612083611b0c565b5b61209084828501611f03565b91505092915050565b600067ffffffffffffffff8211156120b4576120b3611e06565b5b6120bd82611c12565b9050602081019050919050565b60006120dd6120d884612099565b611e66565b9050828152602081018484840111156120f9576120f8611e01565b5b612104848285611eb2565b509392505050565b600082601f83011261212157612120611dfc565b5b81356121318482602086016120ca565b91505092915050565b6000806000806080858703121561215457612153611b07565b5b600061216287828801611d54565b945050602061217387828801611d54565b935050604061218487828801611c9f565b925050606085013567ffffffffffffffff8111156121a5576121a4611b0c565b5b6121b18782880161210c565b91505092959194509250565b600080604083850312156121d4576121d3611b07565b5b60006121e285828601611d54565b92505060206121f385828601611d54565b9150509250929050565b7f4e487b7100000000000000000000000000000000000000000000000000000000600052602260045260246000fd5b6000600282049050600182168061224457607f821691505b602082108103612257576122566121fd565b5b50919050565b60006060820190506122726000830186611d13565b61227f6020830185611fba565b61228c6040830184611d13565b949350505050565b7f4e487b7100000000000000000000000000000000000000000000000000000000600052601160045260246000fd5b60006122ce82611c7e565b91507fffffffffffffffffffffffffffffffffffffffffffffffffffffffffffffffff8203612300576122ff612294565b5b600182019050919050565b60008190508160005260206000209050919050565b60006020601f8301049050919050565b600082821b905092915050565b60006008830261236d7fffffffffffffffffffffffffffffffffffffffffffffffffffffffffffffffff82612330565b6123778683612330565b95508019841693508086168417925050509392505050565b6000819050919050565b60006123b46123af6123aa84611c7e565b61238f565b611c7e565b9050919050565b6000819050919050565b6123ce83612399565b6123e26123da826123bb565b84845461233d565b825550505050565b600090565b6123f76123ea565b6124028184846123c5565b505050565b5b818110156124265761241b6000826123ef565b600181019050612408565b5050565b601f82111561246b5761243c8161230b565b61244584612320565b81016020851015612454578190505b61246861246085612320565b830182612407565b50505b505050565b600082821c905092915050565b600061248e60001984600802612470565b1980831691505092915050565b60006124a7838361247d565b9150826002028217905092915050565b6124c082611bcc565b67ffffffffffffffff8111156124d9576124d8611e06565b5b6124e3825461222c565b6124ee82828561242a565b600060209050601f831160018114612521576000841561250f578287015190505b612519858261249b565b865550612581565b601f19841661252f8661230b565b60005b8281101561255757848901518255600182019150602085019450602081019050612532565b868310156125745784890151612570601f89168261247d565b8355505b6001600288020188555050505b505050505050565b600081519050919050565b600082825260208201905092915050565b60006125b082612589565b6125ba8185612594565b93506125ca818560208601611be8565b6125d381611c12565b840191505092915050565b60006080820190506125f36000830187611d13565b6126006020830186611d13565b61260d6040830185611fba565b818103606083015261261f81846125a5565b905095945050505050565b60008151905061263981611b3d565b92915050565b60006020828403121561265557612654611b07565b5b60006126638482850161262a565b91505092915050565b600081905092915050565b600061268282611bcc565b61268c818561266c565b935061269c818560208601611be8565b80840191505092915050565b60006126b48285612677565b91506126c08284612677565b91508190509392505050565b60006040820190506126e16000830185611d13565b6126ee6020830184611fba565b9392505050565b7f4e487b7100000000000000000000000000000000000000000000000000000000600052601260045260246000fdfea264697066735822122089d55f6c8da106bee00139614317546d5c065343dfac9e02c1c47226411eece764736f6c63430008180033",
  "linkReferences": {},
  "deployedLinkReferences": {}
}