{
  "_format": "hh-sol-artifact-1",
  "contractName": "NFTStaking",
  "sourceName": "contracts/NFTStaking.sol",
  "abi": [
    {
      "inputs": [
        {
          "internalType": "contract IERC721",
          "name": "_nftCollection",
          "type": "address"
        },
        {
          "internalType": "contract IERC20",
          "name": "_rewardToken",
          "type": "address"
        },
        {
          "internalType": "address",
          "name": "initialOwner",
          "type": "address"
        }
      ],
      "stateMutability": "nonpayable",
      "type": "constructor"
    },
    {
      "inputs": [
        {
          "internalType": "address",
          "name": "owner",
          "type": "address"
        }
      ],
      "name": "OwnableInvalidOwner",
      "type": "error"
    },
    {
      "inputs": [
        {
          "internalType": "address",
          "name": "account",
          "type": "address"
        }
      ],
      "name": "OwnableUnauthorizedAccount",
      "type": "error"
    },
    {
      "anonymous": false,
      "inputs": [
        {
          "indexed": false,
          "internalType": "address",
          "name": "owner",
          "type": "address"
        },
        {
          "indexed": false,
          "internalType": "uint256",
          "name": "tokenId",
          "type": "uint256"
        },
        {
          "indexed": false,
          "internalType": "uint256",
          "name": "timestamp",
          "type": "uint256"
        }
      ],
      "name": "NFTStaked",
      "type": "event"
    },
    {
      "anonymous": false,
      "inputs": [
        {
          "indexed": false,
          "internalType": "address",
          "name": "owner",
          "type": "address"
        },
        {
          "indexed": false,
          "internalType": "uint256",
          "name": "tokenId",
          "type": "uint256"
        },
        {
          "indexed": false,
          "internalType": "uint256",
          "name": "reward",
          "type": "uint256"
        }
      ],
      "name": "NFTUnstaked",
      "type": "event"
    },
    {
      "anonymous": false,
      "inputs": [
        {
          "indexed": true,
          "internalType": "address",
          "name": "previousOwner",
          "type": "address"
        },
        {
          "indexed": true,
          "internalType": "address",
          "name": "newOwner",
          "type": "address"
        }
      ],
      "name": "OwnershipTransferred",
      "type": "event"
    },
    {
      "inputs": [],
      "name": "nftCollection",
      "outputs": [
        {
          "internalType": "contract IERC721",
          "name": "",
          "type": "address"
        }
      ],
      "stateMutability": "view",
      "type": "function"
    },
    {
      "inputs": [],
      "name": "owner",
      "outputs": [
        {
          "internalType": "address",
          "name": "",
          "type": "address"
        }
      ],
      "stateMutability": "view",
      "type": "function"
    },
    {
      "inputs": [],
      "name": "renounceOwnership",
      "outputs": [],
      "stateMutability": "nonpayable",
      "type": "function"
    },
    {
      "inputs": [],
      "name": "rewardToken",
      "outputs": [
        {
          "internalType": "contract IERC20",
          "name": "",
          "type": "address"
        }
      ],
      "stateMutability": "view",
      "type": "function"
    },
    {
      "inputs": [],
      "name": "rewardsPerSecond",
      "outputs": [
        {
          "internalType": "uint256",
          "name": "",
          "type": "uint256"
        }
      ],
      "stateMutability": "view",
      "type": "function"
    },
    {
      "inputs": [
        {
          "internalType": "uint256",
          "name": "_newReward",
          "type": "uint256"
        }
      ],
      "name": "setRewardsPerSecond",
      "outputs": [],
      "stateMutability": "nonpayable",
      "type": "function"
    },
    {
      "inputs": [
        {
          "internalType": "uint256",
          "name": "tokenId",
          "type": "uint256"
        }
      ],
      "name": "stakeNFT",
      "outputs": [],
      "stateMutability": "nonpayable",
      "type": "function"
    },
    {
      "inputs": [
        {
          "internalType": "uint256",
          "name": "",
          "type": "uint256"
        }
      ],
      "name": "stakes",
      "outputs": [
        {
          "internalType": "address",
          "name": "owner",
          "type": "address"
        },
        {
          "internalType": "uint256",
          "name": "tokenId",
          "type": "uint256"
        },
        {
          "internalType": "uint256",
          "name": "stakedAt",
          "type": "uint256"
        }
      ],
      "stateMutability": "view",
      "type": "function"
    },
    {
      "inputs": [
        {
          "internalType": "address",
          "name": "newOwner",
          "type": "address"
        }
      ],
      "name": "transferOwnership",
      "outputs": [],
      "stateMutability": "nonpayable",
      "type": "function"
    },
    {
      "inputs": [
        {
          "internalType": "uint256",
          "name": "tokenId",
          "type": "uint256"
        }
      ],
      "name": "unstakeNFT",
      "outputs": [],
      "stateMutability": "nonpayable",
      "type": "function"
    },
    {
      "inputs": [
        {
          "internalType": "address",
          "name": "",
          "type": "address"
        },
        {
          "internalType": "uint256",
          "name": "",
          "type": "uint256"
        }
      ],
      "name": "userStakes",
      "outputs": [
        {
          "internalType": "uint256",
          "name": "",
          "type": "uint256"
        }
      ],
      "stateMutability": "view",
      "type": "function"
    }
  ],
  "bytecode": "0x6080604052670de0b6b3a76400006005553480156200001d57600080fd5b506040516200150e3803806200150e83398181016040528101906200004391906200030e565b80600073ffffffffffffffffffffffffffffffffffffffff168173ffffffffffffffffffffffffffffffffffffffff1603620000b95760006040517f1e4fbdf7000000000000000000000000000000000000000000000000000000008152600401620000b091906200037b565b60405180910390fd5b620000ca816200015660201b60201c565b5082600160006101000a81548173ffffffffffffffffffffffffffffffffffffffff021916908373ffffffffffffffffffffffffffffffffffffffff16021790555081600260006101000a81548173ffffffffffffffffffffffffffffffffffffffff021916908373ffffffffffffffffffffffffffffffffffffffff16021790555050505062000398565b60008060009054906101000a900473ffffffffffffffffffffffffffffffffffffffff169050816000806101000a81548173ffffffffffffffffffffffffffffffffffffffff021916908373ffffffffffffffffffffffffffffffffffffffff1602179055508173ffffffffffffffffffffffffffffffffffffffff168173ffffffffffffffffffffffffffffffffffffffff167f8be0079c531659141344cd1fd0a4f28419497f9722a3daafe3b4186f6b6457e060405160405180910390a35050565b600080fd5b600073ffffffffffffffffffffffffffffffffffffffff82169050919050565b60006200024c826200021f565b9050919050565b600062000260826200023f565b9050919050565b620002728162000253565b81146200027e57600080fd5b50565b600081519050620002928162000267565b92915050565b6000620002a5826200023f565b9050919050565b620002b78162000298565b8114620002c357600080fd5b50565b600081519050620002d781620002ac565b92915050565b620002e8816200023f565b8114620002f457600080fd5b50565b6000815190506200030881620002dd565b92915050565b6000806000606084860312156200032a57620003296200021a565b5b60006200033a8682870162000281565b93505060206200034d86828701620002c6565b92505060406200036086828701620002f7565b9150509250925092565b62000375816200023f565b82525050565b60006020820190506200039260008301846200036a565b92915050565b61116680620003a86000396000f3fe608060405234801561001057600080fd5b50600436106100a95760003560e01c8063c1dfa0bb11610071578063c1dfa0bb14610140578063cbeb09aa1461015c578063d5a44f8614610178578063eacdaabc146101aa578063f2fde38b146101c8578063f7c618c1146101e4576100a9565b80636588103b146100ae5780636eb604e0146100cc578063715018a6146100e85780638da5cb5b146100f2578063b5d5b5fa14610110575b600080fd5b6100b6610202565b6040516100c39190610c48565b60405180910390f35b6100e660048036038101906100e19190610c9e565b610228565b005b6100f0610508565b005b6100fa61051c565b6040516101079190610cec565b60405180910390f35b61012a60048036038101906101259190610d33565b610545565b6040516101379190610d82565b60405180910390f35b61015a60048036038101906101559190610c9e565b610576565b005b61017660048036038101906101719190610c9e565b610864565b005b610192600480360381019061018d9190610c9e565b610876565b6040516101a193929190610d9d565b60405180910390f35b6101b26108c0565b6040516101bf9190610d82565b60405180910390f35b6101e260048036038101906101dd9190610dd4565b6108c6565b005b6101ec61094c565b6040516101f99190610e22565b60405180910390f35b600160009054906101000a900473ffffffffffffffffffffffffffffffffffffffff1681565b3373ffffffffffffffffffffffffffffffffffffffff16600160009054906101000a900473ffffffffffffffffffffffffffffffffffffffff1673ffffffffffffffffffffffffffffffffffffffff16636352211e836040518263ffffffff1660e01b815260040161029a9190610d82565b602060405180830381865afa1580156102b7573d6000803e3d6000fd5b505050506040513d601f19601f820116820180604052508101906102db9190610e52565b73ffffffffffffffffffffffffffffffffffffffff1614610331576040517f08c379a000000000000000000000000000000000000000000000000000000000815260040161032890610edc565b60405180910390fd5b600160009054906101000a900473ffffffffffffffffffffffffffffffffffffffff1673ffffffffffffffffffffffffffffffffffffffff166323b872dd3330846040518463ffffffff1660e01b815260040161039093929190610efc565b600060405180830381600087803b1580156103aa57600080fd5b505af11580156103be573d6000803e3d6000fd5b5050505060405180606001604052803373ffffffffffffffffffffffffffffffffffffffff168152602001828152602001428152506003600083815260200190815260200160002060008201518160000160006101000a81548173ffffffffffffffffffffffffffffffffffffffff021916908373ffffffffffffffffffffffffffffffffffffffff1602179055506020820151816001015560408201518160020155905050600460003373ffffffffffffffffffffffffffffffffffffffff1673ffffffffffffffffffffffffffffffffffffffff1681526020019081526020016000208190806001815401808255809150506001900390600052602060002001600090919091909150557f36b3725f1783bad4ff05b7f4c077c3aa68eeb23a4d054ba189db4d01ac278d393382426040516104fd93929190610d9d565b60405180910390a150565b610510610972565b61051a60006109f9565b565b60008060009054906101000a900473ffffffffffffffffffffffffffffffffffffffff16905090565b6004602052816000526040600020818154811061056157600080fd5b90600052602060002001600091509150505481565b6000600360008381526020019081526020016000206040518060600160405290816000820160009054906101000a900473ffffffffffffffffffffffffffffffffffffffff1673ffffffffffffffffffffffffffffffffffffffff1673ffffffffffffffffffffffffffffffffffffffff1681526020016001820154815260200160028201548152505090503373ffffffffffffffffffffffffffffffffffffffff16816000015173ffffffffffffffffffffffffffffffffffffffff1614610674576040517f08c379a000000000000000000000000000000000000000000000000000000000815260040161066b90610f7f565b60405180910390fd5b60008160400151426106869190610fce565b90506000600554826106989190611002565b9050600260009054906101000a900473ffffffffffffffffffffffffffffffffffffffff1673ffffffffffffffffffffffffffffffffffffffff1663a9059cbb33836040518363ffffffff1660e01b81526004016106f7929190611044565b6020604051808303816000875af1158015610716573d6000803e3d6000fd5b505050506040513d601f19601f8201168201806040525081019061073a91906110a5565b50600160009054906101000a900473ffffffffffffffffffffffffffffffffffffffff1673ffffffffffffffffffffffffffffffffffffffff166323b872dd3033876040518463ffffffff1660e01b815260040161079a93929190610efc565b600060405180830381600087803b1580156107b457600080fd5b505af11580156107c8573d6000803e3d6000fd5b5050505060036000858152602001908152602001600020600080820160006101000a81549073ffffffffffffffffffffffffffffffffffffffff02191690556001820160009055600282016000905550506108233385610abd565b7fc486b9458a8637650d84d262414833a5a457bc91ae86b7da110386c8c3fa255b33858360405161085693929190610d9d565b60405180910390a150505050565b61086c610972565b8060058190555050565b60036020528060005260406000206000915090508060000160009054906101000a900473ffffffffffffffffffffffffffffffffffffffff16908060010154908060020154905083565b60055481565b6108ce610972565b600073ffffffffffffffffffffffffffffffffffffffff168173ffffffffffffffffffffffffffffffffffffffff16036109405760006040517f1e4fbdf70000000000000000000000000000000000000000000000000000000081526004016109379190610cec565b60405180910390fd5b610949816109f9565b50565b600260009054906101000a900473ffffffffffffffffffffffffffffffffffffffff1681565b61097a610bc1565b73ffffffffffffffffffffffffffffffffffffffff1661099861051c565b73ffffffffffffffffffffffffffffffffffffffff16146109f7576109bb610bc1565b6040517f118cdaa70000000000000000000000000000000000000000000000000000000081526004016109ee9190610cec565b60405180910390fd5b565b60008060009054906101000a900473ffffffffffffffffffffffffffffffffffffffff169050816000806101000a81548173ffffffffffffffffffffffffffffffffffffffff021916908373ffffffffffffffffffffffffffffffffffffffff1602179055508173ffffffffffffffffffffffffffffffffffffffff168173ffffffffffffffffffffffffffffffffffffffff167f8be0079c531659141344cd1fd0a4f28419497f9722a3daafe3b4186f6b6457e060405160405180910390a35050565b6000600460008473ffffffffffffffffffffffffffffffffffffffff1673ffffffffffffffffffffffffffffffffffffffff168152602001908152602001600020905060005b8180549050811015610bbb5782828281548110610b2357610b226110d2565b5b906000526020600020015403610bae578160018380549050610b459190610fce565b81548110610b5657610b556110d2565b5b9060005260206000200154828281548110610b7457610b736110d2565b5b906000526020600020018190555081805480610b9357610b92611101565b5b60019003818190600052602060002001600090559055610bbb565b8080600101915050610b03565b50505050565b600033905090565b600073ffffffffffffffffffffffffffffffffffffffff82169050919050565b6000819050919050565b6000610c0e610c09610c0484610bc9565b610be9565b610bc9565b9050919050565b6000610c2082610bf3565b9050919050565b6000610c3282610c15565b9050919050565b610c4281610c27565b82525050565b6000602082019050610c5d6000830184610c39565b92915050565b600080fd5b6000819050919050565b610c7b81610c68565b8114610c8657600080fd5b50565b600081359050610c9881610c72565b92915050565b600060208284031215610cb457610cb3610c63565b5b6000610cc284828501610c89565b91505092915050565b6000610cd682610bc9565b9050919050565b610ce681610ccb565b82525050565b6000602082019050610d016000830184610cdd565b92915050565b610d1081610ccb565b8114610d1b57600080fd5b50565b600081359050610d2d81610d07565b92915050565b60008060408385031215610d4a57610d49610c63565b5b6000610d5885828601610d1e565b9250506020610d6985828601610c89565b9150509250929050565b610d7c81610c68565b82525050565b6000602082019050610d976000830184610d73565b92915050565b6000606082019050610db26000830186610cdd565b610dbf6020830185610d73565b610dcc6040830184610d73565b949350505050565b600060208284031215610dea57610de9610c63565b5b6000610df884828501610d1e565b91505092915050565b6000610e0c82610c15565b9050919050565b610e1c81610e01565b82525050565b6000602082019050610e376000830184610e13565b92915050565b600081519050610e4c81610d07565b92915050565b600060208284031215610e6857610e67610c63565b5b6000610e7684828501610e3d565b91505092915050565b600082825260208201905092915050565b7f596f7520646f6e2774206f776e2074686973204e465421000000000000000000600082015250565b6000610ec6601783610e7f565b9150610ed182610e90565b602082019050919050565b60006020820190508181036000830152610ef581610eb9565b9050919050565b6000606082019050610f116000830186610cdd565b610f1e6020830185610cdd565b610f2b6040830184610d73565b949350505050565b7f4e6f7420746865206f776e6572206f662074686973207374616b6564204e4654600082015250565b6000610f69602083610e7f565b9150610f7482610f33565b602082019050919050565b60006020820190508181036000830152610f9881610f5c565b9050919050565b7f4e487b7100000000000000000000000000000000000000000000000000000000600052601160045260246000fd5b6000610fd982610c68565b9150610fe483610c68565b9250828203905081811115610ffc57610ffb610f9f565b5b92915050565b600061100d82610c68565b915061101883610c68565b925082820261102681610c68565b9150828204841483151761103d5761103c610f9f565b5b5092915050565b60006040820190506110596000830185610cdd565b6110666020830184610d73565b9392505050565b60008115159050919050565b6110828161106d565b811461108d57600080fd5b50565b60008151905061109f81611079565b92915050565b6000602082840312156110bb576110ba610c63565b5b60006110c984828501611090565b91505092915050565b7f4e487b7100000000000000000000000000000000000000000000000000000000600052603260045260246000fd5b7f4e487b7100000000000000000000000000000000000000000000000000000000600052603160045260246000fdfea26469706673582212205a65d93f91e192fbbbf819a5b3308cc0bc78576e4b08e5266e35a86b15344bc564736f6c63430008180033",
  "linkReferences": {},
  "deployedLinkReferences": {}
}