{
  "_format": "hh-sol-artifact-1",
  "contractName": "ProfileContract",
  "sourceName": "contracts/ProfileContract.sol",
  "abi": [
    {
      "inputs": [],
      "stateMutability": "nonpayable",
      "type": "constructor"
    },
    {
      "inputs": [
        {
          "internalType": "address",
          "name": "owner",
          "type": "address"
        }
      ],
      "name": "OwnableInvalidOwner",
      "type": "error"
    },
    {
      "inputs": [
        {
          "internalType": "address",
          "name": "account",
          "type": "address"
        }
      ],
      "name": "OwnableUnauthorizedAccount",
      "type": "error"
    },
    {
      "anonymous": false,
      "inputs": [
        {
          "indexed": true,
          "internalType": "address",
          "name": "previousOwner",
          "type": "address"
        },
        {
          "indexed": true,
          "internalType": "address",
          "name": "newOwner",
          "type": "address"
        }
      ],
      "name": "OwnershipTransferred",
      "type": "event"
    },
    {
      "anonymous": false,
      "inputs": [
        {
          "indexed": true,
          "internalType": "address",
          "name": "user",
          "type": "address"
        },
        {
          "indexed": false,
          "internalType": "string",
          "name": "name",
          "type": "string"
        },
        {
          "indexed": false,
          "internalType": "string",
          "name": "email",
          "type": "string"
        },
        {
          "indexed": false,
          "internalType": "string",
          "name": "bio",
          "type": "string"
        }
      ],
      "name": "ProfileCreated",
      "type": "event"
    },
    {
      "anonymous": false,
      "inputs": [
        {
          "indexed": true,
          "internalType": "address",
          "name": "user",
          "type": "address"
        },
        {
          "indexed": false,
          "internalType": "string",
          "name": "name",
          "type": "string"
        },
        {
          "indexed": false,
          "internalType": "string",
          "name": "email",
          "type": "string"
        },
        {
          "indexed": false,
          "internalType": "string",
          "name": "bio",
          "type": "string"
        }
      ],
      "name": "ProfileUpdated",
      "type": "event"
    },
    {
      "anonymous": false,
      "inputs": [
        {
          "indexed": true,
          "internalType": "address",
          "name": "user",
          "type": "address"
        },
        {
          "indexed": false,
          "internalType": "uint256",
          "name": "newPoints",
          "type": "uint256"
        }
      ],
      "name": "ReputationUpdated",
      "type": "event"
    },
    {
      "anonymous": false,
      "inputs": [
        {
          "indexed": true,
          "internalType": "address",
          "name": "user",
          "type": "address"
        },
        {
          "indexed": false,
          "internalType": "string",
          "name": "ipfsHash",
          "type": "string"
        }
      ],
      "name": "ResumeUploaded",
      "type": "event"
    },
    {
      "inputs": [
        {
          "internalType": "string",
          "name": "_name",
          "type": "string"
        },
        {
          "internalType": "string",
          "name": "_email",
          "type": "string"
        },
        {
          "internalType": "string",
          "name": "_bio",
          "type": "string"
        }
      ],
      "name": "createProfile",
      "outputs": [],
      "stateMutability": "nonpayable",
      "type": "function"
    },
    {
      "inputs": [
        {
          "internalType": "uint256",
          "name": "_points",
          "type": "uint256"
        }
      ],
      "name": "decreaseReputation",
      "outputs": [],
      "stateMutability": "nonpayable",
      "type": "function"
    },
    {
      "inputs": [],
      "name": "getProfile",
      "outputs": [
        {
          "internalType": "string",
          "name": "",
          "type": "string"
        },
        {
          "internalType": "string",
          "name": "",
          "type": "string"
        },
        {
          "internalType": "string",
          "name": "",
          "type": "string"
        },
        {
          "internalType": "string",
          "name": "",
          "type": "string"
        },
        {
          "internalType": "uint256",
          "name": "",
          "type": "uint256"
        }
      ],
      "stateMutability": "view",
      "type": "function"
    },
    {
      "inputs": [],
      "name": "getReputation",
      "outputs": [
        {
          "internalType": "uint256",
          "name": "",
          "type": "uint256"
        }
      ],
      "stateMutability": "view",
      "type": "function"
    },
    {
      "inputs": [],
      "name": "getResume",
      "outputs": [
        {
          "internalType": "string",
          "name": "",
          "type": "string"
        }
      ],
      "stateMutability": "view",
      "type": "function"
    },
    {
      "inputs": [
        {
          "internalType": "uint256",
          "name": "_points",
          "type": "uint256"
        }
      ],
      "name": "increaseReputation",
      "outputs": [],
      "stateMutability": "nonpayable",
      "type": "function"
    },
    {
      "inputs": [],
      "name": "owner",
      "outputs": [
        {
          "internalType": "address",
          "name": "",
          "type": "address"
        }
      ],
      "stateMutability": "view",
      "type": "function"
    },
    {
      "inputs": [],
      "name": "renounceOwnership",
      "outputs": [],
      "stateMutability": "nonpayable",
      "type": "function"
    },
    {
      "inputs": [
        {
          "internalType": "address",
          "name": "newOwner",
          "type": "address"
        }
      ],
      "name": "transferOwnership",
      "outputs": [],
      "stateMutability": "nonpayable",
      "type": "function"
    },
    {
      "inputs": [
        {
          "internalType": "string",
          "name": "_name",
          "type": "string"
        },
        {
          "internalType": "string",
          "name": "_email",
          "type": "string"
        },
        {
          "internalType": "string",
          "name": "_bio",
          "type": "string"
        }
      ],
      "name": "updateProfile",
      "outputs": [],
      "stateMutability": "nonpayable",
      "type": "function"
    },
    {
      "inputs": [
        {
          "internalType": "string",
          "name": "_ipfsHash",
          "type": "string"
        }
      ],
      "name": "uploadResume",
      "outputs": [],
      "stateMutability": "nonpayable",
      "type": "function"
    }
  ],
  "bytecode": "0x60806040523480156200001157600080fd5b5033600073ffffffffffffffffffffffffffffffffffffffff168173ffffffffffffffffffffffffffffffffffffffff1603620000885760006040517f1e4fbdf70000000000000000000000000000000000000000000000000000000081526004016200007f9190620001a9565b60405180910390fd5b6200009981620000a060201b60201c565b50620001c6565b60008060009054906101000a900473ffffffffffffffffffffffffffffffffffffffff169050816000806101000a81548173ffffffffffffffffffffffffffffffffffffffff021916908373ffffffffffffffffffffffffffffffffffffffff1602179055508173ffffffffffffffffffffffffffffffffffffffff168173ffffffffffffffffffffffffffffffffffffffff167f8be0079c531659141344cd1fd0a4f28419497f9722a3daafe3b4186f6b6457e060405160405180910390a35050565b600073ffffffffffffffffffffffffffffffffffffffff82169050919050565b6000620001918262000164565b9050919050565b620001a38162000184565b82525050565b6000602082019050620001c0600083018462000198565b92915050565b611b6280620001d66000396000f3fe608060405234801561001057600080fd5b50600436106100a95760003560e01c80639841c82c116100715780639841c82c1461012c578063d6713dd414610148578063d6afc9b114610164578063e65d0fca14610186578063f2fde38b146101a2578063ffe6a18e146101be576100a9565b80631105a5eb146100ae5780632e323961146100ca578063715018a6146100e65780638da5cb5b146100f0578063923eda371461010e575b600080fd5b6100c860048036038101906100c39190611279565b6101dc565b005b6100e460048036038101906100df9190611320565b610339565b005b6100ee61046c565b005b6100f8610480565b60405161010591906113aa565b60405180910390f35b6101166104a9565b6040516101239190611444565b60405180910390f35b61014660048036038101906101419190611279565b610607565b005b610162600480360381019061015d919061149c565b61081e565b005b61016c6109da565b60405161017d9594939291906114d8565b60405180910390f35b6101a0600480360381019061019b919061149c565b610d39565b005b6101bc60048036038101906101b79190611573565b610e70565b005b6101c6610ef6565b6040516101d391906115a0565b60405180910390f35b600260003373ffffffffffffffffffffffffffffffffffffffff1673ffffffffffffffffffffffffffffffffffffffff16815260200190815260200160002060009054906101000a900460ff16610268576040517f08c379a000000000000000000000000000000000000000000000000000000000815260040161025f90611607565b60405180910390fd5b6000600160003373ffffffffffffffffffffffffffffffffffffffff1673ffffffffffffffffffffffffffffffffffffffff1681526020019081526020016000209050838160000190816102bc9190611833565b50828160010190816102ce9190611833565b50818160020190816102e09190611833565b503373ffffffffffffffffffffffffffffffffffffffff167f6420daf1b58438e85465ef21dee378d307a509caab491149e3f066c5caf1266d85858560405161032b93929190611905565b60405180910390a250505050565b600260003373ffffffffffffffffffffffffffffffffffffffff1673ffffffffffffffffffffffffffffffffffffffff16815260200190815260200160002060009054906101000a900460ff166103c5576040517f08c379a00000000000000000000000000000000000000000000000000000000081526004016103bc90611607565b60405180910390fd5b6000600160003373ffffffffffffffffffffffffffffffffffffffff1673ffffffffffffffffffffffffffffffffffffffff1681526020019081526020016000209050818160030190816104199190611833565b503373ffffffffffffffffffffffffffffffffffffffff167f12bf196a4580bd7631f39631584e95f3d56906e4b5d194ca4a46b1fd793b400c836040516104609190611444565b60405180910390a25050565b610474610fcc565b61047e6000611053565b565b60008060009054906101000a900473ffffffffffffffffffffffffffffffffffffffff16905090565b6060600260003373ffffffffffffffffffffffffffffffffffffffff1673ffffffffffffffffffffffffffffffffffffffff16815260200190815260200160002060009054906101000a900460ff16610537576040517f08c379a000000000000000000000000000000000000000000000000000000000815260040161052e90611607565b60405180910390fd5b600160003373ffffffffffffffffffffffffffffffffffffffff1673ffffffffffffffffffffffffffffffffffffffff168152602001908152602001600020600301805461058490611656565b80601f01602080910402602001604051908101604052809291908181526020018280546105b090611656565b80156105fd5780601f106105d2576101008083540402835291602001916105fd565b820191906000526020600020905b8154815290600101906020018083116105e057829003601f168201915b5050505050905090565b600260003373ffffffffffffffffffffffffffffffffffffffff1673ffffffffffffffffffffffffffffffffffffffff16815260200190815260200160002060009054906101000a900460ff1615610694576040517f08c379a000000000000000000000000000000000000000000000000000000000815260040161068b9061199d565b60405180910390fd5b6040518060a001604052808481526020018381526020018281526020016040518060200160405280600081525081526020016000815250600160003373ffffffffffffffffffffffffffffffffffffffff1673ffffffffffffffffffffffffffffffffffffffff168152602001908152602001600020600082015181600001908161071f9190611833565b5060208201518160010190816107359190611833565b50604082015181600201908161074b9190611833565b5060608201518160030190816107619190611833565b50608082015181600401559050506001600260003373ffffffffffffffffffffffffffffffffffffffff1673ffffffffffffffffffffffffffffffffffffffff16815260200190815260200160002060006101000a81548160ff0219169083151502179055503373ffffffffffffffffffffffffffffffffffffffff167f77c378673324822ad159b021c3ce202d7676946ff3967162024b660a493e64b384848460405161081193929190611905565b60405180910390a2505050565b610826610fcc565b60008111610869576040517f08c379a000000000000000000000000000000000000000000000000000000000815260040161086090611a09565b60405180910390fd5b80600160003373ffffffffffffffffffffffffffffffffffffffff1673ffffffffffffffffffffffffffffffffffffffff1681526020019081526020016000206004015410156108ee576040517f08c379a00000000000000000000000000000000000000000000000000000000081526004016108e590611a75565b60405180910390fd5b80600160003373ffffffffffffffffffffffffffffffffffffffff1673ffffffffffffffffffffffffffffffffffffffff16815260200190815260200160002060040160008282546109409190611ac4565b925050819055503373ffffffffffffffffffffffffffffffffffffffff167ffc577563f1b9a0461e24abef1e1fcc0d33d3d881f20b5df6dda59de4aae2c821600160003373ffffffffffffffffffffffffffffffffffffffff1673ffffffffffffffffffffffffffffffffffffffff168152602001908152602001600020600401546040516109cf91906115a0565b60405180910390a250565b6060806060806000600260003373ffffffffffffffffffffffffffffffffffffffff1673ffffffffffffffffffffffffffffffffffffffff16815260200190815260200160002060009054906101000a900460ff16610a6e576040517f08c379a0000000000000000000000000000000000000000000000000000000008152600401610a6590611607565b60405180910390fd5b6000600160003373ffffffffffffffffffffffffffffffffffffffff1673ffffffffffffffffffffffffffffffffffffffff1681526020019081526020016000206040518060a0016040529081600082018054610aca90611656565b80601f0160208091040260200160405190810160405280929190818152602001828054610af690611656565b8015610b435780601f10610b1857610100808354040283529160200191610b43565b820191906000526020600020905b815481529060010190602001808311610b2657829003601f168201915b50505050508152602001600182018054610b5c90611656565b80601f0160208091040260200160405190810160405280929190818152602001828054610b8890611656565b8015610bd55780601f10610baa57610100808354040283529160200191610bd5565b820191906000526020600020905b815481529060010190602001808311610bb857829003601f168201915b50505050508152602001600282018054610bee90611656565b80601f0160208091040260200160405190810160405280929190818152602001828054610c1a90611656565b8015610c675780601f10610c3c57610100808354040283529160200191610c67565b820191906000526020600020905b815481529060010190602001808311610c4a57829003601f168201915b50505050508152602001600382018054610c8090611656565b80601f0160208091040260200160405190810160405280929190818152602001828054610cac90611656565b8015610cf95780601f10610cce57610100808354040283529160200191610cf9565b820191906000526020600020905b815481529060010190602001808311610cdc57829003601f168201915b5050505050815260200160048201548152505090508060000151816020015182604001518360600151846080015195509550955095509550509091929394565b610d41610fcc565b60008111610d84576040517f08c379a0000000000000000000000000000000000000000000000000000000008152600401610d7b90611a09565b60405180910390fd5b80600160003373ffffffffffffffffffffffffffffffffffffffff1673ffffffffffffffffffffffffffffffffffffffff1681526020019081526020016000206004016000828254610dd69190611af8565b925050819055503373ffffffffffffffffffffffffffffffffffffffff167ffc577563f1b9a0461e24abef1e1fcc0d33d3d881f20b5df6dda59de4aae2c821600160003373ffffffffffffffffffffffffffffffffffffffff1673ffffffffffffffffffffffffffffffffffffffff16815260200190815260200160002060040154604051610e6591906115a0565b60405180910390a250565b610e78610fcc565b600073ffffffffffffffffffffffffffffffffffffffff168173ffffffffffffffffffffffffffffffffffffffff1603610eea5760006040517f1e4fbdf7000000000000000000000000000000000000000000000000000000008152600401610ee191906113aa565b60405180910390fd5b610ef381611053565b50565b6000600260003373ffffffffffffffffffffffffffffffffffffffff1673ffffffffffffffffffffffffffffffffffffffff16815260200190815260200160002060009054906101000a900460ff16610f84576040517f08c379a0000000000000000000000000000000000000000000000000000000008152600401610f7b90611607565b60405180910390fd5b600160003373ffffffffffffffffffffffffffffffffffffffff1673ffffffffffffffffffffffffffffffffffffffff16815260200190815260200160002060040154905090565b610fd4611117565b73ffffffffffffffffffffffffffffffffffffffff16610ff2610480565b73ffffffffffffffffffffffffffffffffffffffff161461105157611015611117565b6040517f118cdaa700000000000000000000000000000000000000000000000000000000815260040161104891906113aa565b60405180910390fd5b565b60008060009054906101000a900473ffffffffffffffffffffffffffffffffffffffff169050816000806101000a81548173ffffffffffffffffffffffffffffffffffffffff021916908373ffffffffffffffffffffffffffffffffffffffff1602179055508173ffffffffffffffffffffffffffffffffffffffff168173ffffffffffffffffffffffffffffffffffffffff167f8be0079c531659141344cd1fd0a4f28419497f9722a3daafe3b4186f6b6457e060405160405180910390a35050565b600033905090565b6000604051905090565b600080fd5b600080fd5b600080fd5b600080fd5b6000601f19601f8301169050919050565b7f4e487b7100000000000000000000000000000000000000000000000000000000600052604160045260246000fd5b6111868261113d565b810181811067ffffffffffffffff821117156111a5576111a461114e565b5b80604052505050565b60006111b861111f565b90506111c4828261117d565b919050565b600067ffffffffffffffff8211156111e4576111e361114e565b5b6111ed8261113d565b9050602081019050919050565b82818337600083830152505050565b600061121c611217846111c9565b6111ae565b90508281526020810184848401111561123857611237611138565b5b6112438482856111fa565b509392505050565b600082601f8301126112605761125f611133565b5b8135611270848260208601611209565b91505092915050565b60008060006060848603121561129257611291611129565b5b600084013567ffffffffffffffff8111156112b0576112af61112e565b5b6112bc8682870161124b565b935050602084013567ffffffffffffffff8111156112dd576112dc61112e565b5b6112e98682870161124b565b925050604084013567ffffffffffffffff81111561130a5761130961112e565b5b6113168682870161124b565b9150509250925092565b60006020828403121561133657611335611129565b5b600082013567ffffffffffffffff8111156113545761135361112e565b5b6113608482850161124b565b91505092915050565b600073ffffffffffffffffffffffffffffffffffffffff82169050919050565b600061139482611369565b9050919050565b6113a481611389565b82525050565b60006020820190506113bf600083018461139b565b92915050565b600081519050919050565b600082825260208201905092915050565b60005b838110156113ff5780820151818401526020810190506113e4565b60008484015250505050565b6000611416826113c5565b61142081856113d0565b93506114308185602086016113e1565b6114398161113d565b840191505092915050565b6000602082019050818103600083015261145e818461140b565b905092915050565b6000819050919050565b61147981611466565b811461148457600080fd5b50565b60008135905061149681611470565b92915050565b6000602082840312156114b2576114b1611129565b5b60006114c084828501611487565b91505092915050565b6114d281611466565b82525050565b600060a08201905081810360008301526114f2818861140b565b90508181036020830152611506818761140b565b9050818103604083015261151a818661140b565b9050818103606083015261152e818561140b565b905061153d60808301846114c9565b9695505050505050565b61155081611389565b811461155b57600080fd5b50565b60008135905061156d81611547565b92915050565b60006020828403121561158957611588611129565b5b60006115978482850161155e565b91505092915050565b60006020820190506115b560008301846114c9565b92915050565b7f55736572206973206e6f74207265676973746572656400000000000000000000600082015250565b60006115f16016836113d0565b91506115fc826115bb565b602082019050919050565b60006020820190508181036000830152611620816115e4565b9050919050565b7f4e487b7100000000000000000000000000000000000000000000000000000000600052602260045260246000fd5b6000600282049050600182168061166e57607f821691505b60208210810361168157611680611627565b5b50919050565b60008190508160005260206000209050919050565b60006020601f8301049050919050565b600082821b905092915050565b6000600883026116e97fffffffffffffffffffffffffffffffffffffffffffffffffffffffffffffffff826116ac565b6116f386836116ac565b95508019841693508086168417925050509392505050565b6000819050919050565b600061173061172b61172684611466565b61170b565b611466565b9050919050565b6000819050919050565b61174a83611715565b61175e61175682611737565b8484546116b9565b825550505050565b600090565b611773611766565b61177e818484611741565b505050565b5b818110156117a25761179760008261176b565b600181019050611784565b5050565b601f8211156117e7576117b881611687565b6117c18461169c565b810160208510156117d0578190505b6117e46117dc8561169c565b830182611783565b50505b505050565b600082821c905092915050565b600061180a600019846008026117ec565b1980831691505092915050565b600061182383836117f9565b9150826002028217905092915050565b61183c826113c5565b67ffffffffffffffff8111156118555761185461114e565b5b61185f8254611656565b61186a8282856117a6565b600060209050601f83116001811461189d576000841561188b578287015190505b6118958582611817565b8655506118fd565b601f1984166118ab86611687565b60005b828110156118d3578489015182556001820191506020850194506020810190506118ae565b868310156118f057848901516118ec601f8916826117f9565b8355505b6001600288020188555050505b505050505050565b6000606082019050818103600083015261191f818661140b565b90508181036020830152611933818561140b565b90508181036040830152611947818461140b565b9050949350505050565b7f50726f66696c6520616c72656164792065786973747300000000000000000000600082015250565b60006119876016836113d0565b915061199282611951565b602082019050919050565b600060208201905081810360008301526119b68161197a565b9050919050565b7f506f696e7473206d7573742062652067726561746572207468616e207a65726f600082015250565b60006119f36020836113d0565b91506119fe826119bd565b602082019050919050565b60006020820190508181036000830152611a22816119e6565b9050919050565b7f496e73756666696369656e742072657075746174696f6e20706f696e74730000600082015250565b6000611a5f601e836113d0565b9150611a6a82611a29565b602082019050919050565b60006020820190508181036000830152611a8e81611a52565b9050919050565b7f4e487b7100000000000000000000000000000000000000000000000000000000600052601160045260246000fd5b6000611acf82611466565b9150611ada83611466565b9250828203905081811115611af257611af1611a95565b5b92915050565b6000611b0382611466565b9150611b0e83611466565b9250828201905080821115611b2657611b25611a95565b5b9291505056fea2646970667358221220cc6b1a9ff59e6060e0b4c5d7753425404703f9c1e627a4f5fd21e1c40baea1c764736f6c63430008180033",
  "linkReferences": {},
  "deployedLinkReferences": {}
}