{
  "_format": "hh-sol-artifact-1",
  "contractName": "ApplicationContract",
  "sourceName": "contracts/ApplicationContract.sol",
  "abi": [
    {
      "inputs": [
        {
          "internalType": "address",
          "name": "jobContractAddress",
          "type": "address"
        }
      ],
      "stateMutability": "nonpayable",
      "type": "constructor"
    },
    {
      "inputs": [
        {
          "internalType": "address",
          "name": "owner",
          "type": "address"
        }
      ],
      "name": "OwnableInvalidOwner",
      "type": "error"
    },
    {
      "inputs": [
        {
          "internalType": "address",
          "name": "account",
          "type": "address"
        }
      ],
      "name": "OwnableUnauthorizedAccount",
      "type": "error"
    },
    {
      "anonymous": false,
      "inputs": [
        {
          "indexed": true,
          "internalType": "uint256",
          "name": "jobId",
          "type": "uint256"
        },
        {
          "indexed": true,
          "internalType": "address",
          "name": "applicant",
          "type": "address"
        },
        {
          "indexed": false,
          "internalType": "string",
          "name": "status",
          "type": "string"
        }
      ],
      "name": "ApplicationStatusUpdated",
      "type": "event"
    },
    {
      "anonymous": false,
      "inputs": [
        {
          "indexed": true,
          "internalType": "uint256",
          "name": "jobId",
          "type": "uint256"
        },
        {
          "indexed": true,
          "internalType": "address",
          "name": "applicant",
          "type": "address"
        }
      ],
      "name": "ApplicationSubmitted",
      "type": "event"
    },
    {
      "anonymous": false,
      "inputs": [
        {
          "indexed": true,
          "internalType": "address",
          "name": "previousOwner",
          "type": "address"
        },
        {
          "indexed": true,
          "internalType": "address",
          "name": "newOwner",
          "type": "address"
        }
      ],
      "name": "OwnershipTransferred",
      "type": "event"
    },
    {
      "inputs": [
        {
          "internalType": "uint256",
          "name": "_jobId",
          "type": "uint256"
        }
      ],
      "name": "applyToJob",
      "outputs": [],
      "stateMutability": "nonpayable",
      "type": "function"
    },
    {
      "inputs": [
        {
          "internalType": "uint256",
          "name": "_jobId",
          "type": "uint256"
        },
        {
          "internalType": "address",
          "name": "_applicant",
          "type": "address"
        }
      ],
      "name": "getApplication",
      "outputs": [
        {
          "components": [
            {
              "internalType": "uint256",
              "name": "jobId",
              "type": "uint256"
            },
            {
              "internalType": "address",
              "name": "applicant",
              "type": "address"
            },
            {
              "internalType": "string",
              "name": "status",
              "type": "string"
            },
            {
              "internalType": "string",
              "name": "feedback",
              "type": "string"
            }
          ],
          "internalType": "struct ApplicationContract.Application",
          "name": "",
          "type": "tuple"
        }
      ],
      "stateMutability": "view",
      "type": "function"
    },
    {
      "inputs": [
        {
          "internalType": "uint256",
          "name": "_jobId",
          "type": "uint256"
        }
      ],
      "name": "getApplications",
      "outputs": [
        {
          "components": [
            {
              "internalType": "uint256",
              "name": "jobId",
              "type": "uint256"
            },
            {
              "internalType": "address",
              "name": "applicant",
              "type": "address"
            },
            {
              "internalType": "string",
              "name": "status",
              "type": "string"
            },
            {
              "internalType": "string",
              "name": "feedback",
              "type": "string"
            }
          ],
          "internalType": "struct ApplicationContract.Application[]",
          "name": "",
          "type": "tuple[]"
        }
      ],
      "stateMutability": "view",
      "type": "function"
    },
    {
      "inputs": [
        {
          "internalType": "address",
          "name": "_applicant",
          "type": "address"
        }
      ],
      "name": "getJobsByApplicant",
      "outputs": [
        {
          "internalType": "uint256[]",
          "name": "",
          "type": "uint256[]"
        }
      ],
      "stateMutability": "view",
      "type": "function"
    },
    {
      "inputs": [],
      "name": "owner",
      "outputs": [
        {
          "internalType": "address",
          "name": "",
          "type": "address"
        }
      ],
      "stateMutability": "view",
      "type": "function"
    },
    {
      "inputs": [],
      "name": "renounceOwnership",
      "outputs": [],
      "stateMutability": "nonpayable",
      "type": "function"
    },
    {
      "inputs": [
        {
          "internalType": "address",
          "name": "newOwner",
          "type": "address"
        }
      ],
      "name": "transferOwnership",
      "outputs": [],
      "stateMutability": "nonpayable",
      "type": "function"
    },
    {
      "inputs": [
        {
          "internalType": "uint256",
          "name": "_jobId",
          "type": "uint256"
        },
        {
          "internalType": "address",
          "name": "_applicant",
          "type": "address"
        },
        {
          "internalType": "string",
          "name": "_status",
          "type": "string"
        },
        {
          "internalType": "string",
          "name": "_feedback",
          "type": "string"
        }
      ],
      "name": "updateApplicationStatus",
      "outputs": [],
      "stateMutability": "nonpayable",
      "type": "function"
    }
  ],
  "bytecode": "0x60806040523480156200001157600080fd5b5060405162001ecf38038062001ecf833981810160405281019062000037919062000235565b33600073ffffffffffffffffffffffffffffffffffffffff168173ffffffffffffffffffffffffffffffffffffffff1603620000ad5760006040517f1e4fbdf7000000000000000000000000000000000000000000000000000000008152600401620000a4919062000278565b60405180910390fd5b620000be816200010760201b60201c565b5080600160006101000a81548173ffffffffffffffffffffffffffffffffffffffff021916908373ffffffffffffffffffffffffffffffffffffffff1602179055505062000295565b60008060009054906101000a900473ffffffffffffffffffffffffffffffffffffffff169050816000806101000a81548173ffffffffffffffffffffffffffffffffffffffff021916908373ffffffffffffffffffffffffffffffffffffffff1602179055508173ffffffffffffffffffffffffffffffffffffffff168173ffffffffffffffffffffffffffffffffffffffff167f8be0079c531659141344cd1fd0a4f28419497f9722a3daafe3b4186f6b6457e060405160405180910390a35050565b600080fd5b600073ffffffffffffffffffffffffffffffffffffffff82169050919050565b6000620001fd82620001d0565b9050919050565b6200020f81620001f0565b81146200021b57600080fd5b50565b6000815190506200022f8162000204565b92915050565b6000602082840312156200024e576200024d620001cb565b5b60006200025e848285016200021e565b91505092915050565b6200027281620001f0565b82525050565b60006020820190506200028f600083018462000267565b92915050565b611c2a80620002a56000396000f3fe608060405234801561001057600080fd5b50600436106100885760003560e01c8063980770311161005b5780639807703114610101578063bc8c937d14610131578063f2fde38b14610161578063fc1877781461017d57610088565b80633d7cf8381461008d578063715018a6146100bd5780638da5cb5b146100c75780638e1a32d0146100e5575b600080fd5b6100a760048036038101906100a29190610f06565b610199565b6040516100b49190610ffb565b60405180910390f35b6100c5610230565b005b6100cf610244565b6040516100dc919061102c565b60405180910390f35b6100ff60048036038101906100fa9190611073565b61026d565b005b61011b600480360381019061011691906110a0565b61053b565b60405161012891906111e9565b60405180910390f35b61014b60048036038101906101469190611073565b610804565b6040516101589190611337565b60405180910390f35b61017b60048036038101906101769190610f06565b6109fa565b005b6101976004803603810190610192919061148e565b610a80565b005b6060600360008373ffffffffffffffffffffffffffffffffffffffff1673ffffffffffffffffffffffffffffffffffffffff16815260200190815260200160002080548060200260200160405190810160405280929190818152602001828054801561022457602002820191906000526020600020905b815481526020019060010190808311610210575b50505050509050919050565b610238610d03565b6102426000610d8a565b565b60008060009054906101000a900473ffffffffffffffffffffffffffffffffffffffff16905090565b6000600160009054906101000a900473ffffffffffffffffffffffffffffffffffffffff1673ffffffffffffffffffffffffffffffffffffffff1663bf22c457836040518263ffffffff1660e01b81526004016102ca919061153c565b600060405180830381865afa1580156102e7573d6000803e3d6000fd5b505050506040513d6000823e3d601f19601f820116820180604052508101906103109190611614565b9550505050505080610357576040517f08c379a000000000000000000000000000000000000000000000000000000000815260040161034e9061176e565b60405180910390fd5b6002600083815260200190815260200160002060405180608001604052808481526020013373ffffffffffffffffffffffffffffffffffffffff1681526020016040518060400160405280600781526020017f50656e64696e670000000000000000000000000000000000000000000000000081525081526020016040518060200160405280600081525081525090806001815401808255809150506001900390600052602060002090600402016000909190919091506000820151816000015560208201518160010160006101000a81548173ffffffffffffffffffffffffffffffffffffffff021916908373ffffffffffffffffffffffffffffffffffffffff1602179055506040820151816002019081610474919061199a565b50606082015181600301908161048a919061199a565b505050600360003373ffffffffffffffffffffffffffffffffffffffff1673ffffffffffffffffffffffffffffffffffffffff1681526020019081526020016000208290806001815401808255809150506001900390600052602060002001600090919091909150553373ffffffffffffffffffffffffffffffffffffffff16827f394b2f46e841d2b670718e98a15dfb76853abc5a8761449c74e9cba62d90152160405160405180910390a35050565b610543610e56565b600060026000858152602001908152602001600020805480602002602001604051908101604052809291908181526020016000905b8282101561072e5783829060005260206000209060040201604051806080016040529081600082015481526020016001820160009054906101000a900473ffffffffffffffffffffffffffffffffffffffff1673ffffffffffffffffffffffffffffffffffffffff1673ffffffffffffffffffffffffffffffffffffffff16815260200160028201805461060b906117bd565b80601f0160208091040260200160405190810160405280929190818152602001828054610637906117bd565b80156106845780601f1061065957610100808354040283529160200191610684565b820191906000526020600020905b81548152906001019060200180831161066757829003601f168201915b5050505050815260200160038201805461069d906117bd565b80601f01602080910402602001604051908101604052809291908181526020018280546106c9906117bd565b80156107165780601f106106eb57610100808354040283529160200191610716565b820191906000526020600020905b8154815290600101906020018083116106f957829003601f168201915b50505050508152505081526020019060010190610578565b50505050905060005b81518110156107c2578373ffffffffffffffffffffffffffffffffffffffff1682828151811061076a57610769611a6c565b5b60200260200101516020015173ffffffffffffffffffffffffffffffffffffffff16036107b5578181815181106107a4576107a3611a6c565b5b6020026020010151925050506107fe565b8080600101915050610737565b506040517f08c379a00000000000000000000000000000000000000000000000000000000081526004016107f590611ae7565b60405180910390fd5b92915050565b606060026000838152602001908152602001600020805480602002602001604051908101604052809291908181526020016000905b828210156109ef5783829060005260206000209060040201604051806080016040529081600082015481526020016001820160009054906101000a900473ffffffffffffffffffffffffffffffffffffffff1673ffffffffffffffffffffffffffffffffffffffff1673ffffffffffffffffffffffffffffffffffffffff1681526020016002820180546108cc906117bd565b80601f01602080910402602001604051908101604052809291908181526020018280546108f8906117bd565b80156109455780601f1061091a57610100808354040283529160200191610945565b820191906000526020600020905b81548152906001019060200180831161092857829003601f168201915b5050505050815260200160038201805461095e906117bd565b80601f016020809104026020016040519081016040528092919081815260200182805461098a906117bd565b80156109d75780601f106109ac576101008083540402835291602001916109d7565b820191906000526020600020905b8154815290600101906020018083116109ba57829003601f168201915b50505050508152505081526020019060010190610839565b505050509050919050565b610a02610d03565b600073ffffffffffffffffffffffffffffffffffffffff168173ffffffffffffffffffffffffffffffffffffffff1603610a745760006040517f1e4fbdf7000000000000000000000000000000000000000000000000000000008152600401610a6b919061102c565b60405180910390fd5b610a7d81610d8a565b50565b6000600160009054906101000a900473ffffffffffffffffffffffffffffffffffffffff1673ffffffffffffffffffffffffffffffffffffffff1663bf22c457866040518263ffffffff1660e01b8152600401610add919061153c565b600060405180830381865afa158015610afa573d6000803e3d6000fd5b505050506040513d6000823e3d601f19601f82011682018060405250810190610b239190611614565b509450505050503373ffffffffffffffffffffffffffffffffffffffff168173ffffffffffffffffffffffffffffffffffffffff1614610b98576040517f08c379a0000000000000000000000000000000000000000000000000000000008152600401610b8f90611b79565b60405180910390fd5b600060026000878152602001908152602001600020905060005b8180549050811015610cfa578573ffffffffffffffffffffffffffffffffffffffff16828281548110610be857610be7611a6c565b5b906000526020600020906004020160010160009054906101000a900473ffffffffffffffffffffffffffffffffffffffff1673ffffffffffffffffffffffffffffffffffffffff1603610ced5784828281548110610c4957610c48611a6c565b5b90600052602060002090600402016002019081610c66919061199a565b5083828281548110610c7b57610c7a611a6c565b5b90600052602060002090600402016003019081610c98919061199a565b508573ffffffffffffffffffffffffffffffffffffffff16877f5993bb3cbd53b6fd24b9726ac95bc08e9ea12e8d20fae552521d2d70fbe6d97e87604051610ce09190611bd2565b60405180910390a3610cfa565b8080600101915050610bb2565b50505050505050565b610d0b610e4e565b73ffffffffffffffffffffffffffffffffffffffff16610d29610244565b73ffffffffffffffffffffffffffffffffffffffff1614610d8857610d4c610e4e565b6040517f118cdaa7000000000000000000000000000000000000000000000000000000008152600401610d7f919061102c565b60405180910390fd5b565b60008060009054906101000a900473ffffffffffffffffffffffffffffffffffffffff169050816000806101000a81548173ffffffffffffffffffffffffffffffffffffffff021916908373ffffffffffffffffffffffffffffffffffffffff1602179055508173ffffffffffffffffffffffffffffffffffffffff168173ffffffffffffffffffffffffffffffffffffffff167f8be0079c531659141344cd1fd0a4f28419497f9722a3daafe3b4186f6b6457e060405160405180910390a35050565b600033905090565b604051806080016040528060008152602001600073ffffffffffffffffffffffffffffffffffffffff16815260200160608152602001606081525090565b6000604051905090565b600080fd5b600080fd5b600073ffffffffffffffffffffffffffffffffffffffff82169050919050565b6000610ed382610ea8565b9050919050565b610ee381610ec8565b8114610eee57600080fd5b50565b600081359050610f0081610eda565b92915050565b600060208284031215610f1c57610f1b610e9e565b5b6000610f2a84828501610ef1565b91505092915050565b600081519050919050565b600082825260208201905092915050565b6000819050602082019050919050565b6000819050919050565b610f7281610f5f565b82525050565b6000610f848383610f69565b60208301905092915050565b6000602082019050919050565b6000610fa882610f33565b610fb28185610f3e565b9350610fbd83610f4f565b8060005b83811015610fee578151610fd58882610f78565b9750610fe083610f90565b925050600181019050610fc1565b5085935050505092915050565b600060208201905081810360008301526110158184610f9d565b905092915050565b61102681610ec8565b82525050565b6000602082019050611041600083018461101d565b92915050565b61105081610f5f565b811461105b57600080fd5b50565b60008135905061106d81611047565b92915050565b60006020828403121561108957611088610e9e565b5b60006110978482850161105e565b91505092915050565b600080604083850312156110b7576110b6610e9e565b5b60006110c58582860161105e565b92505060206110d685828601610ef1565b9150509250929050565b6110e981610ec8565b82525050565b600081519050919050565b600082825260208201905092915050565b60005b8381101561112957808201518184015260208101905061110e565b60008484015250505050565b6000601f19601f8301169050919050565b6000611151826110ef565b61115b81856110fa565b935061116b81856020860161110b565b61117481611135565b840191505092915050565b60006080830160008301516111976000860182610f69565b5060208301516111aa60208601826110e0565b50604083015184820360408601526111c28282611146565b915050606083015184820360608601526111dc8282611146565b9150508091505092915050565b60006020820190508181036000830152611203818461117f565b905092915050565b600081519050919050565b600082825260208201905092915050565b6000819050602082019050919050565b600060808301600083015161124f6000860182610f69565b50602083015161126260208601826110e0565b506040830151848203604086015261127a8282611146565b915050606083015184820360608601526112948282611146565b9150508091505092915050565b60006112ad8383611237565b905092915050565b6000602082019050919050565b60006112cd8261120b565b6112d78185611216565b9350836020820285016112e985611227565b8060005b85811015611325578484038952815161130685826112a1565b9450611311836112b5565b925060208a019950506001810190506112ed565b50829750879550505050505092915050565b6000602082019050818103600083015261135181846112c2565b905092915050565b600080fd5b600080fd5b7f4e487b7100000000000000000000000000000000000000000000000000000000600052604160045260246000fd5b61139b82611135565b810181811067ffffffffffffffff821117156113ba576113b9611363565b5b80604052505050565b60006113cd610e94565b90506113d98282611392565b919050565b600067ffffffffffffffff8211156113f9576113f8611363565b5b61140282611135565b9050602081019050919050565b82818337600083830152505050565b600061143161142c846113de565b6113c3565b90508281526020810184848401111561144d5761144c61135e565b5b61145884828561140f565b509392505050565b600082601f83011261147557611474611359565b5b813561148584826020860161141e565b91505092915050565b600080600080608085870312156114a8576114a7610e9e565b5b60006114b68782880161105e565b94505060206114c787828801610ef1565b935050604085013567ffffffffffffffff8111156114e8576114e7610ea3565b5b6114f487828801611460565b925050606085013567ffffffffffffffff81111561151557611514610ea3565b5b61152187828801611460565b91505092959194509250565b61153681610f5f565b82525050565b6000602082019050611551600083018461152d565b92915050565b600061156a611565846113de565b6113c3565b9050828152602081018484840111156115865761158561135e565b5b61159184828561110b565b509392505050565b600082601f8301126115ae576115ad611359565b5b81516115be848260208601611557565b91505092915050565b6000815190506115d681610eda565b92915050565b60008115159050919050565b6115f1816115dc565b81146115fc57600080fd5b50565b60008151905061160e816115e8565b92915050565b60008060008060008060c0878903121561163157611630610e9e565b5b600087015167ffffffffffffffff81111561164f5761164e610ea3565b5b61165b89828a01611599565b965050602087015167ffffffffffffffff81111561167c5761167b610ea3565b5b61168889828a01611599565b955050604087015167ffffffffffffffff8111156116a9576116a8610ea3565b5b6116b589828a01611599565b945050606087015167ffffffffffffffff8111156116d6576116d5610ea3565b5b6116e289828a01611599565b93505060806116f389828a016115c7565b92505060a061170489828a016115ff565b9150509295509295509295565b600082825260208201905092915050565b7f4a6f6220697320636c6f73656400000000000000000000000000000000000000600082015250565b6000611758600d83611711565b915061176382611722565b602082019050919050565b600060208201905081810360008301526117878161174b565b9050919050565b7f4e487b7100000000000000000000000000000000000000000000000000000000600052602260045260246000fd5b600060028204905060018216806117d557607f821691505b6020821081036117e8576117e761178e565b5b50919050565b60008190508160005260206000209050919050565b60006020601f8301049050919050565b600082821b905092915050565b6000600883026118507fffffffffffffffffffffffffffffffffffffffffffffffffffffffffffffffff82611813565b61185a8683611813565b95508019841693508086168417925050509392505050565b6000819050919050565b600061189761189261188d84610f5f565b611872565b610f5f565b9050919050565b6000819050919050565b6118b18361187c565b6118c56118bd8261189e565b848454611820565b825550505050565b600090565b6118da6118cd565b6118e58184846118a8565b505050565b5b81811015611909576118fe6000826118d2565b6001810190506118eb565b5050565b601f82111561194e5761191f816117ee565b61192884611803565b81016020851015611937578190505b61194b61194385611803565b8301826118ea565b50505b505050565b600082821c905092915050565b600061197160001984600802611953565b1980831691505092915050565b600061198a8383611960565b9150826002028217905092915050565b6119a3826110ef565b67ffffffffffffffff8111156119bc576119bb611363565b5b6119c682546117bd565b6119d182828561190d565b600060209050601f831160018114611a0457600084156119f2578287015190505b6119fc858261197e565b865550611a64565b601f198416611a12866117ee565b60005b82811015611a3a57848901518255600182019150602085019450602081019050611a15565b86831015611a575784890151611a53601f891682611960565b8355505b6001600288020188555050505b505050505050565b7f4e487b7100000000000000000000000000000000000000000000000000000000600052603260045260246000fd5b7f4170706c69636174696f6e20646f6573206e6f74206578697374000000000000600082015250565b6000611ad1601a83611711565b9150611adc82611a9b565b602082019050919050565b60006020820190508181036000830152611b0081611ac4565b9050919050565b7f4f6e6c792074686520656d706c6f7965722063616e207570646174652061707060008201527f6c69636174696f6e7320666f722074686973206a6f6200000000000000000000602082015250565b6000611b63603683611711565b9150611b6e82611b07565b604082019050919050565b60006020820190508181036000830152611b9281611b56565b9050919050565b6000611ba4826110ef565b611bae8185611711565b9350611bbe81856020860161110b565b611bc781611135565b840191505092915050565b60006020820190508181036000830152611bec8184611b99565b90509291505056fea26469706673582212202a07bfdfd88fcc6c77a04970f45ae8bce1e17e8f0bce620b46c0907b9cb392f264736f6c63430008180033",
  "linkReferences": {},
  "deployedLinkReferences": {}
}