{
  "_format": "hh-sol-artifact-1",
  "contractName": "ApplicationContract",
  "sourceName": "contracts/ApplicationContract.sol",
  "abi": [
    {
      "inputs": [
        {
          "internalType": "address",
          "name": "jobContractAddress",
          "type": "address"
        }
      ],
      "stateMutability": "nonpayable",
      "type": "constructor"
    },
    {
      "inputs": [
        {
          "internalType": "address",
          "name": "owner",
          "type": "address"
        }
      ],
      "name": "OwnableInvalidOwner",
      "type": "error"
    },
    {
      "inputs": [
        {
          "internalType": "address",
          "name": "account",
          "type": "address"
        }
      ],
      "name": "OwnableUnauthorizedAccount",
      "type": "error"
    },
    {
      "anonymous": false,
      "inputs": [
        {
          "indexed": true,
          "internalType": "uint256",
          "name": "jobId",
          "type": "uint256"
        },
        {
          "indexed": true,
          "internalType": "address",
          "name": "applicant",
          "type": "address"
        },
        {
          "indexed": false,
          "internalType": "string",
          "name": "status",
          "type": "string"
        }
      ],
      "name": "ApplicationStatusUpdated",
      "type": "event"
    },
    {
      "anonymous": false,
      "inputs": [
        {
          "indexed": true,
          "internalType": "uint256",
          "name": "jobId",
          "type": "uint256"
        },
        {
          "indexed": true,
          "internalType": "address",
          "name": "applicant",
          "type": "address"
        }
      ],
      "name": "ApplicationSubmitted",
      "type": "event"
    },
    {
      "anonymous": false,
      "inputs": [
        {
          "indexed": true,
          "internalType": "address",
          "name": "previousOwner",
          "type": "address"
        },
        {
          "indexed": true,
          "internalType": "address",
          "name": "newOwner",
          "type": "address"
        }
      ],
      "name": "OwnershipTransferred",
      "type": "event"
    },
    {
      "inputs": [
        {
          "internalType": "uint256",
          "name": "_jobId",
          "type": "uint256"
        }
      ],
      "name": "applyToJob",
      "outputs": [],
      "stateMutability": "nonpayable",
      "type": "function"
    },
    {
      "inputs": [
        {
          "internalType": "uint256",
          "name": "_jobId",
          "type": "uint256"
        }
      ],
      "name": "getApplications",
      "outputs": [
        {
          "components": [
            {
              "internalType": "uint256",
              "name": "jobId",
              "type": "uint256"
            },
            {
              "internalType": "address",
              "name": "applicant",
              "type": "address"
            },
            {
              "internalType": "string",
              "name": "status",
              "type": "string"
            },
            {
              "internalType": "string",
              "name": "feedback",
              "type": "string"
            }
          ],
          "internalType": "struct ApplicationContract.Application[]",
          "name": "",
          "type": "tuple[]"
        }
      ],
      "stateMutability": "view",
      "type": "function"
    },
    {
      "inputs": [
        {
          "internalType": "address",
          "name": "_applicant",
          "type": "address"
        }
      ],
      "name": "getJobsByApplicant",
      "outputs": [
        {
          "internalType": "uint256[]",
          "name": "",
          "type": "uint256[]"
        }
      ],
      "stateMutability": "view",
      "type": "function"
    },
    {
      "inputs": [],
      "name": "owner",
      "outputs": [
        {
          "internalType": "address",
          "name": "",
          "type": "address"
        }
      ],
      "stateMutability": "view",
      "type": "function"
    },
    {
      "inputs": [],
      "name": "renounceOwnership",
      "outputs": [],
      "stateMutability": "nonpayable",
      "type": "function"
    },
    {
      "inputs": [
        {
          "internalType": "address",
          "name": "newOwner",
          "type": "address"
        }
      ],
      "name": "transferOwnership",
      "outputs": [],
      "stateMutability": "nonpayable",
      "type": "function"
    },
    {
      "inputs": [
        {
          "internalType": "uint256",
          "name": "_jobId",
          "type": "uint256"
        },
        {
          "internalType": "address",
          "name": "_applicant",
          "type": "address"
        },
        {
          "internalType": "string",
          "name": "_status",
          "type": "string"
        },
        {
          "internalType": "string",
          "name": "_feedback",
          "type": "string"
        }
      ],
      "name": "updateApplicationStatus",
      "outputs": [],
      "stateMutability": "nonpayable",
      "type": "function"
    }
  ],
  "bytecode": "0x60806040523480156200001157600080fd5b5060405162001a5538038062001a55833981810160405281019062000037919062000235565b33600073ffffffffffffffffffffffffffffffffffffffff168173ffffffffffffffffffffffffffffffffffffffff1603620000ad5760006040517f1e4fbdf7000000000000000000000000000000000000000000000000000000008152600401620000a4919062000278565b60405180910390fd5b620000be816200010760201b60201c565b5080600160006101000a81548173ffffffffffffffffffffffffffffffffffffffff021916908373ffffffffffffffffffffffffffffffffffffffff1602179055505062000295565b60008060009054906101000a900473ffffffffffffffffffffffffffffffffffffffff169050816000806101000a81548173ffffffffffffffffffffffffffffffffffffffff021916908373ffffffffffffffffffffffffffffffffffffffff1602179055508173ffffffffffffffffffffffffffffffffffffffff168173ffffffffffffffffffffffffffffffffffffffff167f8be0079c531659141344cd1fd0a4f28419497f9722a3daafe3b4186f6b6457e060405160405180910390a35050565b600080fd5b600073ffffffffffffffffffffffffffffffffffffffff82169050919050565b6000620001fd82620001d0565b9050919050565b6200020f81620001f0565b81146200021b57600080fd5b50565b6000815190506200022f8162000204565b92915050565b6000602082840312156200024e576200024d620001cb565b5b60006200025e848285016200021e565b91505092915050565b6200027281620001f0565b82525050565b60006020820190506200028f600083018462000267565b92915050565b6117b080620002a56000396000f3fe608060405234801561001057600080fd5b506004361061007d5760003560e01c80638e1a32d01161005b5780638e1a32d0146100da578063bc8c937d146100f6578063f2fde38b14610126578063fc187778146101425761007d565b80633d7cf83814610082578063715018a6146100b25780638da5cb5b146100bc575b600080fd5b61009c60048036038101906100979190610bc4565b61015e565b6040516100a99190610cb9565b60405180910390f35b6100ba6101f5565b005b6100c4610209565b6040516100d19190610cea565b60405180910390f35b6100f460048036038101906100ef9190610d31565b610232565b005b610110600480360381019061010b9190610d31565b610500565b60405161011d9190610f29565b60405180910390f35b610140600480360381019061013b9190610bc4565b6106f6565b005b61015c60048036038101906101579190611080565b61077c565b005b6060600360008373ffffffffffffffffffffffffffffffffffffffff1673ffffffffffffffffffffffffffffffffffffffff1681526020019081526020016000208054806020026020016040519081016040528092919081815260200182805480156101e957602002820191906000526020600020905b8154815260200190600101908083116101d5575b50505050509050919050565b6101fd6109ff565b6102076000610a86565b565b60008060009054906101000a900473ffffffffffffffffffffffffffffffffffffffff16905090565b6000600160009054906101000a900473ffffffffffffffffffffffffffffffffffffffff1673ffffffffffffffffffffffffffffffffffffffff1663bf22c457836040518263ffffffff1660e01b815260040161028f919061112e565b600060405180830381865afa1580156102ac573d6000803e3d6000fd5b505050506040513d6000823e3d601f19601f820116820180604052508101906102d59190611206565b955050505050508061031c576040517f08c379a000000000000000000000000000000000000000000000000000000000815260040161031390611360565b60405180910390fd5b6002600083815260200190815260200160002060405180608001604052808481526020013373ffffffffffffffffffffffffffffffffffffffff1681526020016040518060400160405280600781526020017f50656e64696e670000000000000000000000000000000000000000000000000081525081526020016040518060200160405280600081525081525090806001815401808255809150506001900390600052602060002090600402016000909190919091506000820151816000015560208201518160010160006101000a81548173ffffffffffffffffffffffffffffffffffffffff021916908373ffffffffffffffffffffffffffffffffffffffff1602179055506040820151816002019081610439919061158c565b50606082015181600301908161044f919061158c565b505050600360003373ffffffffffffffffffffffffffffffffffffffff1673ffffffffffffffffffffffffffffffffffffffff1681526020019081526020016000208290806001815401808255809150506001900390600052602060002001600090919091909150553373ffffffffffffffffffffffffffffffffffffffff16827f394b2f46e841d2b670718e98a15dfb76853abc5a8761449c74e9cba62d90152160405160405180910390a35050565b606060026000838152602001908152602001600020805480602002602001604051908101604052809291908181526020016000905b828210156106eb5783829060005260206000209060040201604051806080016040529081600082015481526020016001820160009054906101000a900473ffffffffffffffffffffffffffffffffffffffff1673ffffffffffffffffffffffffffffffffffffffff1673ffffffffffffffffffffffffffffffffffffffff1681526020016002820180546105c8906113af565b80601f01602080910402602001604051908101604052809291908181526020018280546105f4906113af565b80156106415780601f1061061657610100808354040283529160200191610641565b820191906000526020600020905b81548152906001019060200180831161062457829003601f168201915b5050505050815260200160038201805461065a906113af565b80601f0160208091040260200160405190810160405280929190818152602001828054610686906113af565b80156106d35780601f106106a8576101008083540402835291602001916106d3565b820191906000526020600020905b8154815290600101906020018083116106b657829003601f168201915b50505050508152505081526020019060010190610535565b505050509050919050565b6106fe6109ff565b600073ffffffffffffffffffffffffffffffffffffffff168173ffffffffffffffffffffffffffffffffffffffff16036107705760006040517f1e4fbdf70000000000000000000000000000000000000000000000000000000081526004016107679190610cea565b60405180910390fd5b61077981610a86565b50565b6000600160009054906101000a900473ffffffffffffffffffffffffffffffffffffffff1673ffffffffffffffffffffffffffffffffffffffff1663bf22c457866040518263ffffffff1660e01b81526004016107d9919061112e565b600060405180830381865afa1580156107f6573d6000803e3d6000fd5b505050506040513d6000823e3d601f19601f8201168201806040525081019061081f9190611206565b509450505050503373ffffffffffffffffffffffffffffffffffffffff168173ffffffffffffffffffffffffffffffffffffffff1614610894576040517f08c379a000000000000000000000000000000000000000000000000000000000815260040161088b906116d0565b60405180910390fd5b600060026000878152602001908152602001600020905060005b81805490508110156109f6578573ffffffffffffffffffffffffffffffffffffffff168282815481106108e4576108e36116f0565b5b906000526020600020906004020160010160009054906101000a900473ffffffffffffffffffffffffffffffffffffffff1673ffffffffffffffffffffffffffffffffffffffff16036109e95784828281548110610945576109446116f0565b5b90600052602060002090600402016002019081610962919061158c565b5083828281548110610977576109766116f0565b5b90600052602060002090600402016003019081610994919061158c565b508573ffffffffffffffffffffffffffffffffffffffff16877f5993bb3cbd53b6fd24b9726ac95bc08e9ea12e8d20fae552521d2d70fbe6d97e876040516109dc9190611758565b60405180910390a36109f6565b80806001019150506108ae565b50505050505050565b610a07610b4a565b73ffffffffffffffffffffffffffffffffffffffff16610a25610209565b73ffffffffffffffffffffffffffffffffffffffff1614610a8457610a48610b4a565b6040517f118cdaa7000000000000000000000000000000000000000000000000000000008152600401610a7b9190610cea565b60405180910390fd5b565b60008060009054906101000a900473ffffffffffffffffffffffffffffffffffffffff169050816000806101000a81548173ffffffffffffffffffffffffffffffffffffffff021916908373ffffffffffffffffffffffffffffffffffffffff1602179055508173ffffffffffffffffffffffffffffffffffffffff168173ffffffffffffffffffffffffffffffffffffffff167f8be0079c531659141344cd1fd0a4f28419497f9722a3daafe3b4186f6b6457e060405160405180910390a35050565b600033905090565b6000604051905090565b600080fd5b600080fd5b600073ffffffffffffffffffffffffffffffffffffffff82169050919050565b6000610b9182610b66565b9050919050565b610ba181610b86565b8114610bac57600080fd5b50565b600081359050610bbe81610b98565b92915050565b600060208284031215610bda57610bd9610b5c565b5b6000610be884828501610baf565b91505092915050565b600081519050919050565b600082825260208201905092915050565b6000819050602082019050919050565b6000819050919050565b610c3081610c1d565b82525050565b6000610c428383610c27565b60208301905092915050565b6000602082019050919050565b6000610c6682610bf1565b610c708185610bfc565b9350610c7b83610c0d565b8060005b83811015610cac578151610c938882610c36565b9750610c9e83610c4e565b925050600181019050610c7f565b5085935050505092915050565b60006020820190508181036000830152610cd38184610c5b565b905092915050565b610ce481610b86565b82525050565b6000602082019050610cff6000830184610cdb565b92915050565b610d0e81610c1d565b8114610d1957600080fd5b50565b600081359050610d2b81610d05565b92915050565b600060208284031215610d4757610d46610b5c565b5b6000610d5584828501610d1c565b91505092915050565b600081519050919050565b600082825260208201905092915050565b6000819050602082019050919050565b610d9381610b86565b82525050565b600081519050919050565b600082825260208201905092915050565b60005b83811015610dd3578082015181840152602081019050610db8565b60008484015250505050565b6000601f19601f8301169050919050565b6000610dfb82610d99565b610e058185610da4565b9350610e15818560208601610db5565b610e1e81610ddf565b840191505092915050565b6000608083016000830151610e416000860182610c27565b506020830151610e546020860182610d8a565b5060408301518482036040860152610e6c8282610df0565b91505060608301518482036060860152610e868282610df0565b9150508091505092915050565b6000610e9f8383610e29565b905092915050565b6000602082019050919050565b6000610ebf82610d5e565b610ec98185610d69565b935083602082028501610edb85610d7a565b8060005b85811015610f175784840389528151610ef88582610e93565b9450610f0383610ea7565b925060208a01995050600181019050610edf565b50829750879550505050505092915050565b60006020820190508181036000830152610f438184610eb4565b905092915050565b600080fd5b600080fd5b7f4e487b7100000000000000000000000000000000000000000000000000000000600052604160045260246000fd5b610f8d82610ddf565b810181811067ffffffffffffffff82111715610fac57610fab610f55565b5b80604052505050565b6000610fbf610b52565b9050610fcb8282610f84565b919050565b600067ffffffffffffffff821115610feb57610fea610f55565b5b610ff482610ddf565b9050602081019050919050565b82818337600083830152505050565b600061102361101e84610fd0565b610fb5565b90508281526020810184848401111561103f5761103e610f50565b5b61104a848285611001565b509392505050565b600082601f83011261106757611066610f4b565b5b8135611077848260208601611010565b91505092915050565b6000806000806080858703121561109a57611099610b5c565b5b60006110a887828801610d1c565b94505060206110b987828801610baf565b935050604085013567ffffffffffffffff8111156110da576110d9610b61565b5b6110e687828801611052565b925050606085013567ffffffffffffffff81111561110757611106610b61565b5b61111387828801611052565b91505092959194509250565b61112881610c1d565b82525050565b6000602082019050611143600083018461111f565b92915050565b600061115c61115784610fd0565b610fb5565b90508281526020810184848401111561117857611177610f50565b5b611183848285610db5565b509392505050565b600082601f8301126111a05761119f610f4b565b5b81516111b0848260208601611149565b91505092915050565b6000815190506111c881610b98565b92915050565b60008115159050919050565b6111e3816111ce565b81146111ee57600080fd5b50565b600081519050611200816111da565b92915050565b60008060008060008060c0878903121561122357611222610b5c565b5b600087015167ffffffffffffffff81111561124157611240610b61565b5b61124d89828a0161118b565b965050602087015167ffffffffffffffff81111561126e5761126d610b61565b5b61127a89828a0161118b565b955050604087015167ffffffffffffffff81111561129b5761129a610b61565b5b6112a789828a0161118b565b945050606087015167ffffffffffffffff8111156112c8576112c7610b61565b5b6112d489828a0161118b565b93505060806112e589828a016111b9565b92505060a06112f689828a016111f1565b9150509295509295509295565b600082825260208201905092915050565b7f4a6f6220697320636c6f73656400000000000000000000000000000000000000600082015250565b600061134a600d83611303565b915061135582611314565b602082019050919050565b600060208201905081810360008301526113798161133d565b9050919050565b7f4e487b7100000000000000000000000000000000000000000000000000000000600052602260045260246000fd5b600060028204905060018216806113c757607f821691505b6020821081036113da576113d9611380565b5b50919050565b60008190508160005260206000209050919050565b60006020601f8301049050919050565b600082821b905092915050565b6000600883026114427fffffffffffffffffffffffffffffffffffffffffffffffffffffffffffffffff82611405565b61144c8683611405565b95508019841693508086168417925050509392505050565b6000819050919050565b600061148961148461147f84610c1d565b611464565b610c1d565b9050919050565b6000819050919050565b6114a38361146e565b6114b76114af82611490565b848454611412565b825550505050565b600090565b6114cc6114bf565b6114d781848461149a565b505050565b5b818110156114fb576114f06000826114c4565b6001810190506114dd565b5050565b601f82111561154057611511816113e0565b61151a846113f5565b81016020851015611529578190505b61153d611535856113f5565b8301826114dc565b50505b505050565b600082821c905092915050565b600061156360001984600802611545565b1980831691505092915050565b600061157c8383611552565b9150826002028217905092915050565b61159582610d99565b67ffffffffffffffff8111156115ae576115ad610f55565b5b6115b882546113af565b6115c38282856114ff565b600060209050601f8311600181146115f657600084156115e4578287015190505b6115ee8582611570565b865550611656565b601f198416611604866113e0565b60005b8281101561162c57848901518255600182019150602085019450602081019050611607565b868310156116495784890151611645601f891682611552565b8355505b6001600288020188555050505b505050505050565b7f4f6e6c792074686520656d706c6f7965722063616e207570646174652061707060008201527f6c69636174696f6e7320666f722074686973206a6f6200000000000000000000602082015250565b60006116ba603683611303565b91506116c58261165e565b604082019050919050565b600060208201905081810360008301526116e9816116ad565b9050919050565b7f4e487b7100000000000000000000000000000000000000000000000000000000600052603260045260246000fd5b600061172a82610d99565b6117348185611303565b9350611744818560208601610db5565b61174d81610ddf565b840191505092915050565b60006020820190508181036000830152611772818461171f565b90509291505056fea26469706673582212203afba81b6885fa6f0c36e85d90d6674c4970927e6da818d87f7ff0ccc4d72d5464736f6c63430008180033",
  "linkReferences": {},
  "deployedLinkReferences": {}
}