{
  "_format": "hh-sol-artifact-1",
  "contractName": "NFTCollection",
  "sourceName": "contracts/NFTCollection.sol",
  "abi": [
    {
      "inputs": [
        {
          "internalType": "address",
          "name": "initialOwner",
          "type": "address"
        }
      ],
      "stateMutability": "nonpayable",
      "type": "constructor"
    },
    {
      "inputs": [
        {
          "internalType": "address",
          "name": "sender",
          "type": "address"
        },
        {
          "internalType": "uint256",
          "name": "tokenId",
          "type": "uint256"
        },
        {
          "internalType": "address",
          "name": "owner",
          "type": "address"
        }
      ],
      "name": "ERC721IncorrectOwner",
      "type": "error"
    },
    {
      "inputs": [
        {
          "internalType": "address",
          "name": "operator",
          "type": "address"
        },
        {
          "internalType": "uint256",
          "name": "tokenId",
          "type": "uint256"
        }
      ],
      "name": "ERC721InsufficientApproval",
      "type": "error"
    },
    {
      "inputs": [
        {
          "internalType": "address",
          "name": "approver",
          "type": "address"
        }
      ],
      "name": "ERC721InvalidApprover",
      "type": "error"
    },
    {
      "inputs": [
        {
          "internalType": "address",
          "name": "operator",
          "type": "address"
        }
      ],
      "name": "ERC721InvalidOperator",
      "type": "error"
    },
    {
      "inputs": [
        {
          "internalType": "address",
          "name": "owner",
          "type": "address"
        }
      ],
      "name": "ERC721InvalidOwner",
      "type": "error"
    },
    {
      "inputs": [
        {
          "internalType": "address",
          "name": "receiver",
          "type": "address"
        }
      ],
      "name": "ERC721InvalidReceiver",
      "type": "error"
    },
    {
      "inputs": [
        {
          "internalType": "address",
          "name": "sender",
          "type": "address"
        }
      ],
      "name": "ERC721InvalidSender",
      "type": "error"
    },
    {
      "inputs": [
        {
          "internalType": "uint256",
          "name": "tokenId",
          "type": "uint256"
        }
      ],
      "name": "ERC721NonexistentToken",
      "type": "error"
    },
    {
      "inputs": [
        {
          "internalType": "address",
          "name": "owner",
          "type": "address"
        }
      ],
      "name": "OwnableInvalidOwner",
      "type": "error"
    },
    {
      "inputs": [
        {
          "internalType": "address",
          "name": "account",
          "type": "address"
        }
      ],
      "name": "OwnableUnauthorizedAccount",
      "type": "error"
    },
    {
      "anonymous": false,
      "inputs": [
        {
          "indexed": true,
          "internalType": "address",
          "name": "owner",
          "type": "address"
        },
        {
          "indexed": true,
          "internalType": "address",
          "name": "approved",
          "type": "address"
        },
        {
          "indexed": true,
          "internalType": "uint256",
          "name": "tokenId",
          "type": "uint256"
        }
      ],
      "name": "Approval",
      "type": "event"
    },
    {
      "anonymous": false,
      "inputs": [
        {
          "indexed": true,
          "internalType": "address",
          "name": "owner",
          "type": "address"
        },
        {
          "indexed": true,
          "internalType": "address",
          "name": "operator",
          "type": "address"
        },
        {
          "indexed": false,
          "internalType": "bool",
          "name": "approved",
          "type": "bool"
        }
      ],
      "name": "ApprovalForAll",
      "type": "event"
    },
    {
      "anonymous": false,
      "inputs": [
        {
          "indexed": false,
          "internalType": "uint256",
          "name": "_fromTokenId",
          "type": "uint256"
        },
        {
          "indexed": false,
          "internalType": "uint256",
          "name": "_toTokenId",
          "type": "uint256"
        }
      ],
      "name": "BatchMetadataUpdate",
      "type": "event"
    },
    {
      "anonymous": false,
      "inputs": [
        {
          "indexed": false,
          "internalType": "uint256",
          "name": "_tokenId",
          "type": "uint256"
        }
      ],
      "name": "MetadataUpdate",
      "type": "event"
    },
    {
      "anonymous": false,
      "inputs": [
        {
          "indexed": true,
          "internalType": "address",
          "name": "previousOwner",
          "type": "address"
        },
        {
          "indexed": true,
          "internalType": "address",
          "name": "newOwner",
          "type": "address"
        }
      ],
      "name": "OwnershipTransferred",
      "type": "event"
    },
    {
      "anonymous": false,
      "inputs": [
        {
          "indexed": true,
          "internalType": "address",
          "name": "from",
          "type": "address"
        },
        {
          "indexed": true,
          "internalType": "address",
          "name": "to",
          "type": "address"
        },
        {
          "indexed": true,
          "internalType": "uint256",
          "name": "tokenId",
          "type": "uint256"
        }
      ],
      "name": "Transfer",
      "type": "event"
    },
    {
      "inputs": [
        {
          "internalType": "address",
          "name": "to",
          "type": "address"
        },
        {
          "internalType": "uint256",
          "name": "tokenId",
          "type": "uint256"
        }
      ],
      "name": "approve",
      "outputs": [],
      "stateMutability": "nonpayable",
      "type": "function"
    },
    {
      "inputs": [
        {
          "internalType": "address",
          "name": "owner",
          "type": "address"
        }
      ],
      "name": "balanceOf",
      "outputs": [
        {
          "internalType": "uint256",
          "name": "",
          "type": "uint256"
        }
      ],
      "stateMutability": "view",
      "type": "function"
    },
    {
      "inputs": [
        {
          "internalType": "uint256",
          "name": "tokenId",
          "type": "uint256"
        }
      ],
      "name": "getApproved",
      "outputs": [
        {
          "internalType": "address",
          "name": "",
          "type": "address"
        }
      ],
      "stateMutability": "view",
      "type": "function"
    },
    {
      "inputs": [
        {
          "internalType": "address",
          "name": "owner",
          "type": "address"
        },
        {
          "internalType": "address",
          "name": "operator",
          "type": "address"
        }
      ],
      "name": "isApprovedForAll",
      "outputs": [
        {
          "internalType": "bool",
          "name": "",
          "type": "bool"
        }
      ],
      "stateMutability": "view",
      "type": "function"
    },
    {
      "inputs": [],
      "name": "name",
      "outputs": [
        {
          "internalType": "string",
          "name": "",
          "type": "string"
        }
      ],
      "stateMutability": "view",
      "type": "function"
    },
    {
      "inputs": [],
      "name": "owner",
      "outputs": [
        {
          "internalType": "address",
          "name": "",
          "type": "address"
        }
      ],
      "stateMutability": "view",
      "type": "function"
    },
    {
      "inputs": [
        {
          "internalType": "address",
          "name": "to",
          "type": "address"
        },
        {
          "internalType": "string",
          "name": "uri",
          "type": "string"
        }
      ],
      "name": "ownerMint",
      "outputs": [],
      "stateMutability": "nonpayable",
      "type": "function"
    },
    {
      "inputs": [
        {
          "internalType": "uint256",
          "name": "tokenId",
          "type": "uint256"
        }
      ],
      "name": "ownerOf",
      "outputs": [
        {
          "internalType": "address",
          "name": "",
          "type": "address"
        }
      ],
      "stateMutability": "view",
      "type": "function"
    },
    {
      "inputs": [
        {
          "internalType": "string",
          "name": "uri",
          "type": "string"
        }
      ],
      "name": "publicMint",
      "outputs": [],
      "stateMutability": "nonpayable",
      "type": "function"
    },
    {
      "inputs": [],
      "name": "renounceOwnership",
      "outputs": [],
      "stateMutability": "nonpayable",
      "type": "function"
    },
    {
      "inputs": [
        {
          "internalType": "address",
          "name": "from",
          "type": "address"
        },
        {
          "internalType": "address",
          "name": "to",
          "type": "address"
        },
        {
          "internalType": "uint256",
          "name": "tokenId",
          "type": "uint256"
        }
      ],
      "name": "safeTransferFrom",
      "outputs": [],
      "stateMutability": "nonpayable",
      "type": "function"
    },
    {
      "inputs": [
        {
          "internalType": "address",
          "name": "from",
          "type": "address"
        },
        {
          "internalType": "address",
          "name": "to",
          "type": "address"
        },
        {
          "internalType": "uint256",
          "name": "tokenId",
          "type": "uint256"
        },
        {
          "internalType": "bytes",
          "name": "data",
          "type": "bytes"
        }
      ],
      "name": "safeTransferFrom",
      "outputs": [],
      "stateMutability": "nonpayable",
      "type": "function"
    },
    {
      "inputs": [
        {
          "internalType": "address",
          "name": "operator",
          "type": "address"
        },
        {
          "internalType": "bool",
          "name": "approved",
          "type": "bool"
        }
      ],
      "name": "setApprovalForAll",
      "outputs": [],
      "stateMutability": "nonpayable",
      "type": "function"
    },
    {
      "inputs": [
        {
          "internalType": "bytes4",
          "name": "interfaceId",
          "type": "bytes4"
        }
      ],
      "name": "supportsInterface",
      "outputs": [
        {
          "internalType": "bool",
          "name": "",
          "type": "bool"
        }
      ],
      "stateMutability": "view",
      "type": "function"
    },
    {
      "inputs": [],
      "name": "symbol",
      "outputs": [
        {
          "internalType": "string",
          "name": "",
          "type": "string"
        }
      ],
      "stateMutability": "view",
      "type": "function"
    },
    {
      "inputs": [
        {
          "internalType": "uint256",
          "name": "tokenId",
          "type": "uint256"
        }
      ],
      "name": "tokenURI",
      "outputs": [
        {
          "internalType": "string",
          "name": "",
          "type": "string"
        }
      ],
      "stateMutability": "view",
      "type": "function"
    },
    {
      "inputs": [],
      "name": "totalIssued",
      "outputs": [
        {
          "internalType": "uint256",
          "name": "",
          "type": "uint256"
        }
      ],
      "stateMutability": "view",
      "type": "function"
    },
    {
      "inputs": [
        {
          "internalType": "address",
          "name": "from",
          "type": "address"
        },
        {
          "internalType": "address",
          "name": "to",
          "type": "address"
        },
        {
          "internalType": "uint256",
          "name": "tokenId",
          "type": "uint256"
        }
      ],
      "name": "transferFrom",
      "outputs": [],
      "stateMutability": "nonpayable",
      "type": "function"
    },
    {
      "inputs": [
        {
          "internalType": "address",
          "name": "newOwner",
          "type": "address"
        }
      ],
      "name": "transferOwnership",
      "outputs": [],
      "stateMutability": "nonpayable",
      "type": "function"
    }
  ],
  "bytecode": "0x60806040523480156200001157600080fd5b5060405162002dbb38038062002dbb833981810160405281019062000037919062000288565b806040518060400160405280600681526020017f4149204e465400000000000000000000000000000000000000000000000000008152506040518060400160405280600581526020017f41494e46540000000000000000000000000000000000000000000000000000008152508160009081620000b5919062000534565b508060019081620000c7919062000534565b505050600073ffffffffffffffffffffffffffffffffffffffff168173ffffffffffffffffffffffffffffffffffffffff16036200013f5760006040517f1e4fbdf70000000000000000000000000000000000000000000000000000000081526004016200013691906200062c565b60405180910390fd5b62000150816200015860201b60201c565b505062000649565b6000600760009054906101000a900473ffffffffffffffffffffffffffffffffffffffff16905081600760006101000a81548173ffffffffffffffffffffffffffffffffffffffff021916908373ffffffffffffffffffffffffffffffffffffffff1602179055508173ffffffffffffffffffffffffffffffffffffffff168173ffffffffffffffffffffffffffffffffffffffff167f8be0079c531659141344cd1fd0a4f28419497f9722a3daafe3b4186f6b6457e060405160405180910390a35050565b600080fd5b600073ffffffffffffffffffffffffffffffffffffffff82169050919050565b6000620002508262000223565b9050919050565b620002628162000243565b81146200026e57600080fd5b50565b600081519050620002828162000257565b92915050565b600060208284031215620002a157620002a06200021e565b5b6000620002b18482850162000271565b91505092915050565b600081519050919050565b7f4e487b7100000000000000000000000000000000000000000000000000000000600052604160045260246000fd5b7f4e487b7100000000000000000000000000000000000000000000000000000000600052602260045260246000fd5b600060028204905060018216806200033c57607f821691505b602082108103620003525762000351620002f4565b5b50919050565b60008190508160005260206000209050919050565b60006020601f8301049050919050565b600082821b905092915050565b600060088302620003bc7fffffffffffffffffffffffffffffffffffffffffffffffffffffffffffffffff826200037d565b620003c886836200037d565b95508019841693508086168417925050509392505050565b6000819050919050565b6000819050919050565b6000620004156200040f6200040984620003e0565b620003ea565b620003e0565b9050919050565b6000819050919050565b6200043183620003f4565b6200044962000440826200041c565b8484546200038a565b825550505050565b600090565b6200046062000451565b6200046d81848462000426565b505050565b5b8181101562000495576200048960008262000456565b60018101905062000473565b5050565b601f821115620004e457620004ae8162000358565b620004b9846200036d565b81016020851015620004c9578190505b620004e1620004d8856200036d565b83018262000472565b50505b505050565b600082821c905092915050565b60006200050960001984600802620004e9565b1980831691505092915050565b6000620005248383620004f6565b9150826002028217905092915050565b6200053f82620002ba565b67ffffffffffffffff8111156200055b576200055a620002c5565b5b62000567825462000323565b6200057482828562000499565b600060209050601f831160018114620005ac576000841562000597578287015190505b620005a3858262000516565b86555062000613565b601f198416620005bc8662000358565b60005b82811015620005e657848901518255600182019150602085019450602081019050620005bf565b8683101562000606578489015162000602601f891682620004f6565b8355505b6001600288020188555050505b505050505050565b620006268162000243565b82525050565b60006020820190506200064360008301846200061b565b92915050565b61276280620006596000396000f3fe608060405234801561001057600080fd5b50600436106101215760003560e01c8063715018a6116100ad578063b88d4fde11610071578063b88d4fde146102f2578063c87b56dd1461030e578063e985e9c51461033e578063f2fde38b1461036e578063f5be31931461038a57610121565b8063715018a6146102745780638da5cb5b1461027e57806395d89b411461029c578063a22cb465146102ba578063b3d7acf9146102d657610121565b806323b872dd116100f457806323b872dd146101c057806341d5b803146101dc57806342842e0e146101f85780636352211e1461021457806370a082311461024457610121565b806301ffc9a71461012657806306fdde0314610156578063081812fc14610174578063095ea7b3146101a4575b600080fd5b610140600480360381019061013b9190611b71565b6103a8565b60405161014d9190611bb9565b60405180910390f35b61015e6103ba565b60405161016b9190611c64565b60405180910390f35b61018e60048036038101906101899190611cbc565b61044c565b60405161019b9190611d2a565b60405180910390f35b6101be60048036038101906101b99190611d71565b610468565b005b6101da60048036038101906101d59190611db1565b61047e565b005b6101f660048036038101906101f19190611f39565b610580565b005b610212600480360381019061020d9190611db1565b6105c0565b005b61022e60048036038101906102299190611cbc565b6105e0565b60405161023b9190611d2a565b60405180910390f35b61025e60048036038101906102599190611f95565b6105f2565b60405161026b9190611fd1565b60405180910390f35b61027c6106ac565b005b6102866106c0565b6040516102939190611d2a565b60405180910390f35b6102a46106ea565b6040516102b19190611c64565b60405180910390f35b6102d460048036038101906102cf9190612018565b61077c565b005b6102f060048036038101906102eb9190612058565b610792565b005b61030c60048036038101906103079190612142565b6107c9565b005b61032860048036038101906103239190611cbc565b6107ee565b6040516103359190611c64565b60405180910390f35b610358600480360381019061035391906121c5565b610800565b6040516103659190611bb9565b60405180910390f35b61038860048036038101906103839190611f95565b610894565b005b61039261091a565b60405161039f9190611fd1565b60405180910390f35b60006103b382610920565b9050919050565b6060600080546103c990612234565b80601f01602080910402602001604051908101604052809291908181526020018280546103f590612234565b80156104425780601f1061041757610100808354040283529160200191610442565b820191906000526020600020905b81548152906001019060200180831161042557829003601f168201915b5050505050905090565b600061045782610981565b5061046182610a09565b9050919050565b61047a8282610475610a46565b610a4e565b5050565b600073ffffffffffffffffffffffffffffffffffffffff168273ffffffffffffffffffffffffffffffffffffffff16036104f05760006040517f64a0ae920000000000000000000000000000000000000000000000000000000081526004016104e79190611d2a565b60405180910390fd5b600061050483836104ff610a46565b610a60565b90508373ffffffffffffffffffffffffffffffffffffffff168173ffffffffffffffffffffffffffffffffffffffff161461057a578382826040517f64283d7b00000000000000000000000000000000000000000000000000000000815260040161057193929190612265565b60405180910390fd5b50505050565b610588610c7a565b60006008549050600860008154809291906105a2906122cb565b91905055506105b18382610d01565b6105bb8183610d1f565b505050565b6105db838383604051806020016040528060008152506107c9565b505050565b60006105eb82610981565b9050919050565b60008073ffffffffffffffffffffffffffffffffffffffff168273ffffffffffffffffffffffffffffffffffffffff16036106655760006040517f89c62b6400000000000000000000000000000000000000000000000000000000815260040161065c9190611d2a565b60405180910390fd5b600360008373ffffffffffffffffffffffffffffffffffffffff1673ffffffffffffffffffffffffffffffffffffffff168152602001908152602001600020549050919050565b6106b4610c7a565b6106be6000610d7b565b565b6000600760009054906101000a900473ffffffffffffffffffffffffffffffffffffffff16905090565b6060600180546106f990612234565b80601f016020809104026020016040519081016040528092919081815260200182805461072590612234565b80156107725780601f1061074757610100808354040283529160200191610772565b820191906000526020600020905b81548152906001019060200180831161075557829003601f168201915b5050505050905090565b61078e610787610a46565b8383610e41565b5050565b60006008549050600860008154809291906107ac906122cb565b91905055506107bb3382610d01565b6107c58183610d1f565b5050565b6107d484848461047e565b6107e86107df610a46565b85858585610fb0565b50505050565b60606107f982611161565b9050919050565b6000600560008473ffffffffffffffffffffffffffffffffffffffff1673ffffffffffffffffffffffffffffffffffffffff16815260200190815260200160002060008373ffffffffffffffffffffffffffffffffffffffff1673ffffffffffffffffffffffffffffffffffffffff16815260200190815260200160002060009054906101000a900460ff16905092915050565b61089c610c7a565b600073ffffffffffffffffffffffffffffffffffffffff168173ffffffffffffffffffffffffffffffffffffffff160361090e5760006040517f1e4fbdf70000000000000000000000000000000000000000000000000000000081526004016109059190611d2a565b60405180910390fd5b61091781610d7b565b50565b60085481565b6000634906490660e01b7bffffffffffffffffffffffffffffffffffffffffffffffffffffffff1916827bffffffffffffffffffffffffffffffffffffffffffffffffffffffff1916148061097a575061097982611274565b5b9050919050565b60008061098d83611356565b9050600073ffffffffffffffffffffffffffffffffffffffff168173ffffffffffffffffffffffffffffffffffffffff1603610a0057826040517f7e2732890000000000000000000000000000000000000000000000000000000081526004016109f79190611fd1565b60405180910390fd5b80915050919050565b60006004600083815260200190815260200160002060009054906101000a900473ffffffffffffffffffffffffffffffffffffffff169050919050565b600033905090565b610a5b8383836001611393565b505050565b600080610a6c84611356565b9050600073ffffffffffffffffffffffffffffffffffffffff168373ffffffffffffffffffffffffffffffffffffffff1614610aae57610aad818486611558565b5b600073ffffffffffffffffffffffffffffffffffffffff168173ffffffffffffffffffffffffffffffffffffffff1614610b3f57610af0600085600080611393565b6001600360008373ffffffffffffffffffffffffffffffffffffffff1673ffffffffffffffffffffffffffffffffffffffff168152602001908152602001600020600082825403925050819055505b600073ffffffffffffffffffffffffffffffffffffffff168573ffffffffffffffffffffffffffffffffffffffff1614610bc2576001600360008773ffffffffffffffffffffffffffffffffffffffff1673ffffffffffffffffffffffffffffffffffffffff168152602001908152602001600020600082825401925050819055505b846002600086815260200190815260200160002060006101000a81548173ffffffffffffffffffffffffffffffffffffffff021916908373ffffffffffffffffffffffffffffffffffffffff160217905550838573ffffffffffffffffffffffffffffffffffffffff168273ffffffffffffffffffffffffffffffffffffffff167fddf252ad1be2c89b69c2b068fc378daa952ba7f163c4a11628f55a4df523b3ef60405160405180910390a4809150509392505050565b610c82610a46565b73ffffffffffffffffffffffffffffffffffffffff16610ca06106c0565b73ffffffffffffffffffffffffffffffffffffffff1614610cff57610cc3610a46565b6040517f118cdaa7000000000000000000000000000000000000000000000000000000008152600401610cf69190611d2a565b60405180910390fd5b565b610d1b82826040518060200160405280600081525061161c565b5050565b80600660008481526020019081526020016000209081610d3f91906124bf565b507ff8e1a15aba9398e019f0b49df1a4fde98ee17ae345cb5f6b5e2c27f5033e8ce782604051610d6f9190611fd1565b60405180910390a15050565b6000600760009054906101000a900473ffffffffffffffffffffffffffffffffffffffff16905081600760006101000a81548173ffffffffffffffffffffffffffffffffffffffff021916908373ffffffffffffffffffffffffffffffffffffffff1602179055508173ffffffffffffffffffffffffffffffffffffffff168173ffffffffffffffffffffffffffffffffffffffff167f8be0079c531659141344cd1fd0a4f28419497f9722a3daafe3b4186f6b6457e060405160405180910390a35050565b600073ffffffffffffffffffffffffffffffffffffffff168273ffffffffffffffffffffffffffffffffffffffff1603610eb257816040517f5b08ba18000000000000000000000000000000000000000000000000000000008152600401610ea99190611d2a565b60405180910390fd5b80600560008573ffffffffffffffffffffffffffffffffffffffff1673ffffffffffffffffffffffffffffffffffffffff16815260200190815260200160002060008473ffffffffffffffffffffffffffffffffffffffff1673ffffffffffffffffffffffffffffffffffffffff16815260200190815260200160002060006101000a81548160ff0219169083151502179055508173ffffffffffffffffffffffffffffffffffffffff168373ffffffffffffffffffffffffffffffffffffffff167f17307eab39ab6107e8899845ad3d59bd9653f200f220920489ca2b5937696c3183604051610fa39190611bb9565b60405180910390a3505050565b60008373ffffffffffffffffffffffffffffffffffffffff163b111561115a578273ffffffffffffffffffffffffffffffffffffffff1663150b7a02868685856040518563ffffffff1660e01b815260040161100f94939291906125e6565b6020604051808303816000875af192505050801561104b57506040513d601f19601f820116820180604052508101906110489190612647565b60015b6110cf573d806000811461107b576040519150601f19603f3d011682016040523d82523d6000602084013e611080565b606091505b5060008151036110c757836040517f64a0ae920000000000000000000000000000000000000000000000000000000081526004016110be9190611d2a565b60405180910390fd5b805181602001fd5b63150b7a0260e01b7bffffffffffffffffffffffffffffffffffffffffffffffffffffffff1916817bffffffffffffffffffffffffffffffffffffffffffffffffffffffff19161461115857836040517f64a0ae9200000000000000000000000000000000000000000000000000000000815260040161114f9190611d2a565b60405180910390fd5b505b5050505050565b606061116c82610981565b50600060066000848152602001908152602001600020805461118d90612234565b80601f01602080910402602001604051908101604052809291908181526020018280546111b990612234565b80156112065780601f106111db57610100808354040283529160200191611206565b820191906000526020600020905b8154815290600101906020018083116111e957829003601f168201915b505050505090506000611217611640565b9050600081510361122c57819250505061126f565b6000825111156112615780826040516020016112499291906126b0565b6040516020818303038152906040529250505061126f565b61126a84611657565b925050505b919050565b60007f80ac58cd000000000000000000000000000000000000000000000000000000007bffffffffffffffffffffffffffffffffffffffffffffffffffffffff1916827bffffffffffffffffffffffffffffffffffffffffffffffffffffffff1916148061133f57507f5b5e139f000000000000000000000000000000000000000000000000000000007bffffffffffffffffffffffffffffffffffffffffffffffffffffffff1916827bffffffffffffffffffffffffffffffffffffffffffffffffffffffff1916145b8061134f575061134e826116c0565b5b9050919050565b60006002600083815260200190815260200160002060009054906101000a900473ffffffffffffffffffffffffffffffffffffffff169050919050565b80806113cc5750600073ffffffffffffffffffffffffffffffffffffffff168273ffffffffffffffffffffffffffffffffffffffff1614155b156115005760006113dc84610981565b9050600073ffffffffffffffffffffffffffffffffffffffff168373ffffffffffffffffffffffffffffffffffffffff161415801561144757508273ffffffffffffffffffffffffffffffffffffffff168173ffffffffffffffffffffffffffffffffffffffff1614155b801561145a57506114588184610800565b155b1561149c57826040517fa9fbf51f0000000000000000000000000000000000000000000000000000000081526004016114939190611d2a565b60405180910390fd5b81156114fe57838573ffffffffffffffffffffffffffffffffffffffff168273ffffffffffffffffffffffffffffffffffffffff167f8c5be1e5ebec7d5bd14f71427d1e84f3dd0314c0f7b2291e5b200ac8c7c3b92560405160405180910390a45b505b836004600085815260200190815260200160002060006101000a81548173ffffffffffffffffffffffffffffffffffffffff021916908373ffffffffffffffffffffffffffffffffffffffff16021790555050505050565b61156383838361172a565b61161757600073ffffffffffffffffffffffffffffffffffffffff168373ffffffffffffffffffffffffffffffffffffffff16036115d857806040517f7e2732890000000000000000000000000000000000000000000000000000000081526004016115cf9190611fd1565b60405180910390fd5b81816040517f177e802f00000000000000000000000000000000000000000000000000000000815260040161160e9291906126d4565b60405180910390fd5b505050565b61162683836117eb565b61163b611631610a46565b6000858585610fb0565b505050565b606060405180602001604052806000815250905090565b606061166282610981565b50600061166d611640565b9050600081511161168d57604051806020016040528060008152506116b8565b80611697846118e4565b6040516020016116a89291906126b0565b6040516020818303038152906040525b915050919050565b60007f01ffc9a7000000000000000000000000000000000000000000000000000000007bffffffffffffffffffffffffffffffffffffffffffffffffffffffff1916827bffffffffffffffffffffffffffffffffffffffffffffffffffffffff1916149050919050565b60008073ffffffffffffffffffffffffffffffffffffffff168373ffffffffffffffffffffffffffffffffffffffff16141580156117e257508273ffffffffffffffffffffffffffffffffffffffff168473ffffffffffffffffffffffffffffffffffffffff1614806117a357506117a28484610800565b5b806117e157508273ffffffffffffffffffffffffffffffffffffffff166117c983610a09565b73ffffffffffffffffffffffffffffffffffffffff16145b5b90509392505050565b600073ffffffffffffffffffffffffffffffffffffffff168273ffffffffffffffffffffffffffffffffffffffff160361185d5760006040517f64a0ae920000000000000000000000000000000000000000000000000000000081526004016118549190611d2a565b60405180910390fd5b600061186b83836000610a60565b9050600073ffffffffffffffffffffffffffffffffffffffff168173ffffffffffffffffffffffffffffffffffffffff16146118df5760006040517f73c6ac6e0000000000000000000000000000000000000000000000000000000081526004016118d69190611d2a565b60405180910390fd5b505050565b6060600060016118f3846119b2565b01905060008167ffffffffffffffff81111561191257611911611e0e565b5b6040519080825280601f01601f1916602001820160405280156119445781602001600182028036833780820191505090505b509050600082602001820190505b6001156119a7578080600190039150507f3031323334353637383961626364656600000000000000000000000000000000600a86061a8153600a858161199b5761199a6126fd565b5b04945060008503611952575b819350505050919050565b600080600090507a184f03e93ff9f4daa797ed6e38ed64bf6a1f0100000000000000008310611a10577a184f03e93ff9f4daa797ed6e38ed64bf6a1f0100000000000000008381611a0657611a056126fd565b5b0492506040810190505b6d04ee2d6d415b85acef81000000008310611a4d576d04ee2d6d415b85acef81000000008381611a4357611a426126fd565b5b0492506020810190505b662386f26fc100008310611a7c57662386f26fc100008381611a7257611a716126fd565b5b0492506010810190505b6305f5e1008310611aa5576305f5e1008381611a9b57611a9a6126fd565b5b0492506008810190505b6127108310611aca576127108381611ac057611abf6126fd565b5b0492506004810190505b60648310611aed5760648381611ae357611ae26126fd565b5b0492506002810190505b600a8310611afc576001810190505b80915050919050565b6000604051905090565b600080fd5b600080fd5b60007fffffffff0000000000000000000000000000000000000000000000000000000082169050919050565b611b4e81611b19565b8114611b5957600080fd5b50565b600081359050611b6b81611b45565b92915050565b600060208284031215611b8757611b86611b0f565b5b6000611b9584828501611b5c565b91505092915050565b60008115159050919050565b611bb381611b9e565b82525050565b6000602082019050611bce6000830184611baa565b92915050565b600081519050919050565b600082825260208201905092915050565b60005b83811015611c0e578082015181840152602081019050611bf3565b60008484015250505050565b6000601f19601f8301169050919050565b6000611c3682611bd4565b611c408185611bdf565b9350611c50818560208601611bf0565b611c5981611c1a565b840191505092915050565b60006020820190508181036000830152611c7e8184611c2b565b905092915050565b6000819050919050565b611c9981611c86565b8114611ca457600080fd5b50565b600081359050611cb681611c90565b92915050565b600060208284031215611cd257611cd1611b0f565b5b6000611ce084828501611ca7565b91505092915050565b600073ffffffffffffffffffffffffffffffffffffffff82169050919050565b6000611d1482611ce9565b9050919050565b611d2481611d09565b82525050565b6000602082019050611d3f6000830184611d1b565b92915050565b611d4e81611d09565b8114611d5957600080fd5b50565b600081359050611d6b81611d45565b92915050565b60008060408385031215611d8857611d87611b0f565b5b6000611d9685828601611d5c565b9250506020611da785828601611ca7565b9150509250929050565b600080600060608486031215611dca57611dc9611b0f565b5b6000611dd886828701611d5c565b9350506020611de986828701611d5c565b9250506040611dfa86828701611ca7565b9150509250925092565b600080fd5b600080fd5b7f4e487b7100000000000000000000000000000000000000000000000000000000600052604160045260246000fd5b611e4682611c1a565b810181811067ffffffffffffffff82111715611e6557611e64611e0e565b5b80604052505050565b6000611e78611b05565b9050611e848282611e3d565b919050565b600067ffffffffffffffff821115611ea457611ea3611e0e565b5b611ead82611c1a565b9050602081019050919050565b82818337600083830152505050565b6000611edc611ed784611e89565b611e6e565b905082815260208101848484011115611ef857611ef7611e09565b5b611f03848285611eba565b509392505050565b600082601f830112611f2057611f1f611e04565b5b8135611f30848260208601611ec9565b91505092915050565b60008060408385031215611f5057611f4f611b0f565b5b6000611f5e85828601611d5c565b925050602083013567ffffffffffffffff811115611f7f57611f7e611b14565b5b611f8b85828601611f0b565b9150509250929050565b600060208284031215611fab57611faa611b0f565b5b6000611fb984828501611d5c565b91505092915050565b611fcb81611c86565b82525050565b6000602082019050611fe66000830184611fc2565b92915050565b611ff581611b9e565b811461200057600080fd5b50565b60008135905061201281611fec565b92915050565b6000806040838503121561202f5761202e611b0f565b5b600061203d85828601611d5c565b925050602061204e85828601612003565b9150509250929050565b60006020828403121561206e5761206d611b0f565b5b600082013567ffffffffffffffff81111561208c5761208b611b14565b5b61209884828501611f0b565b91505092915050565b600067ffffffffffffffff8211156120bc576120bb611e0e565b5b6120c582611c1a565b9050602081019050919050565b60006120e56120e0846120a1565b611e6e565b90508281526020810184848401111561210157612100611e09565b5b61210c848285611eba565b509392505050565b600082601f83011261212957612128611e04565b5b81356121398482602086016120d2565b91505092915050565b6000806000806080858703121561215c5761215b611b0f565b5b600061216a87828801611d5c565b945050602061217b87828801611d5c565b935050604061218c87828801611ca7565b925050606085013567ffffffffffffffff8111156121ad576121ac611b14565b5b6121b987828801612114565b91505092959194509250565b600080604083850312156121dc576121db611b0f565b5b60006121ea85828601611d5c565b92505060206121fb85828601611d5c565b9150509250929050565b7f4e487b7100000000000000000000000000000000000000000000000000000000600052602260045260246000fd5b6000600282049050600182168061224c57607f821691505b60208210810361225f5761225e612205565b5b50919050565b600060608201905061227a6000830186611d1b565b6122876020830185611fc2565b6122946040830184611d1b565b949350505050565b7f4e487b7100000000000000000000000000000000000000000000000000000000600052601160045260246000fd5b60006122d682611c86565b91507fffffffffffffffffffffffffffffffffffffffffffffffffffffffffffffffff82036123085761230761229c565b5b600182019050919050565b60008190508160005260206000209050919050565b60006020601f8301049050919050565b600082821b905092915050565b6000600883026123757fffffffffffffffffffffffffffffffffffffffffffffffffffffffffffffffff82612338565b61237f8683612338565b95508019841693508086168417925050509392505050565b6000819050919050565b60006123bc6123b76123b284611c86565b612397565b611c86565b9050919050565b6000819050919050565b6123d6836123a1565b6123ea6123e2826123c3565b848454612345565b825550505050565b600090565b6123ff6123f2565b61240a8184846123cd565b505050565b5b8181101561242e576124236000826123f7565b600181019050612410565b5050565b601f8211156124735761244481612313565b61244d84612328565b8101602085101561245c578190505b61247061246885612328565b83018261240f565b50505b505050565b600082821c905092915050565b600061249660001984600802612478565b1980831691505092915050565b60006124af8383612485565b9150826002028217905092915050565b6124c882611bd4565b67ffffffffffffffff8111156124e1576124e0611e0e565b5b6124eb8254612234565b6124f6828285612432565b600060209050601f8311600181146125295760008415612517578287015190505b61252185826124a3565b865550612589565b601f19841661253786612313565b60005b8281101561255f5784890151825560018201915060208501945060208101905061253a565b8683101561257c5784890151612578601f891682612485565b8355505b6001600288020188555050505b505050505050565b600081519050919050565b600082825260208201905092915050565b60006125b882612591565b6125c2818561259c565b93506125d2818560208601611bf0565b6125db81611c1a565b840191505092915050565b60006080820190506125fb6000830187611d1b565b6126086020830186611d1b565b6126156040830185611fc2565b818103606083015261262781846125ad565b905095945050505050565b60008151905061264181611b45565b92915050565b60006020828403121561265d5761265c611b0f565b5b600061266b84828501612632565b91505092915050565b600081905092915050565b600061268a82611bd4565b6126948185612674565b93506126a4818560208601611bf0565b80840191505092915050565b60006126bc828561267f565b91506126c8828461267f565b91508190509392505050565b60006040820190506126e96000830185611d1b565b6126f66020830184611fc2565b9392505050565b7f4e487b7100000000000000000000000000000000000000000000000000000000600052601260045260246000fdfea26469706673582212201c4bf94d6eba98de0c714894000fc22f1ba59765bc0456bc970c0a96da88329764736f6c63430008180033",
  "linkReferences": {},
  "deployedLinkReferences": {}
}