{
  "_format": "hh-sol-artifact-1",
  "contractName": "BetterCause",
  "sourceName": "contracts/BetterCause.sol",
  "abi": [
    {
      "inputs": [
        {
          "internalType": "address",
          "name": "_donationToken",
          "type": "address"
        }
      ],
      "stateMutability": "nonpayable",
      "type": "constructor"
    },
    {
      "anonymous": false,
      "inputs": [
        {
          "indexed": false,
          "internalType": "uint256",
          "name": "campaignId",
          "type": "uint256"
        },
        {
          "indexed": false,
          "internalType": "string",
          "name": "title",
          "type": "string"
        },
        {
          "indexed": false,
          "internalType": "string",
          "name": "description",
          "type": "string"
        },
        {
          "indexed": true,
          "internalType": "address",
          "name": "owner",
          "type": "address"
        },
        {
          "indexed": false,
          "internalType": "uint256",
          "name": "deadline",
          "type": "uint256"
        }
      ],
      "name": "CampaignCreated",
      "type": "event"
    },
    {
      "anonymous": false,
      "inputs": [
        {
          "indexed": true,
          "internalType": "uint256",
          "name": "campaignId",
          "type": "uint256"
        },
        {
          "indexed": true,
          "internalType": "address",
          "name": "donator",
          "type": "address"
        },
        {
          "indexed": false,
          "internalType": "uint256",
          "name": "amount",
          "type": "uint256"
        }
      ],
      "name": "DonationReceivedETH",
      "type": "event"
    },
    {
      "anonymous": false,
      "inputs": [
        {
          "indexed": true,
          "internalType": "uint256",
          "name": "campaignId",
          "type": "uint256"
        },
        {
          "indexed": true,
          "internalType": "address",
          "name": "donator",
          "type": "address"
        },
        {
          "indexed": false,
          "internalType": "uint256",
          "name": "amount",
          "type": "uint256"
        }
      ],
      "name": "DonationReceivedPYUSD",
      "type": "event"
    },
    {
      "inputs": [],
      "name": "campaignCount",
      "outputs": [
        {
          "internalType": "uint256",
          "name": "",
          "type": "uint256"
        }
      ],
      "stateMutability": "view",
      "type": "function"
    },
    {
      "inputs": [
        {
          "internalType": "uint256",
          "name": "",
          "type": "uint256"
        }
      ],
      "name": "campaigns",
      "outputs": [
        {
          "internalType": "string",
          "name": "title",
          "type": "string"
        },
        {
          "internalType": "string",
          "name": "description",
          "type": "string"
        },
        {
          "internalType": "string",
          "name": "imageHash",
          "type": "string"
        },
        {
          "internalType": "address",
          "name": "owner",
          "type": "address"
        },
        {
          "internalType": "uint256",
          "name": "deadline",
          "type": "uint256"
        },
        {
          "internalType": "uint256",
          "name": "amountCollectedETH",
          "type": "uint256"
        },
        {
          "internalType": "uint256",
          "name": "amountCollectedPYUSD",
          "type": "uint256"
        }
      ],
      "stateMutability": "view",
      "type": "function"
    },
    {
      "inputs": [
        {
          "internalType": "string",
          "name": "_title",
          "type": "string"
        },
        {
          "internalType": "string",
          "name": "_description",
          "type": "string"
        },
        {
          "internalType": "string",
          "name": "_imageHash",
          "type": "string"
        },
        {
          "internalType": "uint256",
          "name": "_durationInDays",
          "type": "uint256"
        }
      ],
      "name": "createCampaign",
      "outputs": [],
      "stateMutability": "nonpayable",
      "type": "function"
    },
    {
      "inputs": [
        {
          "internalType": "uint256",
          "name": "_campaignId",
          "type": "uint256"
        }
      ],
      "name": "donateWithETH",
      "outputs": [],
      "stateMutability": "payable",
      "type": "function"
    },
    {
      "inputs": [
        {
          "internalType": "uint256",
          "name": "_campaignId",
          "type": "uint256"
        },
        {
          "internalType": "uint256",
          "name": "_amount",
          "type": "uint256"
        }
      ],
      "name": "donateWithPYUSD",
      "outputs": [],
      "stateMutability": "nonpayable",
      "type": "function"
    },
    {
      "inputs": [],
      "name": "donationToken",
      "outputs": [
        {
          "internalType": "contract IERC20",
          "name": "",
          "type": "address"
        }
      ],
      "stateMutability": "view",
      "type": "function"
    },
    {
      "inputs": [
        {
          "internalType": "uint256",
          "name": "_campaignId",
          "type": "uint256"
        }
      ],
      "name": "withdrawFundsETH",
      "outputs": [],
      "stateMutability": "nonpayable",
      "type": "function"
    },
    {
      "inputs": [
        {
          "internalType": "uint256",
          "name": "_campaignId",
          "type": "uint256"
        }
      ],
      "name": "withdrawFundsPYUSD",
      "outputs": [],
      "stateMutability": "nonpayable",
      "type": "function"
    }
  ],
  "bytecode": "0x60806040523480156200001157600080fd5b5060405162001dc738038062001dc78339818101604052810190620000379190620000e8565b806000806101000a81548173ffffffffffffffffffffffffffffffffffffffff021916908373ffffffffffffffffffffffffffffffffffffffff160217905550506200011a565b600080fd5b600073ffffffffffffffffffffffffffffffffffffffff82169050919050565b6000620000b08262000083565b9050919050565b620000c281620000a3565b8114620000ce57600080fd5b50565b600081519050620000e281620000b7565b92915050565b6000602082840312156200010157620001006200007e565b5b60006200011184828501620000d1565b91505092915050565b611c9d806200012a6000396000f3fe60806040526004361061007b5760003560e01c80634b83645b1161004e5780634b83645b146101335780637274e30d1461015c57806389189cb814610187578063ee7b3e22146101b05761007b565b80630df7215914610080578063141961bc146100ab57806346ba83e8146100ee5780634a15ef921461010a575b600080fd5b34801561008c57600080fd5b506100956101d9565b6040516100a29190610f2f565b60405180910390f35b3480156100b757600080fd5b506100d260048036038101906100cd9190610f94565b6101fd565b6040516100e59796959493929190611081565b60405180910390f35b61010860048036038101906101039190610f94565b6103f7565b005b34801561011657600080fd5b50610131600480360381019061012c919061123a565b61060c565b005b34801561013f57600080fd5b5061015a60048036038101906101559190610f94565b6107c1565b005b34801561016857600080fd5b506101716109e7565b60405161017e91906112f5565b60405180910390f35b34801561019357600080fd5b506101ae60048036038101906101a99190610f94565b6109ed565b005b3480156101bc57600080fd5b506101d760048036038101906101d29190611310565b610bbb565b005b60008054906101000a900473ffffffffffffffffffffffffffffffffffffffff1681565b60016020528060005260406000206000915090508060000180546102209061137f565b80601f016020809104026020016040519081016040528092919081815260200182805461024c9061137f565b80156102995780601f1061026e57610100808354040283529160200191610299565b820191906000526020600020905b81548152906001019060200180831161027c57829003601f168201915b5050505050908060010180546102ae9061137f565b80601f01602080910402602001604051908101604052809291908181526020018280546102da9061137f565b80156103275780601f106102fc57610100808354040283529160200191610327565b820191906000526020600020905b81548152906001019060200180831161030a57829003601f168201915b50505050509080600201805461033c9061137f565b80601f01602080910402602001604051908101604052809291908181526020018280546103689061137f565b80156103b55780601f1061038a576101008083540402835291602001916103b5565b820191906000526020600020905b81548152906001019060200180831161039857829003601f168201915b5050505050908060030160009054906101000a900473ffffffffffffffffffffffffffffffffffffffff16908060040154908060050154908060060154905087565b600060016000838152602001908152602001600020905080600401544210610454576040517f08c379a000000000000000000000000000000000000000000000000000000000815260040161044b906113fc565b60405180910390fd5b60003411610497576040517f08c379a000000000000000000000000000000000000000000000000000000000815260040161048e9061148e565b60405180910390fd5b60008160080160003373ffffffffffffffffffffffffffffffffffffffff1673ffffffffffffffffffffffffffffffffffffffff16815260200190815260200160002054036105465780600701339080600181540180825580915050600190039060005260206000200160009091909190916101000a81548173ffffffffffffffffffffffffffffffffffffffff021916908373ffffffffffffffffffffffffffffffffffffffff1602179055505b348160080160003373ffffffffffffffffffffffffffffffffffffffff1673ffffffffffffffffffffffffffffffffffffffff168152602001908152602001600020600082825461059791906114dd565b92505081905550348160050160008282546105b291906114dd565b925050819055503373ffffffffffffffffffffffffffffffffffffffff16827f4c02c80be6c71772191f402d476486fbe79b2160ee5fab9fd0572315e602df923460405161060091906112f5565b60405180910390a35050565b6000845111610650576040517f08c379a00000000000000000000000000000000000000000000000000000000081526004016106479061155d565b60405180910390fd5b6000835111610694576040517f08c379a000000000000000000000000000000000000000000000000000000000815260040161068b906115c9565b60405180910390fd5b600260008154809291906106a7906115e9565b919050555060006001600060025481526020019081526020016000209050848160000190816106d691906117d3565b50838160010190816106e891906117d3565b50828160020190816106fa91906117d3565b50338160030160006101000a81548173ffffffffffffffffffffffffffffffffffffffff021916908373ffffffffffffffffffffffffffffffffffffffff160217905550620151808261074d91906118a5565b4261075891906114dd565b81600401819055503373ffffffffffffffffffffffffffffffffffffffff167f16e3b2e051775c2ea42dc5c41a2fb6e50d2c45b11809a6e36e31e56353508c5d600254878785600401546040516107b294939291906118e7565b60405180910390a25050505050565b803373ffffffffffffffffffffffffffffffffffffffff166001600083815260200190815260200160002060030160009054906101000a900473ffffffffffffffffffffffffffffffffffffffff1673ffffffffffffffffffffffffffffffffffffffff1614610866576040517f08c379a000000000000000000000000000000000000000000000000000000000815260040161085d906119ac565b60405180910390fd5b600060016000848152602001908152602001600020905080600401544210156108c4576040517f08c379a00000000000000000000000000000000000000000000000000000000081526004016108bb90611a3e565b60405180910390fd5b600081600601541161090b576040517f08c379a000000000000000000000000000000000000000000000000000000000815260040161090290611aaa565b60405180910390fd5b6000816006015490506000826006018190555060008054906101000a900473ffffffffffffffffffffffffffffffffffffffff1673ffffffffffffffffffffffffffffffffffffffff1663a9059cbb8360030160009054906101000a900473ffffffffffffffffffffffffffffffffffffffff16836040518363ffffffff1660e01b815260040161099d929190611aca565b6020604051808303816000875af11580156109bc573d6000803e3d6000fd5b505050506040513d601f19601f820116820180604052508101906109e09190611b2b565b5050505050565b60025481565b803373ffffffffffffffffffffffffffffffffffffffff166001600083815260200190815260200160002060030160009054906101000a900473ffffffffffffffffffffffffffffffffffffffff1673ffffffffffffffffffffffffffffffffffffffff1614610a92576040517f08c379a0000000000000000000000000000000000000000000000000000000008152600401610a89906119ac565b60405180910390fd5b60006001600084815260200190815260200160002090508060040154421015610af0576040517f08c379a0000000000000000000000000000000000000000000000000000000008152600401610ae790611a3e565b60405180910390fd5b6000816005015411610b37576040517f08c379a0000000000000000000000000000000000000000000000000000000008152600401610b2e90611ba4565b60405180910390fd5b600081600501549050600082600501819055508160030160009054906101000a900473ffffffffffffffffffffffffffffffffffffffff1673ffffffffffffffffffffffffffffffffffffffff166108fc829081150290604051600060405180830381858888f19350505050158015610bb4573d6000803e3d6000fd5b5050505050565b600060016000848152602001908152602001600020905080600401544210610c18576040517f08c379a0000000000000000000000000000000000000000000000000000000008152600401610c0f906113fc565b60405180910390fd5b60008211610c5b576040517f08c379a0000000000000000000000000000000000000000000000000000000008152600401610c529061148e565b60405180910390fd5b60008054906101000a900473ffffffffffffffffffffffffffffffffffffffff1673ffffffffffffffffffffffffffffffffffffffff166323b872dd3330856040518463ffffffff1660e01b8152600401610cb893929190611bc4565b6020604051808303816000875af1158015610cd7573d6000803e3d6000fd5b505050506040513d601f19601f82011682018060405250810190610cfb9190611b2b565b610d3a576040517f08c379a0000000000000000000000000000000000000000000000000000000008152600401610d3190611c47565b60405180910390fd5b60008160090160003373ffffffffffffffffffffffffffffffffffffffff1673ffffffffffffffffffffffffffffffffffffffff1681526020019081526020016000205403610de95780600701339080600181540180825580915050600190039060005260206000200160009091909190916101000a81548173ffffffffffffffffffffffffffffffffffffffff021916908373ffffffffffffffffffffffffffffffffffffffff1602179055505b818160090160003373ffffffffffffffffffffffffffffffffffffffff1673ffffffffffffffffffffffffffffffffffffffff1681526020019081526020016000206000828254610e3a91906114dd565b9250508190555081816006016000828254610e5591906114dd565b925050819055503373ffffffffffffffffffffffffffffffffffffffff16837f6f4d1e8195a48d66972a2ff96aefe93730842dc39e4778e9a5600b078b7d6d7784604051610ea391906112f5565b60405180910390a3505050565b600073ffffffffffffffffffffffffffffffffffffffff82169050919050565b6000819050919050565b6000610ef5610ef0610eeb84610eb0565b610ed0565b610eb0565b9050919050565b6000610f0782610eda565b9050919050565b6000610f1982610efc565b9050919050565b610f2981610f0e565b82525050565b6000602082019050610f446000830184610f20565b92915050565b6000604051905090565b600080fd5b600080fd5b6000819050919050565b610f7181610f5e565b8114610f7c57600080fd5b50565b600081359050610f8e81610f68565b92915050565b600060208284031215610faa57610fa9610f54565b5b6000610fb884828501610f7f565b91505092915050565b600081519050919050565b600082825260208201905092915050565b60005b83811015610ffb578082015181840152602081019050610fe0565b60008484015250505050565b6000601f19601f8301169050919050565b600061102382610fc1565b61102d8185610fcc565b935061103d818560208601610fdd565b61104681611007565b840191505092915050565b600061105c82610eb0565b9050919050565b61106c81611051565b82525050565b61107b81610f5e565b82525050565b600060e082019050818103600083015261109b818a611018565b905081810360208301526110af8189611018565b905081810360408301526110c38188611018565b90506110d26060830187611063565b6110df6080830186611072565b6110ec60a0830185611072565b6110f960c0830184611072565b98975050505050505050565b600080fd5b600080fd5b7f4e487b7100000000000000000000000000000000000000000000000000000000600052604160045260246000fd5b61114782611007565b810181811067ffffffffffffffff821117156111665761116561110f565b5b80604052505050565b6000611179610f4a565b9050611185828261113e565b919050565b600067ffffffffffffffff8211156111a5576111a461110f565b5b6111ae82611007565b9050602081019050919050565b82818337600083830152505050565b60006111dd6111d88461118a565b61116f565b9050828152602081018484840111156111f9576111f861110a565b5b6112048482856111bb565b509392505050565b600082601f83011261122157611220611105565b5b81356112318482602086016111ca565b91505092915050565b6000806000806080858703121561125457611253610f54565b5b600085013567ffffffffffffffff81111561127257611271610f59565b5b61127e8782880161120c565b945050602085013567ffffffffffffffff81111561129f5761129e610f59565b5b6112ab8782880161120c565b935050604085013567ffffffffffffffff8111156112cc576112cb610f59565b5b6112d88782880161120c565b92505060606112e987828801610f7f565b91505092959194509250565b600060208201905061130a6000830184611072565b92915050565b6000806040838503121561132757611326610f54565b5b600061133585828601610f7f565b925050602061134685828601610f7f565b9150509250929050565b7f4e487b7100000000000000000000000000000000000000000000000000000000600052602260045260246000fd5b6000600282049050600182168061139757607f821691505b6020821081036113aa576113a9611350565b5b50919050565b7f43616d706169676e2068617320656e6465640000000000000000000000000000600082015250565b60006113e6601283610fcc565b91506113f1826113b0565b602082019050919050565b60006020820190508181036000830152611415816113d9565b9050919050565b7f446f6e6174696f6e20616d6f756e74206d75737420626520677265617465722060008201527f7468616e20300000000000000000000000000000000000000000000000000000602082015250565b6000611478602683610fcc565b91506114838261141c565b604082019050919050565b600060208201905081810360008301526114a78161146b565b9050919050565b7f4e487b7100000000000000000000000000000000000000000000000000000000600052601160045260246000fd5b60006114e882610f5e565b91506114f383610f5e565b925082820190508082111561150b5761150a6114ae565b5b92915050565b7f5469746c652063616e6e6f7420626520656d7074790000000000000000000000600082015250565b6000611547601583610fcc565b915061155282611511565b602082019050919050565b600060208201905081810360008301526115768161153a565b9050919050565b7f4465736372697074696f6e2063616e6e6f7420626520656d7074790000000000600082015250565b60006115b3601b83610fcc565b91506115be8261157d565b602082019050919050565b600060208201905081810360008301526115e2816115a6565b9050919050565b60006115f482610f5e565b91507fffffffffffffffffffffffffffffffffffffffffffffffffffffffffffffffff8203611626576116256114ae565b5b600182019050919050565b60008190508160005260206000209050919050565b60006020601f8301049050919050565b600082821b905092915050565b6000600883026116937fffffffffffffffffffffffffffffffffffffffffffffffffffffffffffffffff82611656565b61169d8683611656565b95508019841693508086168417925050509392505050565b60006116d06116cb6116c684610f5e565b610ed0565b610f5e565b9050919050565b6000819050919050565b6116ea836116b5565b6116fe6116f6826116d7565b848454611663565b825550505050565b600090565b611713611706565b61171e8184846116e1565b505050565b5b818110156117425761173760008261170b565b600181019050611724565b5050565b601f8211156117875761175881611631565b61176184611646565b81016020851015611770578190505b61178461177c85611646565b830182611723565b50505b505050565b600082821c905092915050565b60006117aa6000198460080261178c565b1980831691505092915050565b60006117c38383611799565b9150826002028217905092915050565b6117dc82610fc1565b67ffffffffffffffff8111156117f5576117f461110f565b5b6117ff825461137f565b61180a828285611746565b600060209050601f83116001811461183d576000841561182b578287015190505b61183585826117b7565b86555061189d565b601f19841661184b86611631565b60005b828110156118735784890151825560018201915060208501945060208101905061184e565b86831015611890578489015161188c601f891682611799565b8355505b6001600288020188555050505b505050505050565b60006118b082610f5e565b91506118bb83610f5e565b92508282026118c981610f5e565b915082820484148315176118e0576118df6114ae565b5b5092915050565b60006080820190506118fc6000830187611072565b818103602083015261190e8186611018565b905081810360408301526119228185611018565b90506119316060830184611072565b95945050505050565b7f4f6e6c79207468652063616d706169676e206f776e65722063616e207065726660008201527f6f726d207468697320616374696f6e0000000000000000000000000000000000602082015250565b6000611996602f83610fcc565b91506119a18261193a565b604082019050919050565b600060208201905081810360008301526119c581611989565b9050919050565b7f43616e6e6f74207769746864726177206265666f72652063616d706169676e2060008201527f656e647300000000000000000000000000000000000000000000000000000000602082015250565b6000611a28602483610fcc565b9150611a33826119cc565b604082019050919050565b60006020820190508181036000830152611a5781611a1b565b9050919050565b7f4e6f2050595553442066756e647320746f207769746864726177000000000000600082015250565b6000611a94601a83610fcc565b9150611a9f82611a5e565b602082019050919050565b60006020820190508181036000830152611ac381611a87565b9050919050565b6000604082019050611adf6000830185611063565b611aec6020830184611072565b9392505050565b60008115159050919050565b611b0881611af3565b8114611b1357600080fd5b50565b600081519050611b2581611aff565b92915050565b600060208284031215611b4157611b40610f54565b5b6000611b4f84828501611b16565b91505092915050565b7f4e6f204554482066756e647320746f2077697468647261770000000000000000600082015250565b6000611b8e601883610fcc565b9150611b9982611b58565b602082019050919050565b60006020820190508181036000830152611bbd81611b81565b9050919050565b6000606082019050611bd96000830186611063565b611be66020830185611063565b611bf36040830184611072565b949350505050565b7f546f6b656e207472616e73666572206661696c65640000000000000000000000600082015250565b6000611c31601583610fcc565b9150611c3c82611bfb565b602082019050919050565b60006020820190508181036000830152611c6081611c24565b905091905056fea2646970667358221220bbb243daaea284defbf9f5f5ab5e28c5131d535665d9724e6a1063a6b3810db164736f6c63430008180033",
  "linkReferences": {},
  "deployedLinkReferences": {}
}