{
  "_format": "hh-sol-artifact-1",
  "contractName": "JobContract",
  "sourceName": "contracts/JobContract.sol",
  "abi": [
    {
      "inputs": [],
      "stateMutability": "nonpayable",
      "type": "constructor"
    },
    {
      "inputs": [
        {
          "internalType": "address",
          "name": "owner",
          "type": "address"
        }
      ],
      "name": "OwnableInvalidOwner",
      "type": "error"
    },
    {
      "inputs": [
        {
          "internalType": "address",
          "name": "account",
          "type": "address"
        }
      ],
      "name": "OwnableUnauthorizedAccount",
      "type": "error"
    },
    {
      "anonymous": false,
      "inputs": [
        {
          "indexed": true,
          "internalType": "uint256",
          "name": "jobId",
          "type": "uint256"
        },
        {
          "indexed": true,
          "internalType": "address",
          "name": "employer",
          "type": "address"
        }
      ],
      "name": "JobClosed",
      "type": "event"
    },
    {
      "anonymous": false,
      "inputs": [
        {
          "indexed": true,
          "internalType": "uint256",
          "name": "jobId",
          "type": "uint256"
        },
        {
          "indexed": true,
          "internalType": "address",
          "name": "employer",
          "type": "address"
        },
        {
          "indexed": false,
          "internalType": "string",
          "name": "title",
          "type": "string"
        },
        {
          "indexed": false,
          "internalType": "string",
          "name": "location",
          "type": "string"
        }
      ],
      "name": "JobCreated",
      "type": "event"
    },
    {
      "anonymous": false,
      "inputs": [
        {
          "indexed": true,
          "internalType": "uint256",
          "name": "jobId",
          "type": "uint256"
        },
        {
          "indexed": false,
          "internalType": "string",
          "name": "title",
          "type": "string"
        },
        {
          "indexed": false,
          "internalType": "string",
          "name": "description",
          "type": "string"
        },
        {
          "indexed": false,
          "internalType": "string",
          "name": "salary",
          "type": "string"
        },
        {
          "indexed": false,
          "internalType": "string",
          "name": "location",
          "type": "string"
        }
      ],
      "name": "JobUpdated",
      "type": "event"
    },
    {
      "anonymous": false,
      "inputs": [
        {
          "indexed": true,
          "internalType": "address",
          "name": "previousOwner",
          "type": "address"
        },
        {
          "indexed": true,
          "internalType": "address",
          "name": "newOwner",
          "type": "address"
        }
      ],
      "name": "OwnershipTransferred",
      "type": "event"
    },
    {
      "inputs": [
        {
          "internalType": "uint256",
          "name": "_jobId",
          "type": "uint256"
        }
      ],
      "name": "closeJob",
      "outputs": [],
      "stateMutability": "nonpayable",
      "type": "function"
    },
    {
      "inputs": [
        {
          "internalType": "string",
          "name": "_title",
          "type": "string"
        },
        {
          "internalType": "string",
          "name": "_description",
          "type": "string"
        },
        {
          "internalType": "string",
          "name": "_salary",
          "type": "string"
        },
        {
          "internalType": "string",
          "name": "_location",
          "type": "string"
        }
      ],
      "name": "createJob",
      "outputs": [],
      "stateMutability": "nonpayable",
      "type": "function"
    },
    {
      "inputs": [
        {
          "internalType": "uint256",
          "name": "_jobId",
          "type": "uint256"
        }
      ],
      "name": "getJob",
      "outputs": [
        {
          "internalType": "string",
          "name": "",
          "type": "string"
        },
        {
          "internalType": "string",
          "name": "",
          "type": "string"
        },
        {
          "internalType": "string",
          "name": "",
          "type": "string"
        },
        {
          "internalType": "string",
          "name": "",
          "type": "string"
        },
        {
          "internalType": "address",
          "name": "",
          "type": "address"
        },
        {
          "internalType": "bool",
          "name": "",
          "type": "bool"
        }
      ],
      "stateMutability": "view",
      "type": "function"
    },
    {
      "inputs": [
        {
          "internalType": "address",
          "name": "_employer",
          "type": "address"
        }
      ],
      "name": "getJobsByEmployer",
      "outputs": [
        {
          "internalType": "uint256[]",
          "name": "",
          "type": "uint256[]"
        }
      ],
      "stateMutability": "view",
      "type": "function"
    },
    {
      "inputs": [],
      "name": "getTotalJobs",
      "outputs": [
        {
          "internalType": "uint256",
          "name": "",
          "type": "uint256"
        }
      ],
      "stateMutability": "view",
      "type": "function"
    },
    {
      "inputs": [
        {
          "internalType": "uint256",
          "name": "_jobId",
          "type": "uint256"
        }
      ],
      "name": "isJobOpen",
      "outputs": [
        {
          "internalType": "bool",
          "name": "",
          "type": "bool"
        }
      ],
      "stateMutability": "view",
      "type": "function"
    },
    {
      "inputs": [],
      "name": "owner",
      "outputs": [
        {
          "internalType": "address",
          "name": "",
          "type": "address"
        }
      ],
      "stateMutability": "view",
      "type": "function"
    },
    {
      "inputs": [],
      "name": "renounceOwnership",
      "outputs": [],
      "stateMutability": "nonpayable",
      "type": "function"
    },
    {
      "inputs": [
        {
          "internalType": "address",
          "name": "newOwner",
          "type": "address"
        }
      ],
      "name": "transferOwnership",
      "outputs": [],
      "stateMutability": "nonpayable",
      "type": "function"
    },
    {
      "inputs": [
        {
          "internalType": "uint256",
          "name": "_jobId",
          "type": "uint256"
        },
        {
          "internalType": "string",
          "name": "_title",
          "type": "string"
        },
        {
          "internalType": "string",
          "name": "_description",
          "type": "string"
        },
        {
          "internalType": "string",
          "name": "_salary",
          "type": "string"
        },
        {
          "internalType": "string",
          "name": "_location",
          "type": "string"
        }
      ],
      "name": "updateJob",
      "outputs": [],
      "stateMutability": "nonpayable",
      "type": "function"
    }
  ],
  "bytecode": "0x60806040523480156200001157600080fd5b5033600073ffffffffffffffffffffffffffffffffffffffff168173ffffffffffffffffffffffffffffffffffffffff1603620000885760006040517f1e4fbdf70000000000000000000000000000000000000000000000000000000081526004016200007f9190620001a9565b60405180910390fd5b6200009981620000a060201b60201c565b50620001c6565b60008060009054906101000a900473ffffffffffffffffffffffffffffffffffffffff169050816000806101000a81548173ffffffffffffffffffffffffffffffffffffffff021916908373ffffffffffffffffffffffffffffffffffffffff1602179055508173ffffffffffffffffffffffffffffffffffffffff168173ffffffffffffffffffffffffffffffffffffffff167f8be0079c531659141344cd1fd0a4f28419497f9722a3daafe3b4186f6b6457e060405160405180910390a35050565b600073ffffffffffffffffffffffffffffffffffffffff82169050919050565b6000620001918262000164565b9050919050565b620001a38162000184565b82525050565b6000602082019050620001c0600083018462000198565b92915050565b611dc080620001d66000396000f3fe608060405234801561001057600080fd5b506004361061009e5760003560e01c8063715018a611610066578063715018a6146101595780638da5cb5b14610163578063bf22c45714610181578063d56e7c54146101b6578063f2fde38b146101d25761009e565b80630a466b44146100a3578063129de6e5146100d35780631e01abca146101035780633aee79961461011f5780635af7e8351461013d575b600080fd5b6100bd60048036038101906100b8919061110f565b6101ee565b6040516100ca9190611157565b60405180910390f35b6100ed60048036038101906100e891906111d0565b610528565b6040516100fa91906112bb565b60405180910390f35b61011d6004803603810190610118919061110f565b6105bf565b005b610127610765565b60405161013491906112ec565b60405180910390f35b6101576004803603810190610152919061144d565b61076f565b005b61016161093e565b005b61016b610952565b6040516101789190611547565b60405180910390f35b61019b6004803603810190610196919061110f565b61097b565b6040516101ad969594939291906115e1565b60405180910390f35b6101d060048036038101906101cb919061165e565b610ce4565b005b6101ec60048036038101906101e791906111d0565b610eec565b005b600080600260008481526020019081526020016000206040518060e00160405290816000820154815260200160018201805461022990611764565b80601f016020809104026020016040519081016040528092919081815260200182805461025590611764565b80156102a25780601f10610277576101008083540402835291602001916102a2565b820191906000526020600020905b81548152906001019060200180831161028557829003601f168201915b505050505081526020016002820180546102bb90611764565b80601f01602080910402602001604051908101604052809291908181526020018280546102e790611764565b80156103345780601f1061030957610100808354040283529160200191610334565b820191906000526020600020905b81548152906001019060200180831161031757829003601f168201915b5050505050815260200160038201805461034d90611764565b80601f016020809104026020016040519081016040528092919081815260200182805461037990611764565b80156103c65780601f1061039b576101008083540402835291602001916103c6565b820191906000526020600020905b8154815290600101906020018083116103a957829003601f168201915b505050505081526020016004820180546103df90611764565b80601f016020809104026020016040519081016040528092919081815260200182805461040b90611764565b80156104585780601f1061042d57610100808354040283529160200191610458565b820191906000526020600020905b81548152906001019060200180831161043b57829003601f168201915b505050505081526020016005820160009054906101000a900473ffffffffffffffffffffffffffffffffffffffff1673ffffffffffffffffffffffffffffffffffffffff1673ffffffffffffffffffffffffffffffffffffffff1681526020016005820160149054906101000a900460ff1615151515815250509050600081600001510361051b576040517f08c379a0000000000000000000000000000000000000000000000000000000008152600401610512906117e1565b60405180910390fd5b8060c00151915050919050565b6060600360008373ffffffffffffffffffffffffffffffffffffffff1673ffffffffffffffffffffffffffffffffffffffff1681526020019081526020016000208054806020026020016040519081016040528092919081815260200182805480156105b357602002820191906000526020600020905b81548152602001906001019080831161059f575b50505050509050919050565b6000600260008381526020019081526020016000209050600081600001540361061d576040517f08c379a0000000000000000000000000000000000000000000000000000000008152600401610614906117e1565b60405180910390fd5b3373ffffffffffffffffffffffffffffffffffffffff168160050160009054906101000a900473ffffffffffffffffffffffffffffffffffffffff1673ffffffffffffffffffffffffffffffffffffffff16146106af576040517f08c379a00000000000000000000000000000000000000000000000000000000081526004016106a690611873565b60405180910390fd5b8060050160149054906101000a900460ff16610700576040517f08c379a00000000000000000000000000000000000000000000000000000000081526004016106f7906118df565b60405180910390fd5b60008160050160146101000a81548160ff0219169083151502179055503373ffffffffffffffffffffffffffffffffffffffff16827f225e8602d919485e9a54c796e7ceb40e6ad02e5bcc5dce07355d117713e5166c60405160405180910390a35050565b6000600154905090565b600060026000878152602001908152602001600020905060008160000154036107cd576040517f08c379a00000000000000000000000000000000000000000000000000000000081526004016107c4906117e1565b60405180910390fd5b3373ffffffffffffffffffffffffffffffffffffffff168160050160009054906101000a900473ffffffffffffffffffffffffffffffffffffffff1673ffffffffffffffffffffffffffffffffffffffff161461085f576040517f08c379a000000000000000000000000000000000000000000000000000000000815260040161085690611971565b60405180910390fd5b8060050160149054906101000a900460ff166108b0576040517f08c379a00000000000000000000000000000000000000000000000000000000081526004016108a7906119dd565b60405180910390fd5b848160010190816108c19190611ba9565b50838160020190816108d39190611ba9565b50828160030190816108e59190611ba9565b50818160040190816108f79190611ba9565b50857f86e090c37373aac0849df446095e7c26078d7e52a2d11ac5027256e941d24ae38686868660405161092e9493929190611c7b565b60405180910390a2505050505050565b610946610f72565b6109506000610ff9565b565b60008060009054906101000a900473ffffffffffffffffffffffffffffffffffffffff16905090565b6060806060806000806000600260008981526020019081526020016000206040518060e0016040529081600082015481526020016001820180546109be90611764565b80601f01602080910402602001604051908101604052809291908181526020018280546109ea90611764565b8015610a375780601f10610a0c57610100808354040283529160200191610a37565b820191906000526020600020905b815481529060010190602001808311610a1a57829003601f168201915b50505050508152602001600282018054610a5090611764565b80601f0160208091040260200160405190810160405280929190818152602001828054610a7c90611764565b8015610ac95780601f10610a9e57610100808354040283529160200191610ac9565b820191906000526020600020905b815481529060010190602001808311610aac57829003601f168201915b50505050508152602001600382018054610ae290611764565b80601f0160208091040260200160405190810160405280929190818152602001828054610b0e90611764565b8015610b5b5780601f10610b3057610100808354040283529160200191610b5b565b820191906000526020600020905b815481529060010190602001808311610b3e57829003601f168201915b50505050508152602001600482018054610b7490611764565b80601f0160208091040260200160405190810160405280929190818152602001828054610ba090611764565b8015610bed5780601f10610bc257610100808354040283529160200191610bed565b820191906000526020600020905b815481529060010190602001808311610bd057829003601f168201915b505050505081526020016005820160009054906101000a900473ffffffffffffffffffffffffffffffffffffffff1673ffffffffffffffffffffffffffffffffffffffff1673ffffffffffffffffffffffffffffffffffffffff1681526020016005820160149054906101000a900460ff16151515158152505090506000816000015103610cb0576040517f08c379a0000000000000000000000000000000000000000000000000000000008152600401610ca7906117e1565b60405180910390fd5b80602001518160400151826060015183608001518460a001518560c001519650965096509650965096505091939550919395565b60016000815480929190610cf790611d0b565b91905055506040518060e0016040528060015481526020018581526020018481526020018381526020018281526020013373ffffffffffffffffffffffffffffffffffffffff16815260200160011515815250600260006001548152602001908152602001600020600082015181600001556020820151816001019081610d7e9190611ba9565b506040820151816002019081610d949190611ba9565b506060820151816003019081610daa9190611ba9565b506080820151816004019081610dc09190611ba9565b5060a08201518160050160006101000a81548173ffffffffffffffffffffffffffffffffffffffff021916908373ffffffffffffffffffffffffffffffffffffffff16021790555060c08201518160050160146101000a81548160ff021916908315150217905550905050600360003373ffffffffffffffffffffffffffffffffffffffff1673ffffffffffffffffffffffffffffffffffffffff16815260200190815260200160002060015490806001815401808255809150506001900390600052602060002001600090919091909150553373ffffffffffffffffffffffffffffffffffffffff166001547fdb0e53cf1ba8d0dd9501cd0e39598c756bbe3aef33171e31a6edae03d5e4043b8684604051610ede929190611d53565b60405180910390a350505050565b610ef4610f72565b600073ffffffffffffffffffffffffffffffffffffffff168173ffffffffffffffffffffffffffffffffffffffff1603610f665760006040517f1e4fbdf7000000000000000000000000000000000000000000000000000000008152600401610f5d9190611547565b60405180910390fd5b610f6f81610ff9565b50565b610f7a6110bd565b73ffffffffffffffffffffffffffffffffffffffff16610f98610952565b73ffffffffffffffffffffffffffffffffffffffff1614610ff757610fbb6110bd565b6040517f118cdaa7000000000000000000000000000000000000000000000000000000008152600401610fee9190611547565b60405180910390fd5b565b60008060009054906101000a900473ffffffffffffffffffffffffffffffffffffffff169050816000806101000a81548173ffffffffffffffffffffffffffffffffffffffff021916908373ffffffffffffffffffffffffffffffffffffffff1602179055508173ffffffffffffffffffffffffffffffffffffffff168173ffffffffffffffffffffffffffffffffffffffff167f8be0079c531659141344cd1fd0a4f28419497f9722a3daafe3b4186f6b6457e060405160405180910390a35050565b600033905090565b6000604051905090565b600080fd5b600080fd5b6000819050919050565b6110ec816110d9565b81146110f757600080fd5b50565b600081359050611109816110e3565b92915050565b600060208284031215611125576111246110cf565b5b6000611133848285016110fa565b91505092915050565b60008115159050919050565b6111518161113c565b82525050565b600060208201905061116c6000830184611148565b92915050565b600073ffffffffffffffffffffffffffffffffffffffff82169050919050565b600061119d82611172565b9050919050565b6111ad81611192565b81146111b857600080fd5b50565b6000813590506111ca816111a4565b92915050565b6000602082840312156111e6576111e56110cf565b5b60006111f4848285016111bb565b91505092915050565b600081519050919050565b600082825260208201905092915050565b6000819050602082019050919050565b611232816110d9565b82525050565b60006112448383611229565b60208301905092915050565b6000602082019050919050565b6000611268826111fd565b6112728185611208565b935061127d83611219565b8060005b838110156112ae5781516112958882611238565b97506112a083611250565b925050600181019050611281565b5085935050505092915050565b600060208201905081810360008301526112d5818461125d565b905092915050565b6112e6816110d9565b82525050565b600060208201905061130160008301846112dd565b92915050565b600080fd5b600080fd5b6000601f19601f8301169050919050565b7f4e487b7100000000000000000000000000000000000000000000000000000000600052604160045260246000fd5b61135a82611311565b810181811067ffffffffffffffff8211171561137957611378611322565b5b80604052505050565b600061138c6110c5565b90506113988282611351565b919050565b600067ffffffffffffffff8211156113b8576113b7611322565b5b6113c182611311565b9050602081019050919050565b82818337600083830152505050565b60006113f06113eb8461139d565b611382565b90508281526020810184848401111561140c5761140b61130c565b5b6114178482856113ce565b509392505050565b600082601f83011261143457611433611307565b5b81356114448482602086016113dd565b91505092915050565b600080600080600060a08688031215611469576114686110cf565b5b6000611477888289016110fa565b955050602086013567ffffffffffffffff811115611498576114976110d4565b5b6114a48882890161141f565b945050604086013567ffffffffffffffff8111156114c5576114c46110d4565b5b6114d18882890161141f565b935050606086013567ffffffffffffffff8111156114f2576114f16110d4565b5b6114fe8882890161141f565b925050608086013567ffffffffffffffff81111561151f5761151e6110d4565b5b61152b8882890161141f565b9150509295509295909350565b61154181611192565b82525050565b600060208201905061155c6000830184611538565b92915050565b600081519050919050565b600082825260208201905092915050565b60005b8381101561159c578082015181840152602081019050611581565b60008484015250505050565b60006115b382611562565b6115bd818561156d565b93506115cd81856020860161157e565b6115d681611311565b840191505092915050565b600060c08201905081810360008301526115fb81896115a8565b9050818103602083015261160f81886115a8565b9050818103604083015261162381876115a8565b9050818103606083015261163781866115a8565b90506116466080830185611538565b61165360a0830184611148565b979650505050505050565b60008060008060808587031215611678576116776110cf565b5b600085013567ffffffffffffffff811115611696576116956110d4565b5b6116a28782880161141f565b945050602085013567ffffffffffffffff8111156116c3576116c26110d4565b5b6116cf8782880161141f565b935050604085013567ffffffffffffffff8111156116f0576116ef6110d4565b5b6116fc8782880161141f565b925050606085013567ffffffffffffffff81111561171d5761171c6110d4565b5b6117298782880161141f565b91505092959194509250565b7f4e487b7100000000000000000000000000000000000000000000000000000000600052602260045260246000fd5b6000600282049050600182168061177c57607f821691505b60208210810361178f5761178e611735565b5b50919050565b7f4a6f6220646f6573206e6f742065786973740000000000000000000000000000600082015250565b60006117cb60128361156d565b91506117d682611795565b602082019050919050565b600060208201905081810360008301526117fa816117be565b9050919050565b7f4f6e6c792074686520656d706c6f7965722063616e20636c6f7365207468697360008201527f206a6f6200000000000000000000000000000000000000000000000000000000602082015250565b600061185d60248361156d565b915061186882611801565b604082019050919050565b6000602082019050818103600083015261188c81611850565b9050919050565b7f4a6f6220697320616c726561647920636c6f7365640000000000000000000000600082015250565b60006118c960158361156d565b91506118d482611893565b602082019050919050565b600060208201905081810360008301526118f8816118bc565b9050919050565b7f4f6e6c792074686520656d706c6f7965722063616e207570646174652074686960008201527f73206a6f62000000000000000000000000000000000000000000000000000000602082015250565b600061195b60258361156d565b9150611966826118ff565b604082019050919050565b6000602082019050818103600083015261198a8161194e565b9050919050565b7f4a6f6220697320636c6f73656400000000000000000000000000000000000000600082015250565b60006119c7600d8361156d565b91506119d282611991565b602082019050919050565b600060208201905081810360008301526119f6816119ba565b9050919050565b60008190508160005260206000209050919050565b60006020601f8301049050919050565b600082821b905092915050565b600060088302611a5f7fffffffffffffffffffffffffffffffffffffffffffffffffffffffffffffffff82611a22565b611a698683611a22565b95508019841693508086168417925050509392505050565b6000819050919050565b6000611aa6611aa1611a9c846110d9565b611a81565b6110d9565b9050919050565b6000819050919050565b611ac083611a8b565b611ad4611acc82611aad565b848454611a2f565b825550505050565b600090565b611ae9611adc565b611af4818484611ab7565b505050565b5b81811015611b1857611b0d600082611ae1565b600181019050611afa565b5050565b601f821115611b5d57611b2e816119fd565b611b3784611a12565b81016020851015611b46578190505b611b5a611b5285611a12565b830182611af9565b50505b505050565b600082821c905092915050565b6000611b8060001984600802611b62565b1980831691505092915050565b6000611b998383611b6f565b9150826002028217905092915050565b611bb282611562565b67ffffffffffffffff811115611bcb57611bca611322565b5b611bd58254611764565b611be0828285611b1c565b600060209050601f831160018114611c135760008415611c01578287015190505b611c0b8582611b8d565b865550611c73565b601f198416611c21866119fd565b60005b82811015611c4957848901518255600182019150602085019450602081019050611c24565b86831015611c665784890151611c62601f891682611b6f565b8355505b6001600288020188555050505b505050505050565b60006080820190508181036000830152611c9581876115a8565b90508181036020830152611ca981866115a8565b90508181036040830152611cbd81856115a8565b90508181036060830152611cd181846115a8565b905095945050505050565b7f4e487b7100000000000000000000000000000000000000000000000000000000600052601160045260246000fd5b6000611d16826110d9565b91507fffffffffffffffffffffffffffffffffffffffffffffffffffffffffffffffff8203611d4857611d47611cdc565b5b600182019050919050565b60006040820190508181036000830152611d6d81856115a8565b90508181036020830152611d8181846115a8565b9050939250505056fea2646970667358221220916dd948583bd355355084f7eecc1bc10749b9374b3c5004b1a4ae254670848d64736f6c63430008180033",
  "linkReferences": {},
  "deployedLinkReferences": {}
}