{
  "_format": "hh-sol-artifact-1",
  "contractName": "HelloPYUSD",
  "sourceName": "contracts/HelloPYUSD.sol",
  "abi": [
    {
      "inputs": [
        {
          "internalType": "address",
          "name": "_mintToken",
          "type": "address"
        },
        {
          "internalType": "uint256",
          "name": "_mintPrice",
          "type": "uint256"
        }
      ],
      "stateMutability": "nonpayable",
      "type": "constructor"
    },
    {
      "inputs": [
        {
          "internalType": "address",
          "name": "sender",
          "type": "address"
        },
        {
          "internalType": "uint256",
          "name": "tokenId",
          "type": "uint256"
        },
        {
          "internalType": "address",
          "name": "owner",
          "type": "address"
        }
      ],
      "name": "ERC721IncorrectOwner",
      "type": "error"
    },
    {
      "inputs": [
        {
          "internalType": "address",
          "name": "operator",
          "type": "address"
        },
        {
          "internalType": "uint256",
          "name": "tokenId",
          "type": "uint256"
        }
      ],
      "name": "ERC721InsufficientApproval",
      "type": "error"
    },
    {
      "inputs": [
        {
          "internalType": "address",
          "name": "approver",
          "type": "address"
        }
      ],
      "name": "ERC721InvalidApprover",
      "type": "error"
    },
    {
      "inputs": [
        {
          "internalType": "address",
          "name": "operator",
          "type": "address"
        }
      ],
      "name": "ERC721InvalidOperator",
      "type": "error"
    },
    {
      "inputs": [
        {
          "internalType": "address",
          "name": "owner",
          "type": "address"
        }
      ],
      "name": "ERC721InvalidOwner",
      "type": "error"
    },
    {
      "inputs": [
        {
          "internalType": "address",
          "name": "receiver",
          "type": "address"
        }
      ],
      "name": "ERC721InvalidReceiver",
      "type": "error"
    },
    {
      "inputs": [
        {
          "internalType": "address",
          "name": "sender",
          "type": "address"
        }
      ],
      "name": "ERC721InvalidSender",
      "type": "error"
    },
    {
      "inputs": [
        {
          "internalType": "uint256",
          "name": "tokenId",
          "type": "uint256"
        }
      ],
      "name": "ERC721NonexistentToken",
      "type": "error"
    },
    {
      "inputs": [
        {
          "internalType": "address",
          "name": "owner",
          "type": "address"
        }
      ],
      "name": "OwnableInvalidOwner",
      "type": "error"
    },
    {
      "inputs": [
        {
          "internalType": "address",
          "name": "account",
          "type": "address"
        }
      ],
      "name": "OwnableUnauthorizedAccount",
      "type": "error"
    },
    {
      "anonymous": false,
      "inputs": [
        {
          "indexed": true,
          "internalType": "address",
          "name": "owner",
          "type": "address"
        },
        {
          "indexed": true,
          "internalType": "address",
          "name": "approved",
          "type": "address"
        },
        {
          "indexed": true,
          "internalType": "uint256",
          "name": "tokenId",
          "type": "uint256"
        }
      ],
      "name": "Approval",
      "type": "event"
    },
    {
      "anonymous": false,
      "inputs": [
        {
          "indexed": true,
          "internalType": "address",
          "name": "owner",
          "type": "address"
        },
        {
          "indexed": true,
          "internalType": "address",
          "name": "operator",
          "type": "address"
        },
        {
          "indexed": false,
          "internalType": "bool",
          "name": "approved",
          "type": "bool"
        }
      ],
      "name": "ApprovalForAll",
      "type": "event"
    },
    {
      "anonymous": false,
      "inputs": [
        {
          "indexed": false,
          "internalType": "uint256",
          "name": "_fromTokenId",
          "type": "uint256"
        },
        {
          "indexed": false,
          "internalType": "uint256",
          "name": "_toTokenId",
          "type": "uint256"
        }
      ],
      "name": "BatchMetadataUpdate",
      "type": "event"
    },
    {
      "anonymous": false,
      "inputs": [
        {
          "indexed": false,
          "internalType": "uint256",
          "name": "_tokenId",
          "type": "uint256"
        }
      ],
      "name": "MetadataUpdate",
      "type": "event"
    },
    {
      "anonymous": false,
      "inputs": [
        {
          "indexed": true,
          "internalType": "address",
          "name": "previousOwner",
          "type": "address"
        },
        {
          "indexed": true,
          "internalType": "address",
          "name": "newOwner",
          "type": "address"
        }
      ],
      "name": "OwnershipTransferred",
      "type": "event"
    },
    {
      "anonymous": false,
      "inputs": [
        {
          "indexed": true,
          "internalType": "address",
          "name": "from",
          "type": "address"
        },
        {
          "indexed": true,
          "internalType": "address",
          "name": "to",
          "type": "address"
        },
        {
          "indexed": true,
          "internalType": "uint256",
          "name": "tokenId",
          "type": "uint256"
        }
      ],
      "name": "Transfer",
      "type": "event"
    },
    {
      "inputs": [
        {
          "internalType": "address",
          "name": "to",
          "type": "address"
        },
        {
          "internalType": "uint256",
          "name": "tokenId",
          "type": "uint256"
        }
      ],
      "name": "approve",
      "outputs": [],
      "stateMutability": "nonpayable",
      "type": "function"
    },
    {
      "inputs": [
        {
          "internalType": "address",
          "name": "owner",
          "type": "address"
        }
      ],
      "name": "balanceOf",
      "outputs": [
        {
          "internalType": "uint256",
          "name": "",
          "type": "uint256"
        }
      ],
      "stateMutability": "view",
      "type": "function"
    },
    {
      "inputs": [
        {
          "internalType": "uint256",
          "name": "tokenId",
          "type": "uint256"
        }
      ],
      "name": "getApproved",
      "outputs": [
        {
          "internalType": "address",
          "name": "",
          "type": "address"
        }
      ],
      "stateMutability": "view",
      "type": "function"
    },
    {
      "inputs": [
        {
          "internalType": "address",
          "name": "owner",
          "type": "address"
        },
        {
          "internalType": "address",
          "name": "operator",
          "type": "address"
        }
      ],
      "name": "isApprovedForAll",
      "outputs": [
        {
          "internalType": "bool",
          "name": "",
          "type": "bool"
        }
      ],
      "stateMutability": "view",
      "type": "function"
    },
    {
      "inputs": [
        {
          "internalType": "string",
          "name": "newTokenURI",
          "type": "string"
        }
      ],
      "name": "mint",
      "outputs": [],
      "stateMutability": "nonpayable",
      "type": "function"
    },
    {
      "inputs": [],
      "name": "mintPrice",
      "outputs": [
        {
          "internalType": "uint256",
          "name": "",
          "type": "uint256"
        }
      ],
      "stateMutability": "view",
      "type": "function"
    },
    {
      "inputs": [],
      "name": "mintToken",
      "outputs": [
        {
          "internalType": "contract IERC20",
          "name": "",
          "type": "address"
        }
      ],
      "stateMutability": "view",
      "type": "function"
    },
    {
      "inputs": [],
      "name": "name",
      "outputs": [
        {
          "internalType": "string",
          "name": "",
          "type": "string"
        }
      ],
      "stateMutability": "view",
      "type": "function"
    },
    {
      "inputs": [],
      "name": "owner",
      "outputs": [
        {
          "internalType": "address",
          "name": "",
          "type": "address"
        }
      ],
      "stateMutability": "view",
      "type": "function"
    },
    {
      "inputs": [
        {
          "internalType": "uint256",
          "name": "tokenId",
          "type": "uint256"
        }
      ],
      "name": "ownerOf",
      "outputs": [
        {
          "internalType": "address",
          "name": "",
          "type": "address"
        }
      ],
      "stateMutability": "view",
      "type": "function"
    },
    {
      "inputs": [],
      "name": "renounceOwnership",
      "outputs": [],
      "stateMutability": "nonpayable",
      "type": "function"
    },
    {
      "inputs": [
        {
          "internalType": "address",
          "name": "from",
          "type": "address"
        },
        {
          "internalType": "address",
          "name": "to",
          "type": "address"
        },
        {
          "internalType": "uint256",
          "name": "tokenId",
          "type": "uint256"
        }
      ],
      "name": "safeTransferFrom",
      "outputs": [],
      "stateMutability": "nonpayable",
      "type": "function"
    },
    {
      "inputs": [
        {
          "internalType": "address",
          "name": "from",
          "type": "address"
        },
        {
          "internalType": "address",
          "name": "to",
          "type": "address"
        },
        {
          "internalType": "uint256",
          "name": "tokenId",
          "type": "uint256"
        },
        {
          "internalType": "bytes",
          "name": "data",
          "type": "bytes"
        }
      ],
      "name": "safeTransferFrom",
      "outputs": [],
      "stateMutability": "nonpayable",
      "type": "function"
    },
    {
      "inputs": [
        {
          "internalType": "address",
          "name": "operator",
          "type": "address"
        },
        {
          "internalType": "bool",
          "name": "approved",
          "type": "bool"
        }
      ],
      "name": "setApprovalForAll",
      "outputs": [],
      "stateMutability": "nonpayable",
      "type": "function"
    },
    {
      "inputs": [
        {
          "internalType": "bytes4",
          "name": "interfaceId",
          "type": "bytes4"
        }
      ],
      "name": "supportsInterface",
      "outputs": [
        {
          "internalType": "bool",
          "name": "",
          "type": "bool"
        }
      ],
      "stateMutability": "view",
      "type": "function"
    },
    {
      "inputs": [],
      "name": "symbol",
      "outputs": [
        {
          "internalType": "string",
          "name": "",
          "type": "string"
        }
      ],
      "stateMutability": "view",
      "type": "function"
    },
    {
      "inputs": [
        {
          "internalType": "uint256",
          "name": "tokenId",
          "type": "uint256"
        }
      ],
      "name": "tokenURI",
      "outputs": [
        {
          "internalType": "string",
          "name": "",
          "type": "string"
        }
      ],
      "stateMutability": "view",
      "type": "function"
    },
    {
      "inputs": [],
      "name": "totalIssued",
      "outputs": [
        {
          "internalType": "uint256",
          "name": "",
          "type": "uint256"
        }
      ],
      "stateMutability": "view",
      "type": "function"
    },
    {
      "inputs": [
        {
          "internalType": "address",
          "name": "from",
          "type": "address"
        },
        {
          "internalType": "address",
          "name": "to",
          "type": "address"
        },
        {
          "internalType": "uint256",
          "name": "tokenId",
          "type": "uint256"
        }
      ],
      "name": "transferFrom",
      "outputs": [],
      "stateMutability": "nonpayable",
      "type": "function"
    },
    {
      "inputs": [
        {
          "internalType": "address",
          "name": "newOwner",
          "type": "address"
        }
      ],
      "name": "transferOwnership",
      "outputs": [],
      "stateMutability": "nonpayable",
      "type": "function"
    },
    {
      "inputs": [
        {
          "internalType": "address",
          "name": "token",
          "type": "address"
        },
        {
          "internalType": "address",
          "name": "to",
          "type": "address"
        }
      ],
      "name": "withdrawToken",
      "outputs": [],
      "stateMutability": "nonpayable",
      "type": "function"
    }
  ],
  "bytecode": "0x60c06040523480156200001157600080fd5b50604051620031d6380380620031d6833981810160405281019062000037919062000300565b336040518060400160405280600a81526020017f48656c6c6f5059555344000000000000000000000000000000000000000000008152506040518060400160405280600681526020017f48495059504c00000000000000000000000000000000000000000000000000008152508160009081620000b59190620005b7565b508060019081620000c79190620005b7565b505050600073ffffffffffffffffffffffffffffffffffffffff168173ffffffffffffffffffffffffffffffffffffffff16036200013f5760006040517f1e4fbdf7000000000000000000000000000000000000000000000000000000008152600401620001369190620006af565b60405180910390fd5b62000150816200019560201b60201c565b508173ffffffffffffffffffffffffffffffffffffffff1660808173ffffffffffffffffffffffffffffffffffffffff16815250508060a081815250505050620006cc565b6000600760009054906101000a900473ffffffffffffffffffffffffffffffffffffffff16905081600760006101000a81548173ffffffffffffffffffffffffffffffffffffffff021916908373ffffffffffffffffffffffffffffffffffffffff1602179055508173ffffffffffffffffffffffffffffffffffffffff168173ffffffffffffffffffffffffffffffffffffffff167f8be0079c531659141344cd1fd0a4f28419497f9722a3daafe3b4186f6b6457e060405160405180910390a35050565b600080fd5b600073ffffffffffffffffffffffffffffffffffffffff82169050919050565b60006200028d8262000260565b9050919050565b6200029f8162000280565b8114620002ab57600080fd5b50565b600081519050620002bf8162000294565b92915050565b6000819050919050565b620002da81620002c5565b8114620002e657600080fd5b50565b600081519050620002fa81620002cf565b92915050565b600080604083850312156200031a57620003196200025b565b5b60006200032a85828601620002ae565b92505060206200033d85828601620002e9565b9150509250929050565b600081519050919050565b7f4e487b7100000000000000000000000000000000000000000000000000000000600052604160045260246000fd5b7f4e487b7100000000000000000000000000000000000000000000000000000000600052602260045260246000fd5b60006002820490506001821680620003c957607f821691505b602082108103620003df57620003de62000381565b5b50919050565b60008190508160005260206000209050919050565b60006020601f8301049050919050565b600082821b905092915050565b600060088302620004497fffffffffffffffffffffffffffffffffffffffffffffffffffffffffffffffff826200040a565b6200045586836200040a565b95508019841693508086168417925050509392505050565b6000819050919050565b600062000498620004926200048c84620002c5565b6200046d565b620002c5565b9050919050565b6000819050919050565b620004b48362000477565b620004cc620004c3826200049f565b84845462000417565b825550505050565b600090565b620004e3620004d4565b620004f0818484620004a9565b505050565b5b8181101562000518576200050c600082620004d9565b600181019050620004f6565b5050565b601f82111562000567576200053181620003e5565b6200053c84620003fa565b810160208510156200054c578190505b620005646200055b85620003fa565b830182620004f5565b50505b505050565b600082821c905092915050565b60006200058c600019846008026200056c565b1980831691505092915050565b6000620005a7838362000579565b9150826002028217905092915050565b620005c28262000347565b67ffffffffffffffff811115620005de57620005dd62000352565b5b620005ea8254620003b0565b620005f78282856200051c565b600060209050601f8311600181146200062f57600084156200061a578287015190505b62000626858262000599565b86555062000696565b601f1984166200063f86620003e5565b60005b82811015620006695784890151825560018201915060208501945060208101905062000642565b8683101562000689578489015162000685601f89168262000579565b8355505b6001600288020188555050505b505050505050565b620006a98162000280565b82525050565b6000602082019050620006c660008301846200069e565b92915050565b60805160a051612ad6620007006000396000818161077d0152610ab70152600081816105210152610a790152612ad66000f3fe608060405234801561001057600080fd5b50600436106101375760003560e01c806370a08231116100b8578063b88d4fde1161007c578063b88d4fde14610328578063c87b56dd14610344578063d85d3d2714610374578063e985e9c514610390578063f2fde38b146103c0578063f5be3193146103dc57610137565b806370a0823114610296578063715018a6146102c65780638da5cb5b146102d057806395d89b41146102ee578063a22cb4651461030c57610137565b806323b872dd116100ff57806323b872dd146101f45780633aeac4e11461021057806342842e0e1461022c5780636352211e146102485780636817c76c1461027857610137565b806301ffc9a71461013c57806306fdde031461016c578063081812fc1461018a578063095ea7b3146101ba5780632004ffd9146101d6575b600080fd5b61015660048036038101906101519190611daa565b6103fa565b6040516101639190611df2565b60405180910390f35b61017461045b565b6040516101819190611e9d565b60405180910390f35b6101a4600480360381019061019f9190611ef5565b6104ed565b6040516101b19190611f63565b60405180910390f35b6101d460048036038101906101cf9190611faa565b610509565b005b6101de61051f565b6040516101eb9190612049565b60405180910390f35b61020e60048036038101906102099190612064565b610543565b005b61022a600480360381019061022591906120b7565b610645565b005b61024660048036038101906102419190612064565b610749565b005b610262600480360381019061025d9190611ef5565b610769565b60405161026f9190611f63565b60405180910390f35b61028061077b565b60405161028d9190612106565b60405180910390f35b6102b060048036038101906102ab9190612121565b61079f565b6040516102bd9190612106565b60405180910390f35b6102ce610859565b005b6102d861086d565b6040516102e59190611f63565b60405180910390f35b6102f6610897565b6040516103039190611e9d565b60405180910390f35b6103266004803603810190610321919061217a565b610929565b005b610342600480360381019061033d91906122ef565b61093f565b005b61035e60048036038101906103599190611ef5565b610964565b60405161036b9190611e9d565b60405180910390f35b61038e60048036038101906103899190612413565b610a77565b005b6103aa60048036038101906103a591906120b7565b610bad565b6040516103b79190611df2565b60405180910390f35b6103da60048036038101906103d59190612121565b610c41565b005b6103e4610cc7565b6040516103f19190612106565b60405180910390f35b6000634906490660e01b7bffffffffffffffffffffffffffffffffffffffffffffffffffffffff1916827bffffffffffffffffffffffffffffffffffffffffffffffffffffffff19161480610454575061045382610ccd565b5b9050919050565b60606000805461046a9061248b565b80601f01602080910402602001604051908101604052809291908181526020018280546104969061248b565b80156104e35780601f106104b8576101008083540402835291602001916104e3565b820191906000526020600020905b8154815290600101906020018083116104c657829003601f168201915b5050505050905090565b60006104f882610daf565b5061050282610e37565b9050919050565b61051b8282610516610e74565b610e7c565b5050565b7f000000000000000000000000000000000000000000000000000000000000000081565b600073ffffffffffffffffffffffffffffffffffffffff168273ffffffffffffffffffffffffffffffffffffffff16036105b55760006040517f64a0ae920000000000000000000000000000000000000000000000000000000081526004016105ac9190611f63565b60405180910390fd5b60006105c983836105c4610e74565b610e8e565b90508373ffffffffffffffffffffffffffffffffffffffff168173ffffffffffffffffffffffffffffffffffffffff161461063f578382826040517f64283d7b000000000000000000000000000000000000000000000000000000008152600401610636939291906124bc565b60405180910390fd5b50505050565b61064d6110a8565b8173ffffffffffffffffffffffffffffffffffffffff1663a9059cbb828473ffffffffffffffffffffffffffffffffffffffff166370a08231306040518263ffffffff1660e01b81526004016106a39190611f63565b602060405180830381865afa1580156106c0573d6000803e3d6000fd5b505050506040513d601f19601f820116820180604052508101906106e49190612508565b6040518363ffffffff1660e01b8152600401610701929190612535565b6020604051808303816000875af1158015610720573d6000803e3d6000fd5b505050506040513d601f19601f820116820180604052508101906107449190612573565b505050565b6107648383836040518060200160405280600081525061093f565b505050565b600061077482610daf565b9050919050565b7f000000000000000000000000000000000000000000000000000000000000000081565b60008073ffffffffffffffffffffffffffffffffffffffff168273ffffffffffffffffffffffffffffffffffffffff16036108125760006040517f89c62b640000000000000000000000000000000000000000000000000000000081526004016108099190611f63565b60405180910390fd5b600360008373ffffffffffffffffffffffffffffffffffffffff1673ffffffffffffffffffffffffffffffffffffffff168152602001908152602001600020549050919050565b6108616110a8565b61086b600061112f565b565b6000600760009054906101000a900473ffffffffffffffffffffffffffffffffffffffff16905090565b6060600180546108a69061248b565b80601f01602080910402602001604051908101604052809291908181526020018280546108d29061248b565b801561091f5780601f106108f45761010080835404028352916020019161091f565b820191906000526020600020905b81548152906001019060200180831161090257829003601f168201915b5050505050905090565b61093b610934610e74565b83836111f5565b5050565b61094a848484610543565b61095e610955610e74565b85858585611364565b50505050565b606061096f82610daf565b5060006006600084815260200190815260200160002080546109909061248b565b80601f01602080910402602001604051908101604052809291908181526020018280546109bc9061248b565b8015610a095780601f106109de57610100808354040283529160200191610a09565b820191906000526020600020905b8154815290600101906020018083116109ec57829003601f168201915b505050505090506000610a1a611515565b90506000815103610a2f578192505050610a72565b600082511115610a64578082604051602001610a4c9291906125dc565b60405160208183030381529060405292505050610a72565b610a6d8461152c565b925050505b919050565b7f000000000000000000000000000000000000000000000000000000000000000073ffffffffffffffffffffffffffffffffffffffff166323b872dd33307f00000000000000000000000000000000000000000000000000000000000000006040518463ffffffff1660e01b8152600401610af493929190612600565b6020604051808303816000875af1158015610b13573d6000803e3d6000fd5b505050506040513d601f19601f82011682018060405250810190610b379190612573565b610b76576040517f08c379a0000000000000000000000000000000000000000000000000000000008152600401610b6d90612683565b60405180910390fd5b6000600854905060086000815480929190610b90906126d2565b9190505550610b9f3382611595565b610ba981836115b3565b5050565b6000600560008473ffffffffffffffffffffffffffffffffffffffff1673ffffffffffffffffffffffffffffffffffffffff16815260200190815260200160002060008373ffffffffffffffffffffffffffffffffffffffff1673ffffffffffffffffffffffffffffffffffffffff16815260200190815260200160002060009054906101000a900460ff16905092915050565b610c496110a8565b600073ffffffffffffffffffffffffffffffffffffffff168173ffffffffffffffffffffffffffffffffffffffff1603610cbb5760006040517f1e4fbdf7000000000000000000000000000000000000000000000000000000008152600401610cb29190611f63565b60405180910390fd5b610cc48161112f565b50565b60085481565b60007f80ac58cd000000000000000000000000000000000000000000000000000000007bffffffffffffffffffffffffffffffffffffffffffffffffffffffff1916827bffffffffffffffffffffffffffffffffffffffffffffffffffffffff19161480610d9857507f5b5e139f000000000000000000000000000000000000000000000000000000007bffffffffffffffffffffffffffffffffffffffffffffffffffffffff1916827bffffffffffffffffffffffffffffffffffffffffffffffffffffffff1916145b80610da85750610da78261160f565b5b9050919050565b600080610dbb83611679565b9050600073ffffffffffffffffffffffffffffffffffffffff168173ffffffffffffffffffffffffffffffffffffffff1603610e2e57826040517f7e273289000000000000000000000000000000000000000000000000000000008152600401610e259190612106565b60405180910390fd5b80915050919050565b60006004600083815260200190815260200160002060009054906101000a900473ffffffffffffffffffffffffffffffffffffffff169050919050565b600033905090565b610e8983838360016116b6565b505050565b600080610e9a84611679565b9050600073ffffffffffffffffffffffffffffffffffffffff168373ffffffffffffffffffffffffffffffffffffffff1614610edc57610edb81848661187b565b5b600073ffffffffffffffffffffffffffffffffffffffff168173ffffffffffffffffffffffffffffffffffffffff1614610f6d57610f1e6000856000806116b6565b6001600360008373ffffffffffffffffffffffffffffffffffffffff1673ffffffffffffffffffffffffffffffffffffffff168152602001908152602001600020600082825403925050819055505b600073ffffffffffffffffffffffffffffffffffffffff168573ffffffffffffffffffffffffffffffffffffffff1614610ff0576001600360008773ffffffffffffffffffffffffffffffffffffffff1673ffffffffffffffffffffffffffffffffffffffff168152602001908152602001600020600082825401925050819055505b846002600086815260200190815260200160002060006101000a81548173ffffffffffffffffffffffffffffffffffffffff021916908373ffffffffffffffffffffffffffffffffffffffff160217905550838573ffffffffffffffffffffffffffffffffffffffff168273ffffffffffffffffffffffffffffffffffffffff167fddf252ad1be2c89b69c2b068fc378daa952ba7f163c4a11628f55a4df523b3ef60405160405180910390a4809150509392505050565b6110b0610e74565b73ffffffffffffffffffffffffffffffffffffffff166110ce61086d565b73ffffffffffffffffffffffffffffffffffffffff161461112d576110f1610e74565b6040517f118cdaa70000000000000000000000000000000000000000000000000000000081526004016111249190611f63565b60405180910390fd5b565b6000600760009054906101000a900473ffffffffffffffffffffffffffffffffffffffff16905081600760006101000a81548173ffffffffffffffffffffffffffffffffffffffff021916908373ffffffffffffffffffffffffffffffffffffffff1602179055508173ffffffffffffffffffffffffffffffffffffffff168173ffffffffffffffffffffffffffffffffffffffff167f8be0079c531659141344cd1fd0a4f28419497f9722a3daafe3b4186f6b6457e060405160405180910390a35050565b600073ffffffffffffffffffffffffffffffffffffffff168273ffffffffffffffffffffffffffffffffffffffff160361126657816040517f5b08ba1800000000000000000000000000000000000000000000000000000000815260040161125d9190611f63565b60405180910390fd5b80600560008573ffffffffffffffffffffffffffffffffffffffff1673ffffffffffffffffffffffffffffffffffffffff16815260200190815260200160002060008473ffffffffffffffffffffffffffffffffffffffff1673ffffffffffffffffffffffffffffffffffffffff16815260200190815260200160002060006101000a81548160ff0219169083151502179055508173ffffffffffffffffffffffffffffffffffffffff168373ffffffffffffffffffffffffffffffffffffffff167f17307eab39ab6107e8899845ad3d59bd9653f200f220920489ca2b5937696c31836040516113579190611df2565b60405180910390a3505050565b60008373ffffffffffffffffffffffffffffffffffffffff163b111561150e578273ffffffffffffffffffffffffffffffffffffffff1663150b7a02868685856040518563ffffffff1660e01b81526004016113c3949392919061276f565b6020604051808303816000875af19250505080156113ff57506040513d601f19601f820116820180604052508101906113fc91906127d0565b60015b611483573d806000811461142f576040519150601f19603f3d011682016040523d82523d6000602084013e611434565b606091505b50600081510361147b57836040517f64a0ae920000000000000000000000000000000000000000000000000000000081526004016114729190611f63565b60405180910390fd5b805181602001fd5b63150b7a0260e01b7bffffffffffffffffffffffffffffffffffffffffffffffffffffffff1916817bffffffffffffffffffffffffffffffffffffffffffffffffffffffff19161461150c57836040517f64a0ae920000000000000000000000000000000000000000000000000000000081526004016115039190611f63565b60405180910390fd5b505b5050505050565b606060405180602001604052806000815250905090565b606061153782610daf565b506000611542611515565b90506000815111611562576040518060200160405280600081525061158d565b8061156c8461193f565b60405160200161157d9291906125dc565b6040516020818303038152906040525b915050919050565b6115af828260405180602001604052806000815250611a0d565b5050565b806006600084815260200190815260200160002090816115d3919061299f565b507ff8e1a15aba9398e019f0b49df1a4fde98ee17ae345cb5f6b5e2c27f5033e8ce7826040516116039190612106565b60405180910390a15050565b60007f01ffc9a7000000000000000000000000000000000000000000000000000000007bffffffffffffffffffffffffffffffffffffffffffffffffffffffff1916827bffffffffffffffffffffffffffffffffffffffffffffffffffffffff1916149050919050565b60006002600083815260200190815260200160002060009054906101000a900473ffffffffffffffffffffffffffffffffffffffff169050919050565b80806116ef5750600073ffffffffffffffffffffffffffffffffffffffff168273ffffffffffffffffffffffffffffffffffffffff1614155b156118235760006116ff84610daf565b9050600073ffffffffffffffffffffffffffffffffffffffff168373ffffffffffffffffffffffffffffffffffffffff161415801561176a57508273ffffffffffffffffffffffffffffffffffffffff168173ffffffffffffffffffffffffffffffffffffffff1614155b801561177d575061177b8184610bad565b155b156117bf57826040517fa9fbf51f0000000000000000000000000000000000000000000000000000000081526004016117b69190611f63565b60405180910390fd5b811561182157838573ffffffffffffffffffffffffffffffffffffffff168273ffffffffffffffffffffffffffffffffffffffff167f8c5be1e5ebec7d5bd14f71427d1e84f3dd0314c0f7b2291e5b200ac8c7c3b92560405160405180910390a45b505b836004600085815260200190815260200160002060006101000a81548173ffffffffffffffffffffffffffffffffffffffff021916908373ffffffffffffffffffffffffffffffffffffffff16021790555050505050565b611886838383611a31565b61193a57600073ffffffffffffffffffffffffffffffffffffffff168373ffffffffffffffffffffffffffffffffffffffff16036118fb57806040517f7e2732890000000000000000000000000000000000000000000000000000000081526004016118f29190612106565b60405180910390fd5b81816040517f177e802f000000000000000000000000000000000000000000000000000000008152600401611931929190612535565b60405180910390fd5b505050565b60606000600161194e84611af2565b01905060008167ffffffffffffffff81111561196d5761196c6121c4565b5b6040519080825280601f01601f19166020018201604052801561199f5781602001600182028036833780820191505090505b509050600082602001820190505b600115611a02578080600190039150507f3031323334353637383961626364656600000000000000000000000000000000600a86061a8153600a85816119f6576119f5612a71565b5b049450600085036119ad575b819350505050919050565b611a178383611c45565b611a2c611a22610e74565b6000858585611364565b505050565b60008073ffffffffffffffffffffffffffffffffffffffff168373ffffffffffffffffffffffffffffffffffffffff1614158015611ae957508273ffffffffffffffffffffffffffffffffffffffff168473ffffffffffffffffffffffffffffffffffffffff161480611aaa5750611aa98484610bad565b5b80611ae857508273ffffffffffffffffffffffffffffffffffffffff16611ad083610e37565b73ffffffffffffffffffffffffffffffffffffffff16145b5b90509392505050565b600080600090507a184f03e93ff9f4daa797ed6e38ed64bf6a1f0100000000000000008310611b50577a184f03e93ff9f4daa797ed6e38ed64bf6a1f0100000000000000008381611b4657611b45612a71565b5b0492506040810190505b6d04ee2d6d415b85acef81000000008310611b8d576d04ee2d6d415b85acef81000000008381611b8357611b82612a71565b5b0492506020810190505b662386f26fc100008310611bbc57662386f26fc100008381611bb257611bb1612a71565b5b0492506010810190505b6305f5e1008310611be5576305f5e1008381611bdb57611bda612a71565b5b0492506008810190505b6127108310611c0a576127108381611c0057611bff612a71565b5b0492506004810190505b60648310611c2d5760648381611c2357611c22612a71565b5b0492506002810190505b600a8310611c3c576001810190505b80915050919050565b600073ffffffffffffffffffffffffffffffffffffffff168273ffffffffffffffffffffffffffffffffffffffff1603611cb75760006040517f64a0ae92000000000000000000000000000000000000000000000000000000008152600401611cae9190611f63565b60405180910390fd5b6000611cc583836000610e8e565b9050600073ffffffffffffffffffffffffffffffffffffffff168173ffffffffffffffffffffffffffffffffffffffff1614611d395760006040517f73c6ac6e000000000000000000000000000000000000000000000000000000008152600401611d309190611f63565b60405180910390fd5b505050565b6000604051905090565b600080fd5b600080fd5b60007fffffffff0000000000000000000000000000000000000000000000000000000082169050919050565b611d8781611d52565b8114611d9257600080fd5b50565b600081359050611da481611d7e565b92915050565b600060208284031215611dc057611dbf611d48565b5b6000611dce84828501611d95565b91505092915050565b60008115159050919050565b611dec81611dd7565b82525050565b6000602082019050611e076000830184611de3565b92915050565b600081519050919050565b600082825260208201905092915050565b60005b83811015611e47578082015181840152602081019050611e2c565b60008484015250505050565b6000601f19601f8301169050919050565b6000611e6f82611e0d565b611e798185611e18565b9350611e89818560208601611e29565b611e9281611e53565b840191505092915050565b60006020820190508181036000830152611eb78184611e64565b905092915050565b6000819050919050565b611ed281611ebf565b8114611edd57600080fd5b50565b600081359050611eef81611ec9565b92915050565b600060208284031215611f0b57611f0a611d48565b5b6000611f1984828501611ee0565b91505092915050565b600073ffffffffffffffffffffffffffffffffffffffff82169050919050565b6000611f4d82611f22565b9050919050565b611f5d81611f42565b82525050565b6000602082019050611f786000830184611f54565b92915050565b611f8781611f42565b8114611f9257600080fd5b50565b600081359050611fa481611f7e565b92915050565b60008060408385031215611fc157611fc0611d48565b5b6000611fcf85828601611f95565b9250506020611fe085828601611ee0565b9150509250929050565b6000819050919050565b600061200f61200a61200584611f22565b611fea565b611f22565b9050919050565b600061202182611ff4565b9050919050565b600061203382612016565b9050919050565b61204381612028565b82525050565b600060208201905061205e600083018461203a565b92915050565b60008060006060848603121561207d5761207c611d48565b5b600061208b86828701611f95565b935050602061209c86828701611f95565b92505060406120ad86828701611ee0565b9150509250925092565b600080604083850312156120ce576120cd611d48565b5b60006120dc85828601611f95565b92505060206120ed85828601611f95565b9150509250929050565b61210081611ebf565b82525050565b600060208201905061211b60008301846120f7565b92915050565b60006020828403121561213757612136611d48565b5b600061214584828501611f95565b91505092915050565b61215781611dd7565b811461216257600080fd5b50565b6000813590506121748161214e565b92915050565b6000806040838503121561219157612190611d48565b5b600061219f85828601611f95565b92505060206121b085828601612165565b9150509250929050565b600080fd5b600080fd5b7f4e487b7100000000000000000000000000000000000000000000000000000000600052604160045260246000fd5b6121fc82611e53565b810181811067ffffffffffffffff8211171561221b5761221a6121c4565b5b80604052505050565b600061222e611d3e565b905061223a82826121f3565b919050565b600067ffffffffffffffff82111561225a576122596121c4565b5b61226382611e53565b9050602081019050919050565b82818337600083830152505050565b600061229261228d8461223f565b612224565b9050828152602081018484840111156122ae576122ad6121bf565b5b6122b9848285612270565b509392505050565b600082601f8301126122d6576122d56121ba565b5b81356122e684826020860161227f565b91505092915050565b6000806000806080858703121561230957612308611d48565b5b600061231787828801611f95565b945050602061232887828801611f95565b935050604061233987828801611ee0565b925050606085013567ffffffffffffffff81111561235a57612359611d4d565b5b612366878288016122c1565b91505092959194509250565b600067ffffffffffffffff82111561238d5761238c6121c4565b5b61239682611e53565b9050602081019050919050565b60006123b66123b184612372565b612224565b9050828152602081018484840111156123d2576123d16121bf565b5b6123dd848285612270565b509392505050565b600082601f8301126123fa576123f96121ba565b5b813561240a8482602086016123a3565b91505092915050565b60006020828403121561242957612428611d48565b5b600082013567ffffffffffffffff81111561244757612446611d4d565b5b612453848285016123e5565b91505092915050565b7f4e487b7100000000000000000000000000000000000000000000000000000000600052602260045260246000fd5b600060028204905060018216806124a357607f821691505b6020821081036124b6576124b561245c565b5b50919050565b60006060820190506124d16000830186611f54565b6124de60208301856120f7565b6124eb6040830184611f54565b949350505050565b60008151905061250281611ec9565b92915050565b60006020828403121561251e5761251d611d48565b5b600061252c848285016124f3565b91505092915050565b600060408201905061254a6000830185611f54565b61255760208301846120f7565b9392505050565b60008151905061256d8161214e565b92915050565b60006020828403121561258957612588611d48565b5b60006125978482850161255e565b91505092915050565b600081905092915050565b60006125b682611e0d565b6125c081856125a0565b93506125d0818560208601611e29565b80840191505092915050565b60006125e882856125ab565b91506125f482846125ab565b91508190509392505050565b60006060820190506126156000830186611f54565b6126226020830185611f54565b61262f60408301846120f7565b949350505050565b7f5472616e73666572206f66205059555344206661696c65640000000000000000600082015250565b600061266d601883611e18565b915061267882612637565b602082019050919050565b6000602082019050818103600083015261269c81612660565b9050919050565b7f4e487b7100000000000000000000000000000000000000000000000000000000600052601160045260246000fd5b60006126dd82611ebf565b91507fffffffffffffffffffffffffffffffffffffffffffffffffffffffffffffffff820361270f5761270e6126a3565b5b600182019050919050565b600081519050919050565b600082825260208201905092915050565b60006127418261271a565b61274b8185612725565b935061275b818560208601611e29565b61276481611e53565b840191505092915050565b60006080820190506127846000830187611f54565b6127916020830186611f54565b61279e60408301856120f7565b81810360608301526127b08184612736565b905095945050505050565b6000815190506127ca81611d7e565b92915050565b6000602082840312156127e6576127e5611d48565b5b60006127f4848285016127bb565b91505092915050565b60008190508160005260206000209050919050565b60006020601f8301049050919050565b600082821b905092915050565b60006008830261285f7fffffffffffffffffffffffffffffffffffffffffffffffffffffffffffffffff82612822565b6128698683612822565b95508019841693508086168417925050509392505050565b600061289c61289761289284611ebf565b611fea565b611ebf565b9050919050565b6000819050919050565b6128b683612881565b6128ca6128c2826128a3565b84845461282f565b825550505050565b600090565b6128df6128d2565b6128ea8184846128ad565b505050565b5b8181101561290e576129036000826128d7565b6001810190506128f0565b5050565b601f82111561295357612924816127fd565b61292d84612812565b8101602085101561293c578190505b61295061294885612812565b8301826128ef565b50505b505050565b600082821c905092915050565b600061297660001984600802612958565b1980831691505092915050565b600061298f8383612965565b9150826002028217905092915050565b6129a882611e0d565b67ffffffffffffffff8111156129c1576129c06121c4565b5b6129cb825461248b565b6129d6828285612912565b600060209050601f831160018114612a0957600084156129f7578287015190505b612a018582612983565b865550612a69565b601f198416612a17866127fd565b60005b82811015612a3f57848901518255600182019150602085019450602081019050612a1a565b86831015612a5c5784890151612a58601f891682612965565b8355505b6001600288020188555050505b505050505050565b7f4e487b7100000000000000000000000000000000000000000000000000000000600052601260045260246000fdfea2646970667358221220bce4f6e83a48a421c69eefb225902ba38bbf4cc7ed1593c4a6561822d3b3bddb64736f6c63430008180033",
  "linkReferences": {},
  "deployedLinkReferences": {}
}